:040000005FEF00F0BE
:10000800FACF12F0FBCF13F0E9CF14F061ED00F056
:10001800D8CF01F0E8CF02F0E0CF03F0FACF04F038
:10002800FBCF05F0E9CF06F0EACF07F0E1CF08F003
:10003800E2CF09F0D9CF0AF0DACF0BF0F3CF0CF00A
:10004800F4CF0DF0F6CF0EF0F7CF0FF0F8CF10F099
:10005800F5CF11F09DB09EA00BD0800ECF6E000E94
:10006800CE6E9E9081A402D0819402D0818400D06B
:1000780011C0F5FF10C0F8FF0FC0F7FF0EC0F6FF64
:100088000DC0F4FF0CC0F3FF0BC0DAFF0AC0D9FFA4
:1000980009C0E2FF08C0E1FF07C0EAFF06C0E9FFA8
:1000A80005C0FBFF04C0FAFF03C0E0FF02C0E8FF81
:1000B80001C0D8FF1000DFEF00F00600EACF15F00E
:1000C800E1CF16F0E2CF17F0D9CF18F0DACF19F058
:1000D800F3CF1AF0F4CF1BF0F6CF1CF0F7CF1DF0DA
:1000E800F8CF1EF0F5CF1FF0F2BAF2A409D03C0EFB
:1000F800D66EF29481A802D0819802D0818800D06F
:100108001FC0F5FF1EC0F8FF1DC0F7FF1CC0F6FF9B
:100118001BC0F4FF1AC0F3FF19C0DAFF18C0D9FFDB
:1001280017C0E2FF16C0E1FF15C0EAFF14C0E9FFDF
:1001380013C0FBFF12C0FAFF1100000EC26E1A0EA8
:10014800C16EA50EC06E070EB46E3F0E926E000E05
:10015800806EC30E936E000E816E9468000E826EE0
:10016800000E956E000E836E000E966E000E846E65
:10017800D08EC60ED56E3C0ED66EF184F28A9F9054
:10018800CD84CD82CD869D80CD98CD9ACD80F28EBE
:10019800F28C1200A1EC00F0020E846E00F0000E4A
:1001A800956E00F000F000F0000E836E00D000F0B5
:1001B800FED75FEF00F000EE20F0140EEE6AE806BE
:0801C800FDE10001CEEF00F0A3
:020000040020DA
:08000000FFFFFFFFFFFFFFFF00
:020000040030CA
:0E000000000C191EFF8080FF0FC00FE00F40A4
:00000001FF
