:0400000068EF00F0B5
:10000800FACFD3F0FBCFD4F0E9CFD5F01EED0DF049
:10001800D8CF01F0E8CF02F0E0CF03F0FACF04F038
:10002800FBCF05F0E9CF06F0EACF07F0E1CF08F003
:10003800E2CF09F0D9CF0AF0DACF0BF0F3CF0CF00A
:10004800F4CF0DF0F6CF0EF0F7CF0FF0F8CF10F099
:10005800F5CF11F09DBA9EAA14D09E9A4650010D74
:10006800000EF324D96E010EF420DA6EAECFDFFF56
:10007800462A0D0EAE18D8A404D0000E466E3D8454
:1000880000D011C0F5FF10C0F8FF0FC0F7FF0EC079
:10009800F6FF0DC0F4FF0CC0F3FF0BC0DAFF0AC077
:1000A800D9FF09C0E2FF08C0E1FF07C0EAFF06C0A8
:1000B800E9FF05C0FBFF04C0FAFF03C0E0FF02C070
:1000C800E8FF01C0D8FF100044EF27F0000186A127
:1000D8001CD0000E0101696F0A0E686F030E5CECFC
:1000E80026F000D0000186B1FDD7000E0101696F2E
:1000F8001F0E686F030E5CEC26F000D0000186A38B
:10010800FDD7000E0001E56F00D03BA287D0000E9E
:100118000101826F320E816F60C083F161C084F18A
:1001280026EC26F0000E0101826F370E816F62C047
:1001380083F163C084F126EC26F0000E0101826F82
:10014800520E816F94C083F10101846B26EC26F076
:10015800000E0101826F650E816F70C068F171C079
:1001680069F172C06AF173C06BF1640E01016C6FC2
:10017800000E6D6F000E6E6F000E6F6F78EC25F03D
:1001880068C174F169C175F16AC176F16BC177F123
:10019800AC0E0101786F000E796F000E7A6F000EB9
:1001A8007B6FF2EC22F074C183F175C184F126EC07
:1001B80026F0090E0001E56531D0290E0001E56140
:1001C8002DD0000E0101826F330E816F9AC083F12A
:1001D8000101846B26EC26F0000E0101826F340EBB
:1001E800816F9CC083F10101846B26EC26F0000E20
:1001F8000101826F350E816F9BC083F10101846B11
:1002080026EC26F0000E0101826F360E816F9DC02C
:1002180083F10101846B26EC26F000D0090E000161
:10022800E56515D0290E0001E56111D01C0E00010D
:10023800E519D8B40CD01D0E0001E519D8B407D0C3
:10024800230E0001E519D8B402D03B8002D03B90C0
:1002580000D0090E0001E56509D01A0E0001E5611C
:1002680005D0000183510001D8B40ED01E0E000144
:10027800E519D8B409D0230E0001E56529D0280E68
:100288000001E56125D000D0000E0101696F390E2B
:10029800686F55EC23F068C16DF169C16EF1000E0D
:1002A8000101706F6F69A8EC27F06DC18FF16EC105
:1002B80090F18FC173F190C174F1000E0101766F56
:1002C800640E756FF6EC24F001017351BB6E00D01B
:1002D800250E0001E519D8B405D0270E0001E5194F
:1002E800D8A412D0000E0101696F2B0E686F55EC6F
:1002F80023F00101D890010168350101856F0101E2
:1003080085050001E46F17D0000E0101826F2B0EE6
:10031800816FE4C068F10101696B000E01016B6F28
:10032800020E6A6F8AEC22F068C183F169C184F118
:1003380026EC26F000D00C0E0001E5654DD01A0E13
:100348000001E56149D03CD00001995100018C5D64
:10035800D8A042D0000E00018C6F000EBB6E020EBA
:100368002CD03AD00001985100018C5DD8A034D02F
:10037800100E0001E36F010E2EEC1CF0200E0001A0
:10038800E36F000E2EEC1CF0000E00018C6F000EC7
:1003980014D022D000018C51D8B41ED0200E0001F8
:1003A800E36F010E2EEC1CF0100E0001E36F000E3F
:1003B8002EEC1CF0550EBB6E010E0001836F0CD0A5
:1003C80000018351000AD8B4BFD7010AD8B4CAD7EC
:1003D800030AD8B4DFD700D03BA618D03B96090E45
:1003E8000001E56513D0290E0001E5610FD0910EDB
:1003F8000001605D010E00016159D8A007D060C0FE
:1004080068F161C069F190EC26F000D00001E55177
:100418000001D8B407D01B0E0001E56103D000012C
:10042800918303D00001919300D0080E0001E56587
:1004380015D01B0E0001E56111D00001C6510A0D4F
:10044800F3500001625DF45000016359D8B003D045
:100458000001918706D00001919703D00001919780
:1004680000D01C0E0001E519D8B481EF0CF01D0E68
:100478000001E519D8B481EF0CF0000186BF0BD05C
:10048800000186AD05D00001919B0001918903D040
:100498000001919900D0000186BD81EF0CF00001A8
:1004A80086AF06D00001918B0001918981EF0CF095
:1004B8000001919981EF0CF0010E0001E56F000E2B
:1004C8000001836F010E1EEC27F0000186A91CD0E5
:1004D8008188050E1EEC27F08198000186A914D0AA
:1004E800000E0101696F1E0E686F030E5CEC26F0AA
:1004F80000D0030E0DEC24F001016805010169111B
:10050800D8B402D0F6D700D0000E0101696F010EF1
:10051800686F030E5CEC26F01DEF0DF0000186B548
:1005280005D000019191020EDDEF0BF000019181E1
:100538001DEF0DF0000E0101826F390E816F000E64
:100548000101846F000E836F26EC26F0000E010176
:10055800826F310E816F000E0101846F010E836F6F
:1005680026EC26F0000E0101826F660E816F000EE8
:100578000101846F010E836F26EC26F0000E010145
:10058800826F670E816F000E0101846F010E836F09
:1005980026EC26F0000E0101826F680E816F000EB6
:1005A8000101846F010E836F26EC26F0000E000116
:1005B800946F0001B351D8A422D0000186B703D0AC
:1005C800030EDDEF0BF0000170510001745D0001B6
:1005D80071510001755900017251000176590001ED
:1005E800735100017759D8A06CD1000E0001E36F58
:1005F800010E2EEC1CF065D164D11DEF0DF0000149
:1006080086A540D00001B3510A0DC80EF32401019C
:10061800856F000EF4200101866F0101876B0101CF
:1006280086BF8707010187510101886F000170515A
:100638000101855D00017151010186590001725166
:10064800010187590001735101018859D8A007D0C9
:10065800000E0001E36F010E2EEC1CF08ED070C06E
:100668008BF171C08CF1020E0001E36F010E2EECCC
:100678001CF0100E0001E36F010E2EEC1CF0BFD031
:100688001DEF0DF0000E0101826F390E816F000E13
:100698000101846F320E836F26EC26F0020E0001F2
:1006A800E36F010E2EEC1CF0200E0001E36F010E2B
:1006B8002EEC1CF07F0EBB6E040EDDEF0BF01DEF71
:1006C8000DF000019181000186A71DEF0DF00001DA
:1006D8009191000E0001E36F010E2EEC1CF0F1D099
:1006E8001DEF0DF0000186A51DEF0DF0000EBB6E8D
:1006F800200E0001E36F000E2EEC1CF0020E00012C
:10070800E36F000E2EEC1CF0000E0101826F390E13
:10071800816F000E0101846F000E836F26EC26F0B6
:100728000001B3510A0DC80EF3240101856F000EB4
:10073800F4200101866F0101876B010186BF8707DD
:10074800010187510101886F000170510101855D28
:100758000001715101018659000172510101875947
:100768000001735101018859D8A007D0000E00017B
:10077800E36F010E2EEC1CF000D0050EDDEF0BF040
:100788001DEF0DF00001B3510A0DC80EF32401014D
:10079800856F000EF4200101866F0101876B01014E
:1007A80086BF8707010187510101886F00017051D9
:1007B8000101855D000171510101865900017251E5
:1007C800010187590001735101018859D8B01DEF03
:1007D8000DF070C08BF171C08CF1020E0001E36F57
:1007E800010E2EEC1CF0100E0001E36F010E2EEC32
:1007F8001CF0000E0001E36F000E2EEC1CF0060E3C
:10080800DDEF0BF01DEF0DF00001B3510A0DF31EE3
:10081800F41EF34AF42A01018B51F3240101856F78
:1008280001018C51F4200101866F0101876B0101E0
:10083800886B000170510101855D00017151010152
:100848008659000172510101875900017351010154
:100858008859D8B004D0000186A31DEF0DF0100E02
:100868000001E36F000E2EEC1CF0020E0001E36F96
:10087800000E2EEC1CF00001B2510A0DF3CF85F1E9
:10088800F4CF86F1000E010186BFFF0E876F886FD7
:10089800000170510101855D000171510101865906
:1008A80000017251010187590001735101018859F2
:1008B800D8A007D0000E0001E36F010E2EEC1CF04B
:1008C80000D0070EDDEF0BF01DEF0DF000017451A5
:1008D8000001705D000175510001715900017651E8
:1008E800000172590001775100017359D8A020D036
:1008F800000E0101696F230E686F030E5CEC26F091
:100908000001918F000E0001E36F000E2EEC1CF029
:10091800040E0001E36F010E2EEC1CF0100E000116
:10092800E36F010E2EEC1CF0080E0001E56F00D0FD
:1009380000F01DEF0DF0000186A31DEF0DF0000182
:10094800919F000E0101696F060E686F030E5CEC43
:1009580026F0090EDDEF0BF01DEF0DF0000E010182
:10096800906F000E8F6F010190513BE1050E010160
:100978008F5DD8B036D001D034D0000186B10BD00D
:10098800030E0DEC24F00101680501016911D8B4CA
:1009980028D001D026D0BB68000E0101826F390E25
:1009A800816F000E0101846F640E836F26EC26F0C0
:1009B800020E1EEC27F0190EBB6E000E0101826FAD
:1009C800390E816F000E0101846F0A0E836F26ECC9
:1009D80026F0020E1EEC27F001018F4B902BC3D797
:1009E80000D0000E0101826F310E816F000E0101EF
:1009F800846F020E836F26EC26F0550EBB6E000E38
:100A08000101826F390E816F000E0101846F210E82
:100A1800836F26EC26F000019197000191853B8AAF
:100A2800000E00018B6F000E0001936F9FC094F0C1
:100A38003D90000E0001936F000E00018B6F000EB9
:100A480000019A6F000E00019E6F000E00019C6F5E
:100A58000A0EDDEF0BF000F03DA01DEF0DF0E3EC0A
:100A680027F0000E00018B6F000E0001936F000E3F
:100A78000101826F310E816F000E0101846F030E38
:100A8800836F26EC26F00B0E0001E56F000E0101C6
:100A9800826F390E816F000E0101846F000E836F23
:100AA80026EC26F0000E0101696F070E686F030E31
:100AB8005CEC26F00001918F1DEF0DF0030E0DEC9C
:100AC80024F0060E0101681901016911D8A410D09B
:100AD800000EBB6E3B9A00019195000E0101696FF3
:100AE8000D0E686F030E5CEC26F00001919F00D09C
:100AF800000186A31DEF0DF0000191BF1DEF0DF061
:100B0800000E0101696F060E686F030E5CEC26F09B
:100B1800000E0101826F260E816F000E0101846FA5
:100B2800000E836F26EC26F0000E00018B6F000E7E
:100B38000001936FB4C091F1000191853B8A3D900B
:100B4800400EBB6E000E0101826F390E816F000EE0
:100B58000101846F190E836F26EC26F0000E010147
:100B6800826F310E816F000E0101846F040E836F56
:100B780026EC26F00C0EDDEF0BF01DEF0DF0010159
:100B8800915100018B5DD8A01DEF0DF0E3EC27F02B
:100B9800000E00018B6F000E0001936FA0C094F04F
:100BA8003D90000E00018C6F0D0EDDEF0BF01DEF78
:100BB8000DF00001A151D8A404D024D00F0EDDEF10
:100BC8000BF03DA01DEF0DF0E3EC27F0000E000147
:100BD8008B6F000E0001936FA1C091F10E0EDDEF37
:100BE8000BF01DEF0DF00101915100018B5DD8A0B4
:100BF8001DEF0DF0E3EC27F0000E00018B6F000EE7
:100C08000001936FA2C094F03D90D8D71DEF0DF06E
:100C18000001A351D8A404D024D0110EDDEF0BF0AD
:100C28003DA01DEF0DF0E3EC27F0000E00018B6FE7
:100C3800000E0001936FA3C091F1100EDDEF0BF0D1
:100C48001DEF0DF00101915100018B5DD8A01DEF42
:100C58000DF0E3EC27F0000E00018B6F000E000191
:100C6800936FA4C094F03D90D8D71DEF0DF000010C
:100C7800A551D8A408D0130E0001E56FA6C094F0C2
:100C88003D901DEF0DF03DA01DEF0DF0E3EC27F0BA
:100C9800000E00018B6F000E0001936FA5C091F14B
:100CA800120EDDEF0BF01DEF0DF001019151000167
:100CB8008B5DD8A01DEF0DF0E3EC27F0000E0001CE
:100CC8008B6F000E0001936FA6C094F03D90130E39
:100CD800DDEF0BF01DEF0DF00001A751D8A404D0F3
:100CE80024D0150EDDEF0BF03DA01DEF0DF0E3EC69
:100CF80027F0000E00018B6F000E0001936FA7C054
:100D080091F1140EDDEF0BF01DEF0DF00101915183
:100D180000018B5DD8A01DEF0DF0E3EC27F0000E6D
:100D280000018B6F000E0001936FA8C094F03D90F6
:100D3800D8D71DEF0DF00001A951D8A40BD00001A0
:100D4800918F000E0101696F100E686F030E5CEC45
:100D580026F023D03DA01DEF0DF0E3EC27F0000EA8
:100D680000018B6F000E0001936FA9C091F1160E60
:100D7800DDEF0BF01DEF0DF00101915100018B5DCE
:100D8800D8A01DEF0DF00001918F000E0101696FD1
:100D9800100E686F030E5CEC26F0170EDDEF0BF0FB
:100DA8001DEF0DF0030E0DEC24F0060E010168197D
:100DB80001016911D8A40BD0000E0101696F110E51
:100DC800686F030E5CEC26F00001919F00D00001D3
:100DD80086A31DEF0DF0000191BF1DEF0DF0000E71
:100DE8000101696F060E686F030E5CEC26F0AAC05D
:100DF80094F0000E00018B6F000E0001936F3D9080
:100E0800180EDDEF0BF01DEF0DF03DA01DEF0DF0FE
:100E1800E3EC27F0000E00018B6F000E0001936FCA
:100E2800ABC091F1190EDDEF0BF01DEF0DF00101D4
:100E3800915100018B5DD8A01DEF0DF0000E00014F
:100E48008B6F000E0001936F000E0101826F390E47
:100E5800816F000E0101846F000E836F26EC26F06F
:100E6800000E0101826F310E816F000E0101846F47
:100E7800050E836F26EC26F0000EBB6E040E0001F3
:100E8800E36F010E2EEC1CF0100E0001E36F010E53
:100E98002EEC1CF0200E0001E36F000E2EEC1CF06F
:100EA8003B9A00019195000191970001918F1A0ECC
:100EB800DDEF0BF01DEF0DF0FE0E0001C625010160
:100EC8006D6F01016E6BFF0E6E23000E0101706FD6
:100ED8000A0E6F6FA8EC27F001016D510001625DE9
:100EE80001016E5100016359D8B003D0000186A3F7
:100EF8000BD0000E0101696F060E686F030E5CECE3
:100F080026F01B0EDDEF0BF0000E0101696F210EBC
:100F1800686F030E5CEC26F01DEF0DF0030E0DEC70
:100F280024F0060E0101681901016911D8A40BD03B
:100F3800000E0101696F0E0E686F030E5CEC26F05F
:100F48000001919F00D0000186A31DEF0DF0000164
:100F580091BF1DEF0DF0000E0101826F260E816F0B
:100F6800000E0101846F000E836F26EC26F0000E40
:100F78000101826F310E816F000E0101846F070E2F
:100F8800836F26EC26F000D0000186B3FDD7000E53
:100F98000001936F0001B351D8A408D0000E0101DD
:100FA800696F120E686F030E5CEC26F01E0E0001CE
:100FB800E56F00D0040E0001E36F000E2EEC1CF06C
:100FC800100E0001E36F000E2EEC1CF0080E00015D
:100FD800E36F010E2EEC1CF0020E0001E36F010E10
:100FE8002EEC1CF01DEF0DF0000186A31DEF0DF097
:100FF800000EBB6E000E0101826F390E816F000E6C
:101008000101846F000E836F26EC26F0010E1EECA2
:1010180027F0080E0001E36F000E2EEC1CF0020E04
:101028000001E36F000E2EEC1CF0040E0001E36FCC
:10103800010E2EEC1CF0100E0001E36F010E2EECD9
:101048001CF0000E0101696F060E686F030E5CEC60
:1010580026F0000E00018B6F000E0001936FACC0EC
:1010680094F03D90000E0101826F310E816F000EE9
:101078000101846F080E836F26EC26F03B9A00016D
:10108800918500019197000E0101826F2B0E816FEF
:10109800000E0101846F640E836F26EC26F03B82FC
:1010A80098D01DEF0DF0000186BB1DEF0DF000017B
:1010B800919B00019189000E01018E6F950E01012F
:1010C8008E6501D00CD0410E0101856FEE0EE82E21
:1010D800FED7852FFCD700D001018E2BEFD700015A
:1010E80091991D0E66D31DEF0DF000019251FF0D71
:1010F800F3CF8FF1F4CF90F18FC173F190C174F1F8
:10110800000E0101766F640E756FF6EC24F0010194
:101118007351BB6E000186A51DEF0DF0000EBB6E6E
:10112800000E0101826F390E816F000E0101846F7C
:10113800000E836F26EC26F0230E3BD31DEF0DF037
:1011480000019199000E0101696F060E686F030E88
:101158005CEC26F0080E0001E36F000E2EEC1CF08C
:10116800020E0001E36F000E2EEC1CF0040E0001CD
:10117800E36F010E2EEC1CF0100E0001E36F010E60
:101188002EEC1CF0000E00018B6F000E0001936F17
:10119800ACC094F03D90000E0101826F310E816F5A
:1011A800000E0101846F080E836F26EC26F03B9A2F
:1011B8000001918500019197000E0101826F2B0EAD
:1011C800816F000E0101846F640E836F26EC26F098
:1011D80066D7240EEED2C80E0001E46F000E01019E
:1011E800826F2B0E816F000E0101846F640E836F76
:1011F80026EC26F0000194510A0DF3500001605DC1
:10120800F45000016159D8A01DEF0DF0E3EC27F070
:10121800000E00018B6F000E0001936FADC091F1BD
:10122800250E0001E56FC70E0001E46F000E0101F5
:10123800826F2B0E816F000E0101846F640E836F25
:1012480026EC26F03B843B9A0001AD51000197251E
:101258000101686F0101696B01016937000E010125
:101268006B6F3C0E6A6F8AEC22F001016851000135
:101278009B6F0001AD51000197250101686F0101C5
:10128800696B01016937000E01016B6F3C0E6A6FD3
:10129800B3EC23F00101685100019D6FCAD300012E
:1012A800AE51D8B444D00001AE510101856F866BB0
:1012B80000018B510101876F886B0101871F881F0F
:1012C800874B882B010191510101896F8A6B0101BC
:1012D8008751010189270101885101018A230101F0
:1012E80085510101891923E10101865101018A19FA
:1012F800D8A41DD0000E0001AE6F000E0101826F50
:10130800310E816F000E0101846F090E836F26EC88
:1013180026F0000E0101696F080E686F030E5CEC81
:1013280026F00001918F260E0001E56F00D0000124
:10133800AF51D8B444D00001AF510101856F866B1D
:1013480000018B510101876F886B0101871F881F7E
:10135800874B882B010191510101896F8A6B01012B
:101368008751010189270101885101018A2301015F
:1013780085510101891923E10101865101018A1969
:10138800D8A41DD0000E0001AF6F000E0101826FBE
:10139800310E816F000E0101846F090E836F26ECF8
:1013A80026F0000E0101696F080E686F030E5CECF1
:1013B80026F00001918F260E0001E56F00D0000194
:1013C800B051D8B444D00001B0510101856F866B8B
:1013D80000018B510101876F886B0101871F881FEE
:1013E800874B882B010191510101896F8A6B01019B
:1013F8008751010189270101885101018A230101CF
:1014080085510101891923E10101865101018A19D8
:10141800D8A41DD0000E0001B06F000E0101826F2C
:10142800310E816F000E0101846F090E836F26EC67
:1014380026F0000E0101696F080E686F030E5CEC60
:1014480026F00001918F260E0001E56F00D0000103
:10145800B151D8B444D00001B1510101856F866BF8
:1014680000018B510101876F886B0101871F881F5D
:10147800874B882B010191510101896F8A6B01010A
:101488008751010189270101885101018A2301013E
:1014980085510101891923E10101865101018A1948
:1014A800D8A41DD0000E0001B16F000E0101826F9B
:1014B800310E816F000E0101846F090E836F26ECD7
:1014C80026F0000E0101696F080E686F030E5CECD0
:1014D80026F00001918F260E0001E56F00D0010172
:1014E800915100018B5DD8A0A4D2000E0101696F53
:1014F800150E686F030E5CEC26F00001918F270E25
:1015080058D197D2030E0DEC24F0060E010168198C
:1015180001016911D8A40BD0000E0101696F0F0EEB
:10152800686F030E5CEC26F00001919F00D000016B
:1015380086A37FD2000E0101696F060E686F030E45
:101548005CEC26F0000E0101826F260E816F000E02
:101558000101846F000E836F26EC26F0000E010156
:10156800826F310E816F000E0101846F080E836F48
:1015780026EC26F0250E1DD15CD2030E0DEC24F0CE
:10158800060E0101681901016911D8A40BD0000EDB
:101598000101696F130E686F030E5CEC26F0000101
:1015A800919F00D0000E0101826F650E816F70C09F
:1015B80068F171C069F172C06AF173C06BF1640EB1
:1015C80001016C6F000E6D6F000E6E6F000E6F6F75
:1015D80078EC25F068C174F169C175F16AC176F1DA
:1015E8006BC177F1AC0E0101786F000E796F000EB8
:1015F8007A6F000E7B6FF2EC22F074C183F175C133
:1016080084F126EC26F0000186A313D2000191BFD5
:1016180010D2000E00018B6F000E0001936F3B9AF1
:101628003B940001919500019197000E0101826F92
:101638002B0E816F000E0101846F000E836F26EC64
:1016480026F0000E0101696F060E686F030E5CEC50
:1016580026F0000E0101826F310E816F000E01012C
:10166800846F0A0E836F26EC26F0200E0001E36FCC
:10167800010E2EEC1CF0040E0001E36F010E2EEC9F
:101688001CF0100E0001E36F000E2EEC1CF0BB687E
:10169800000E0101826F390E816F000E0101846F07
:1016A800640E836F26EC26F097C091F1280E81D046
:1016B800C0D1000E0001E46F000E0101826F390EE7
:1016C800816F000E0101846F640E836F26EC26F093
:1016D8000101915100018B5DD8A0ABD10001918F20
:1016E800000E0101696F200E686F030E5CEC26F096
:1016F800290E5FD09ED1030E0DEC24F0060E0101D9
:10170800681901016911D8A494D1000E0101696F0B
:10171800190E686F030E5CEC26F00001919F000E15
:101728000101826F390E816F000E0101846F000E76
:10173800836F26EC26F0000EBB6E2A0E3AD079D1C4
:10174800000186A376D1000191BF73D10001919F5A
:10175800000E0101696F140E686F030E5CEC26F031
:10176800000E0101826F310E816F000E0101846F3E
:101778000B0E836F26EC26F0200E0001E36F000E9F
:101788002EEC1CF0040E0001E36F010E2EEC1CF091
:10179800400E0001E36F010E2EEC1CF00001908D4D
:1017A800000E00017D6F190E7C6F000E01018D6F18
:1017B8002B0E0001E56F3DD1000E0101826F380E3E
:1017C800816F64C083F165C084F126EC26F0000EB9
:1017D8000101826F390E816F7CC083F17DC084F175
:1017E80026EC26F03BA804D001018D2B3B9800D0B5
:1017F800010E01018D6535D0000E01018D6F0001CC
:1018080095510A0D00016451F35C00016551F458CB
:10181800D8B00ED000017D5105E11E0E00017C5D9F
:10182800D8A006D0050E00017C5F000E7D5B00D0BD
:10183800000195510A0DF3500001645DF450000158
:101848006559D8B00ED000017D510BE15B0E000147
:101858007C5DD8B006D0050E00017C27000E7D23E4
:1018680000D07CC06DF17DC06EF1000E0101706F7B
:101878006F69A8EC27F06DC173F16EC174F1000EA9
:101888000101766F640E756FF6EC24F00101735157
:10189800BB6E000186A3CDD0000EBB6E000E010109
:1018A800826F390E816F000E0101846F000E836F05
:1018B80026EC26F00001909D000E0101696F010ED3
:1018C800686F030E5CEC26F0400E0001E36F000E1B
:1018D8002EEC1CF0040E0001E36F000E2EEC1CF041
:1018E80000D0000186B3FDD7000E0101696F010E1B
:1018F800686F030E5CEC26F09CD00001E551000AED
:10190800D8B460EF02F0010AD8B492EF02F0030AEB
:10191800D8B49EEF02F0010AD8B465EF03F0070AC5
:10192800D8B476EF03F0010AD8B4C6EF03F0030A7F
:10193800D8B408EF04F0010AD8B46AEF04F00F0A2B
:10194800D8B49FEF04F0010AD8B4B2EF04F0030A48
:10195800D8B42FEF05F0010AD8B462EF05F0070AF2
:10196800D8B4C3EF05F0010AD8B4DDEF05F0030AD7
:10197800D8B4F7EF05F0010AD8B40CEF06F01F0A47
:10198800D8B426EF06F0010AD8B43BEF06F0030AF4
:10199800D8B459EF06F0010AD8B470EF06F0070A78
:1019A800D8B48AEF06F0010AD8B49FEF06F0030A0C
:1019B800D8B4C0EF06F0010AD8B4D6EF06F00F0A83
:1019C800D8B409EF07F0010AD8B41BEF07F0030AEF
:1019D800D8B460EF07F0010AD8B492EF07F0070A0D
:1019E800D8B457EF08F0010AD8B479EF08F0030A21
:1019F800D8B4F8EF07F03D0AD8B4A4EF08F0070A06
:101A0800D8B4EFEF08F0010AD8B449D4030AD8B41F
:101A180079D5010AD8B4B1D50F0AD8B44AD6010A83
:101A2800D8B469D6030AD8B48BD6010AD8B4C4D6B8
:101A380000D012000600EACFD6F0E1CFD7F0E2CF0F
:101A4800D8F0D9CFD9F0DACFDAF0F3CFDBF0F4CF92
:101A5800DCF0F6CFDDF0F7CFDEF0F8CFDFF0F5CF32
:101A6800E0F0F2BAF2A4EBD33C0ED66EF29495688D
:101A7800010E846E00F000F000F083CF86F0030EB4
:101A8800846E00F000F000F083CF85F0040E846EC1
:101A980000F000F000F083CF84F0020E846E00F0B6
:101AA800000E956E00F000F000F091C083FF00F08A
:101AB800050E846E00F000F000F090C083FF00F087
:101AC800000E846E00F095680001812B81C012F031
:101AD800136A000E156E140E146E37EC25F01250B2
:101AE8001310D8A403D00001822B00D03BAA6ED1DA
:101AF800000182510001C76FC86B00017A510001D3
:101B0800C75D0001C851800A0001C96F00017B51FF
:101B1800800A0001C959D8A059D1000E0001826F6E
:101B2800000160510001C76F000161510001C86FD9
:101B38000001C96B0001CA6B0001C71FC81FC91F7C
:101B4800CA1FC72B000EC823C923CA2300019451FA
:101B58001A6E1B6A1C6A1D6A0A0E1E6E000E1F6E24
:101B6800000E206E000E216EF1EC26F00001C75128
:101B78001A24366E0001C8511B20376E0001C95166
:101B88001C20386E0001CA511D20396E39AE0AD0AA
:101B9800FE0E365CFF0E3758FF0E3858FF0E3958C8
:101BA800D8A00CD039BE08D039503810371006E10B
:101BB800030E365CD8B002D03D8002D03D9000D0F4
:101BC800365000016C27375000016D233850000152
:101BD8006E23395000016F2300016FAF0ED0CE0E77
:101BE80000016C5DFF0E00016D59FF0E00016E597A
:101BF800FF0E00016F59D8A011D000016FBF18D097
:101C080000016F5100016E1100016D1107E1330EE3
:101C180000016C5DD8B002D00BD000D0000E0001DE
:101C28006C6F000E6D6F000E6E6F000E6F6F00D040
:101C380000018A511A6E1B6A1C6A1D6A36C01EF0A2
:101C480037C01FF038C020F039C021F0F1EC26F081
:101C58001AC026F01BC027F01CC028F01DC029F0B0
:101C68000A0E2A6E000E2B6E000E2C6E000E2D6EC4
:101C78001BEC22F026C0C7F027C0C8F028C0C9F066
:101C880029C0CAF0000189511A6E1B6A1C6A1D6AB4
:101C98006CC01EF06DC01FF06EC020F06FC021F048
:101CA800F1EC26F01AC026F01BC027F01CC028F063
:101CB8001DC029F00A0E2A6E000E2B6E000E2C6E27
:101CC800000E2D6E1BEC22F026500001C7250001E6
:101CD800CB6F27500001C8210001CC6F28500001AC
:101CE800C9210001CD6F29500001CA210001CE6F22
:101CF80068C0CFF069C0D0F06AC0D1F06BC0D2F034
:101D08000001CF1FD01FD11FD21FCF2B000ED02311
:101D1800D123D22336500001CF251A6E3750000147
:101D2800D0211B6E38500001D1211C6E39500001A2
:101D3800D2211D6E7AC014F07BC015F088C012F055
:101D4800136A65EC24F012C01EF013C01FF0000ED9
:101D58001FBEFF0E206E216EF1EC26F01A50000116
:101D6800CB25366E1B500001CC21376E1C5000016C
:101D7800CD21386E1D500001CE21396E36C068F075
:101D880037C069F038C06AF039C06BF039BE0BD083
:101D9800000194510A0DF3500001605DF4500001F8
:101DA8006159D8A002D0010E0ED039BE08D03950E2
:101DB8003810371007E1C70E365CD8B003D036C0EC
:101DC800E4F004D0C70E0001E46F00D0C70E000194
:101DD800816547D00001932B3B8800019E2B000EA4
:101DE8000001816F3B0E0001936506D0000E0001D3
:101DF800936F00018B2B00D000019D51D8A40AD00D
:101E08003B0E00019D6F00019B51D8B403D0000127
:101E18009B0700D03B0E00019E6519D0000E000103
:101E28009E6F00018C2B3B8600019C2B3BA003D0AE
:101E380000019D0700D000019B51D8A408D00001E3
:101E48009D51D8A404D0010E00019D6F00D03B0E17
:101E580000019C6506D0000E00019C6F00019A2BC2
:101E680000D03BAA1ED0010E0001E46517D0000186
:101E780094510A0DF3500001605DF450000161595E
:101E8800D8B00CD00001E4510001815DD8B003D076
:101E98000001918506D00001919503D0000191952C
:101EA80000D03BA413D0010E0001E4650CD0000162
:101EB800E4510001815DD8B003D00001918506D0BE
:101EC8000001919503D00001919500D03BACB7D1AA
:101ED800000196510001C76FC86B000162510001F3
:101EE800C75D000163510001C859D8A003D00001A3
:101EF8009187A5D100019197A2D1C30EC216030EF6
:101F080000017E6105D000017E45E846FC0B05D046
:101F180000017E45E846FC0B040FC21200D0010EFA
:101F28008BD1C282020E88D1C2B298D1C4CF34F00C
:101F3800356A3450356E346AC350341200017E510C
:101F4800020D3E0EF324D96E000EF420DA6E3450E2
:101F5800DE263550DD2200017E2B030E00017E6552
:101F680006D0000E00017E6F00017F2B00D0000E0E
:101F78000001806F190E00017F19D8A46FD1030EDC
:101F88005BD16CD1000E3A6E030E3A6401D0F8D0E2
:101F98003A50020D3E0EF324D96E000EF420DA6E8C
:101FA800DECF12F0DDCF13F0000E156E190E146E91
:101FB800C3EC26F03A50020D600EF324D96E000EE1
:101FC800F420DA6E12C0DEFF13C0DDFF030E3A60A4
:101FD800C9D021D000018D5100016027000E0001F9
:101FE8008DBFFF0E0001612321D000018E51000139
:101FF8006227000E00018EBFFF0E0001632316D07A
:1020080000018F5100016427000E00018FBFFF0EF1
:10201800000165230BD03A50000AD8B4DBD7010A77
:10202800D8B4E3D7030AD8B4EBD700D03A50020D9E
:10203800500EF324D96E010EF420DA6EDECFC7F00D
:10204800DDCFC8F03A50020D600EF324D96E000EB1
:10205800F420DA6E0001C751DE26C851DD223A505D
:10206800020D580EF324D96E010EF420DA6EDECF7D
:10207800C7F0DDCFC8F03A50020D600EF324D96ED8
:10208800000EF420DA6E0001C751DE26C851DD22A9
:102098003A50020D600EF324D96E010EF420DA6E68
:1020A800DECFC7F0DDCFC8F03A50020D600EF32442
:1020B800D96E000EF420DA6E0001C751DE26C85131
:1020C800DD22020E0001C76F3A50020D600EF324A4
:1020D800D96E000EF420DA6E0001C72904D0D92A7F
:1020E800D890DD32DF32E82EFAD73A50020D580E7A
:1020F800F324D96E010EF420DA6E3A50020D600E08
:10210800F324E16E010EF420E26EDECFE6FFDDCFB0
:10211800E5FF3A50020D500EF324D96E010EF4205B
:10212800DA6E3A50020D580EF324E16E010EF420D7
:10213800E26EDECFE6FFDDCFE5FF3A50020D600E1E
:10214800F324D96E000EF420DA6E3A50020D500EC8
:10215800F324E16E010EF420E26EDECFE6FFDDCF60
:10216800E5FF00D03A50020D3E0EF324D96E000E62
:10217800F420DA6E000EDE6E000EDD6E3A2A04D709
:10218800000E00017F6F66C070F067C071F000013B
:10219800726B736B000173510001721100017111B0
:1021A80005E1C80E0001705DD8A03CD0C80E000142
:1021B800705F000E715B725B735B70C01AF071C068
:1021C8001BF072C01CF073C01DF0640E1E6E000E72
:1021D8001F6E000E206E000E216EF1EC26F01AC064
:1021E80070F01BC071F01CC072F01DC073F070C09D
:1021F80012F071C013F072C014F073C015F0640EC1
:10220800166E000E176E000E186E000E196EB0ECEA
:1022180024F012C070F013C071F014C072F015C031
:1022280073F009D0000E0001706F000E716F000E80
:10223800726F000E736F000E0001806F0FD00001E7
:102248008051000AD8B459D6010AD8B46AD6030A0C
:10225800D8B46AD6010AD8B495D600D0E0C0F5FF44
:10226800DFC0F8FFDEC0F7FFDDC0F6FFDCC0F4FF1B
:10227800DBC0F3FFDAC0DAFFD9C0D9FFD8C0E2FF6C
:10228800D7C0E1FFD6C0EAFFD5C0E9FFD4C0FBFF45
:10229800D3C0FAFF1100100E0101876F250E01014E
:1022A8008765F5D03CD1F3D087C168F10101696B2E
:1022B80055EC23F00101685100019F6F2DD187C1B2
:1022C80068F10101696B55EC23F0010168510001C7
:1022D800A06F22D187C168F10101696B55EC23F029
:1022E800010168510001A16F17D187C168F101018F
:1022F800696B55EC23F0010168510001A26F0CD104
:1023080087C168F10101696B55EC23F0010168513F
:102318000001A36F01D187C168F10101696B55EC18
:1023280023F0010168510001A46FF6D087C168F15C
:102338000101696B55EC23F0010168510001A56F9B
:10234800EBD087C168F10101696B55EC23F00101FD
:1023580068510001A66FE0D087C168F10101696B7F
:1023680055EC23F0010168510001A76FD5D087C152
:1023780068F10101696B55EC23F001016851000116
:10238800A86FCAD087C168F10101696B55EC23F0C9
:10239800010168510001A96FBFD087C168F101012F
:1023A800696B55EC23F0010168510001AA6FB4D0A4
:1023B80087C168F10101696B55EC23F0010168518F
:1023C8000001AB6FA9D087C168F10101696B55ECB9
:1023D80023F0010168510001AC6F9ED087C168F1FC
:1023E8000101696B55EC23F0010168510001AD6FE3
:1023F80093D087C168F10101696B55EC23F00101A5
:1024080068510001AE6F88D087C168F10101696B1E
:1024180055EC23F0010168510001AF6F7DD087C1F1
:1024280068F10101696B55EC23F001016851000165
:10243800B06F72D087C168F10101696B55EC23F068
:10244800010168510001B16F67D087C168F10101CE
:10245800696B55EC23F0010168510001B26F5CD043
:1024680087C168F10101696B55EC23F001016851DE
:102478000001B36F51D0000E0101696F510E686FF2
:1024880055EC23F0010168510001B46F45D00101FA
:102498008751100AD8B408D7010AD8B410D7030A4C
:1024A800D8B418D7010AD8B420D7070AD8B428D77F
:1024B800010AD8B430D7030AD8B438D7010AD8B437
:1024C80040D70F0AD8B448D7010AD8B450D7030A5E
:1024D800D8B458D7010AD8B460D7070AD8B468D78F
:1024E800010AD8B470D7030AD8B478D7010AD8B487
:1024F80080D73F0AD8B488D7010AD8B490D7030A3E
:10250800D8B498D7010AD8B4A0D7070AD8B4A8D79E
:10251800010AD8B4B0D700D00101872BBFD600017B
:10252800B2510101686F696B6A6B6B6B100E010128
:102538006C6F270E6D6F000E6E6F000E6F6F78EC6C
:1025480025F068C174F069C175F06AC176F06BC195
:1025580077F074C074F175C075F176C076F177C004
:1025680077F1C20E0101786F170E796F000E7A6F3E
:10257800000E7B6FF2EC22F074C174F075C175F037
:1025880076C176F077C177F0000E0101876F070EEC
:102598000101876501D036D0000E010187250101B0
:1025A800686F0101696B010E692355EC23F068C15E
:1025B80085F169C186F1010187510101816F826B43
:1025C800D890010181378237010E01018127000E61
:1025D8008223B50E01018125D96E000E01018221E9
:1025E800DA6E85C1DFFF01018751020DB50EF324B4
:1025F800D96E000EF420DA6E01018651DF6E0101FA
:10260800872BC5D700019F510001A05DD8B002D02B
:1026180011D12FD20001A251D8A40ED00001A4518B
:10262800D8A408D10001A651D8A404D10001A8510A
:10263800D8B402D0FFD01DD20001A251D8B408D01E
:102648000001A0510001A25DD8B002D0F3D011D290
:102658000001A251D8B406D00001A351D8A402D0D9
:10266800E9D007D20001A251D8B414D00001A85172
:10267800D8A410D00001A651D8A40CD00001A451B0
:10268800D8A408D00001A4510001AA5DD8B002D096
:10269800D1D0EFD10001A451D8A40AD00001A6518D
:1026A800D8A4C8D00001A851D8B402D0C3D0E1D171
:1026B8000001A451D8B408D00001A2510001A45DC2
:1026C800D8B002D0B7D0D5D10001A451D8B406D023
:1026D8000001A551D8A402D0ADD0CBD10001A4519E
:1026E800D8B410D00001A851D8A40CD00001A6512C
:1026F800D8A408D00001A4510001AA5DD8B002D026
:1027080099D0B7D10001A651D8A406D00001A8518C
:10271800D8B402D08FD0ADD10001A651D8B40CD016
:102728000001A851D8A408D00001A6510001AA5D53
:10273800D8B002D07FD09DD10001A651D8B408D01E
:102748000001A4510001A65DD8B002D073D091D188
:102758000001A651D8B406D00001A751D8A402D0D0
:1027680069D087D10001A851D8B408D00001A6517A
:102778000001A85DD8B002D05DD07BD10001A8517E
:10278800D8B40CD00001A951D8B454D00001A85134
:102798000001AA5DD8B002D04DD06BD10001AE5176
:1027A800D8A40ED00001AF51D8A444D00001B05134
:1027B800D8A440D00001B151D8B402D03BD059D1EF
:1027C8000001AF51D8B408D00001AF510001AE5D8F
:1027D800D8B002D02FD04DD10001AF51D8A40AD023
:1027E8000001B051D8A426D00001B151D8B402D00C
:1027F80021D03FD10001B051D8B408D00001B05168
:102808000001AF5DD8B002D015D033D10001B0516E
:10281800D8A406D00001B151D8B402D00BD029D128
:102828000001B151D8B408D00001B1510001B05D28
:10283800D8B002D0000E1DD1E70E00019F2501017E
:10284800856F0101866BFF0E86230001B4510101DB
:102858008527000E86230001A15101018527000E5E
:1028680086230001A35101018527000E862300015C
:10287800A55101018527000E86230001A7510101FA
:102888008527000E86230001A95101018527000E26
:1028980086230001AB5101018527000E8623000124
:1028A800AD5101018527000E862300019F510101CA
:1028B8008527000E862300019F510101816F826BDD
:1028C8000101811F821F814B822B0001A051010150
:1028D800836F846B010181510101832701018251BA
:1028E80001018423010183510101852701018451DC
:1028F800010186230001A351D8B420D00001A051C2
:102908000101816F826B0101811F821F814B822B24
:102918000001A2510101836F846B01018151010102
:10292800832701018251010184230101835101019F
:102938008527010184510101862300D00001A5519A
:10294800D8B420D00001A2510101816F826B01012E
:10295800811F821F814B822B0001A4510101836FCB
:10296800846B010181510101832701018251010119
:10297800842301018351010185270101845101014B
:10298800862300D00001A751D8B420D00001A4515B
:102998000101816F826B0101811F821F814B822B94
:1029A8000001A6510101836F846B0101815101016E
:1029B800832701018251010184230101835101010F
:1029C8008527010184510101862300D00001A95106
:1029D800D8B41FD00001A6510101816F826B01019B
:1029E800811F821F814B822B0001A8510101836F37
:1029F800846B010181510101832701018251010189
:102A080084230101835101018527010184510101BA
:102A180086230101865105E13D0E0101855DD8A09F
:102A28001FD085C173F186C174F1000E0101766F64
:102A38003C0E756FF6EC24F00101735100019B6F99
:102A480085C168F186C169F1000E01016B6F3C0E0A
:102A58006A6FF0EC25F00101685100019D6F06D006
:102A6800000E00019B6F85C19DF000D000F0010EA3
:102A780000D01200000186AB1CD0000186BF0BD02D
:102A8800000186AD05D00001919B0001918903D01A
:102A98000001919900D0000186BD0BD0000186AFDE
:102AA80005D00001918B0001918903D00001919913
:102AB80000D0000191B9C8D201D0C6D2000E0101E0
:102AC800826F320E816F60C083F161C084F126ECA1
:102AD80026F0000E0101826F370E816F62C083F10C
:102AE80063C084F126EC26F0000E0101826F380ED7
:102AF800816F64C083F165C084F126EC26F0000E76
:102B08000101826F650E816F70C068F171C069F153
:102B180072C06AF173C06BF1640E01016C6F000E34
:102B28006D6F000E6E6F000E6F6F78EC25F068C148
:102B380074F169C175F16AC176F16BC177F1AC0EB8
:102B48000101786F000E796F000E7A6F000E7B6FAF
:102B5800F2EC22F074C183F175C184F126EC26F001
:102B6800000E0101696F640E686F55EC23F00101D6
:102B780068510001946F000E0101696F630E686F60
:102B880055EC23F0010168510A0DF3CF96F0000EC1
:102B98000101696F390E686F55EC23F068C16DF15A
:102BA80069C16EF1000E0101706F6F69A8EC27F022
:102BB8006DC178F06EC179F078C073F179C074F1A5
:102BC800000E0101766F640E756FF6EC24F00101BA
:102BD8007351BB6E000E0101696F400E686F55ECB2
:102BE80023F068C17CF069C17DF000017C510001CF
:102BF8007D11D8A471D1B6D16FD1000191A103D0B4
:102C08000001919103D00001918100D0000191A1B0
:102C18000DD0000E0101826F410E816F000E01017F
:102C2800846F010E836F26EC26F08CD1000E010113
:102C3800826F410E816F000E0101846F000E836F59
:102C480026EC26F07FD13C70020E0001E36F000EE7
:102C58003CB0010E2EEC1CF03CA00DD0000E010182
:102C6800826F420E816F000E0101846F010E836F27
:102C780026EC26F067D1000E0101826F420E816FAB
:102C8800000E0101846F000E836F26EC26F05AD1E6
:102C98003C72040E0001E36F000E3CB2010E2EECF4
:102CA8001CF03CA20DD0000E0101826F430E816F13
:102CB800000E0101846F010E836F26EC26F042D1CD
:102CC800000E0101826F430E816F000E0101846FB7
:102CD800000E836F26EC26F035D13C74080E0001F7
:102CE800E36F000E3CB4010E2EEC1CF03CA40DD09A
:102CF800000E0101826F440E816F000E0101846F86
:102D0800010E836F26EC26F01DD1000E0101826FA3
:102D1800440E816F000E0101846F000E836F26EC54
:102D280026F010D13C76100E0001E36F000E3CB681
:102D3800010E2EEC1CF03CA60DD0000E0101826F96
:102D4800450E816F000E0101846F010E836F26EC22
:102D580026F0F8D0000E0101826F450E816F000E3B
:102D68000101846F000E836F26EC26F0EBD03C78CF
:102D7800200E0001E36F000E3CB8010E2EEC1CF093
:102D88003CA80DD0000E0101826F460E816F000E27
:102D98000101846F010E836F26EC26F0D3D0000E5C
:102DA8000101826F460E816F000E0101846F000ED3
:102DB800836F26EC26F0C6D03C7A400E0001E36F04
:102DC800000E3CBA010E2EEC1CF03CAA0DD0000EF1
:102DD8000101826F470E816F000E0101846F010EA1
:102DE800836F26EC26F0AED0000E0101826F470EED
:102DF800816F000E0101846F000E836F26EC26F0B0
:102E0800A1D03C7C800E0001E36F000E3CBC010E9B
:102E18002EEC1CF03CAC0DD0000E0101826F480E68
:102E2800816F000E0101846F010E836F26EC26F07E
:102E380089D0000E0101826F480E816F000E0101DA
:102E4800846F000E836F26EC26F07CD03C7E000E4B
:102E58000001E36F000E3CBE010E2EEC1CF03CAEF0
:102E68000DD0000E0101826F590E816F000E010115
:102E7800846F010E836F26EC26F064D0000E0101EA
:102E8800826F590E816F000E0101846F000E836FEF
:102E980026EC26F057D0000191A30FD0000E0101B7
:102EA800826F720E816F000E0101846F000E836FB6
:102EB80026EC26F00001919345D0000E0101826FA7
:102EC800720E816F000E0101846F010E836F26EC74
:102ED80026F00001918336D07CC085F17DC086F153
:102EE80001018651000AD8B407D0010AD8B41FD00E
:102EF800030AD8B422D026D001018551010AD8B4DA
:102F08007CD6030AD8B49FD6060AD8B4C1D60C0A10
:102F1800D8B4E3D6180AD8B405D7300AD8B427D716
:102F2800600AD8B449D7C00AD8B46BD70BD001010E
:102F38008551000AD8B48AD705D001018551000A05
:102F4800D8B4A9D700F0000E0101826F400E816F3E
:102F5800000E0101846F000E836F26EC26F0C4EC8E
:102F680027F000D0000E0101696F260E686F55EC3E
:102F780023F068C17CF069C17DF000017C5100013B
:102F88007D11D8B461D000F040D03BAA10D03B9A54
:102F980000019195000E0101826F490E816F000EAC
:102FA8000101846F000E836F26EC26F040D03B8A27
:102FB800000E0101826F490E816F000E0101846FBE
:102FC800010E836F26EC26F032D03BAC10D03B9C30
:102FD80000019197000E0101826F500E816F000E63
:102FE8000101846F000E836F26EC26F020D03B8C05
:102FF800000E0101826F500E816F000E0101846F77
:10300800010E836F26EC26F012D07CC085F17DC0BE
:1030180086F101018651000AD8A409D00101855121
:10302800400AD8B4B2D7C00AD8B4CFD700D0000E5F
:103038000101826F260E816F000E0101846F000E60
:10304800836F26EC26F000D01200B5EC25F03D92F7
:103058003D9493C094F1010E0001E46F3B9A3B9CB0
:103068003B94000E836E000EBB6E3B96010E010171
:10307800956F020E1EEC27F0000E0101826F260EDE
:10308800816F000E0101846F000E836F26EC26F01D
:10309800000186A350D0000E0101696F220E686FEF
:1030A800030E5CEC26F000D0000186A33AD0FCD7D2
:1030B80038D0000E0101696F260E686F55EC23F0B9
:1030C8000101680501016911D8A42BD067EC27F02C
:1030D8001E0E00018A6F1E0E0001896F1E0E000170
:1030E800886F000E00017B6F1E0E7A6F140E0001B0
:1030F800996F020E0001986F4E0E0001C66F320ED6
:103108000001926F1E0E0001956F050E0001976F6A
:10311800640E0001876FBDEC1DF088EC1AF00BD02F
:1031280000D0030E0DEC24F0220E010168190101F4
:103138006911D8B4BED7000186A10ED0000E0101D6
:10314800696F0A0E686F030E5CEC26F000D0000170
:1031580086A102D0FCD700D0000E0101826F260E96
:10316800816F000E0101846F000E836F26EC26F03C
:103178003B9E3B82010E1EEC27F0000186A91CD065
:103188008188050E1EEC27F08198000186A914D0CD
:10319800000E0101696F1E0E686F030E5CEC26F0CD
:1031A80000D0030E0DEC24F001016805010169113E
:1031B800D8B402D0F6D700D0000E0101966F0101F5
:1031C8009551B9EC20F0000E0101826F250E816F38
:1031D800000E0101846F010E836F26EC26F080EC4F
:1031E80021F088EC1AF0000E0101696F010E686F7A
:1031F800030E5CEC26F0E3EC27F0000E0101826F71
:10320800690E816F000E0101846F000E836F26EC3A
:1032180026F000D000F001019605D8B461D1000174
:1032280086A15ED1000E0101696F0A0E686F030E58
:103238005CEC26F000D0000186B1FDD7000E01013C
:10324800696F1F0E686F030E5CEC26F000D000015A
:1032580086A3FDD7D7EC1FF0010E1EEC27F0000166
:1032680086A91CD08188050E1EEC27F081980001E4
:1032780086A914D0000E0101696F1E0E686F030E37
:103288005CEC26F000D0030E0DEC24F0010168057B
:1032980001016911D8B402D0F6D700D0000E01019F
:1032A800696F010E686F030E5CEC26F0000E0101D9
:1032B800966F16D123D03BAE02D0010E56D0000E29
:1032C8000101696F1A0E686F030E5CEC26F0A2D735
:1032D800010EB9EC20F0020E48D0030E46D0000EC5
:1032E8000101826F690E816F000E0101846F000E6B
:1032F800836F26EC26F0040E38D08CD7030E0DEC25
:1033080024F001016951000AD8A484D70101685149
:10331800020AD8B4E2D7010AD8B4E1D7070AD8B468
:10332800D7D7020AD8B4C7D775D76AEC00F0030E0E
:103338000DEC24F00101680501016911D8A46AD7D0
:103348003B9E010E0001E56F000E0001836FD7EC74
:103358001FF0000E0101696F010E686F030E5CEC2F
:1033680026F0020E1EEC27F082D00101966F52D78C
:10337800010195510101926F936B000E0101696F74
:10338800250E686F55EC23F001019251010168196F
:1033980006E10101935101016919D8B40FD0000E5B
:1033A8000101696F250E686F55EC23F00101685122
:1033B8000101956F01019551B9EC20F0000E010152
:1033C800696F260E686F55EC23F001016851010101
:1033D8006911D8B41ED04FEC11F00009D8B405D04B
:1033E80001019551E0EC1EF008D0000E0101696F53
:1033F8001B0E686F030E5CEC26F0000E0101826F55
:10340800260E816F000E0101846F000E836F26EC7B
:1034180026F0030E0DEC24F0010168050101691185
:10342800D8A4F8D64FEC11F00009D8B402D03B8EDE
:103438001ED0000E0101696F1B0E686F030E5CEC55
:1034480026F0E8D63EEC15F0030E0DEC24F0010151
:10345800680501016911D8A4DDD6D7EC1FF0000E6C
:103468000101696F010E686F030E5CEC26F0000E17
:103478007CD7D0D6030E0DEC24F0010168050101BC
:103488006911D8A408D080EC21F0BDEC1DF0000E25
:103498000101966F00D0000E0101696F690E686F17
:1034A80055EC23F0390E0101681904E1300E0101D1
:1034B8006919D8A4AFD6000E0101826F690E816F19
:1034C800000E0101846F000E836F26EC26F0000EBB
:1034D8000101696F240E686F030E5CEC26F09AD622
:1034E80001019651000AD8B409D7010AD8B41DD7EA
:1034F800030AD8B43DD7010AD8B4A4D7070AD8B468
:10350800B9D788D668EF00F0000E0101866F0D0E5E
:10351800010186656ED19DD16CD1000E0101826FCB
:10352800270E816FF00E010186250001E16F000171
:10353800E26B000EE223D9EC27F00101856F01014F
:1035480085510101836F846B26EC26F07FD1000E34
:103558000101826F280E816FF00E0101862500019E
:10356800E16F0001E26B000EE223D9EC27F00101C4
:10357800856F010185510101836F846B26EC26F06C
:1035880065D1000E0101826F290E816FF00E0101D5
:1035980086250001E16F0001E26B000EE223D9EC01
:1035A80027F00101856F010185510101836F846B4B
:1035B80026EC26F04BD1000E0101826F2A0E816F96
:1035C800F00E010186250001E16F0001E26B000E9B
:1035D800E223D9EC27F00101856F01018551010132
:1035E800836F846B26EC26F031D1000E0101826FC7
:1035F800570E816FF00E010186250001E16F000171
:10360800E26B000EE223D9EC27F00101856F01017E
:1036180085510101836F846B26EC26F017D1000ECB
:103628000101826F580E816FF00E0101862500019D
:10363800E16F0001E26B000EE223D9EC27F00101F3
:10364800856F010185510101836F846B26EC26F09B
:10365800FDD0000E0101826F2C0E816FF00E01016A
:1036680086250001E16F0001E26B000EE223D9EC30
:1036780027F00101856F010185510101836F846B7A
:1036880026EC26F0E3D0000E0101826F2D0E816F2B
:10369800F00E010186250001E16F0001E26B000ECA
:1036A800E223D9EC27F00101856F01018551010161
:1036B800836F846B26EC26F0C9D0000E0101826F5F
:1036C800550E816FF00E010186250001E16F0001A2
:1036D800E26B000EE223D9EC27F00101856F0101AE
:1036E80085510101836F846B26EC26F0AFD0000E64
:1036F8000101826F560E816FF00E010186250001CF
:10370800E16F0001E26B000EE223D9EC27F0010122
:10371800856F010185510101836F846B26EC26F0CA
:1037280095D0000E0101826F2B0E816FF00E010102
:1037380086250001E16F0001E26B000EE223D9EC5F
:1037480027F00101856F010185510101836F846BA9
:1037580026EC26F07BD0000E0101826F2E0E816FC1
:10376800F00E010186250001E16F0001E26B000EF9
:10377800E223D9EC27F00101856F01018551010190
:10378800836F846B26EC26F061D0000E0101826FF6
:103798002F0E816FF00E010186250001E16F0001F7
:1037A800E26B000EE223D9EC27F00101856F0101DD
:1037B80085510101836F846B26EC26F047D0000EFB
:1037C8000101826F300E816FF00E01018625000124
:1037D800E16F0001E26B000EE223D9EC27F0010152
:1037E800856F010185510101836F846B26EC26F0FA
:1037F8002DD001018651000AD8B48FD6010AD8B459
:10380800A6D6030AD8B4BDD6010AD8B4D4D6070AB6
:10381800D8B4EBD6010AD8B402D7030AD8B419D75A
:10382800010AD8B430D70F0AD8B447D7010AD8B498
:103838005ED7030AD8B475D7010AD8B48CD7070A5B
:10384800D8B4A3D7010AD8B4BAD700D00101862BBF
:103858005ED6120001016A6F01016A05D8A402D080
:10386800819A02D0818A00D0C4EC27F031D10001BE
:103878009081000E0101696F00D00101692B820E51
:103888000101686FDE0EE82EFED7682FFCD7C80E40
:103898000101696501D06CD101016A510101D8A407
:1038A80003D0000184B1E9D701016A05D8A443D146
:1038B800000184A340D1E1D73ED100019083000EDE
:1038C8000101696F00D00101692B820E0101686F47
:1038D800DE0EE82EFED7682FFCD7C80E01016965F9
:1038E80001D046D101016A510101D8A403D00001D9
:1038F80084B5E9D701016A05D8A41DD1000184A7C0
:103908001AD1E1D718D100019085000E0101696F25
:1039180000D00101692B820E0101686FDE0EE82ECE
:10392800FED7682FFCD7C80E0101696501D020D1E8
:1039380001016A510101D8A403D0000184B9E9D773
:1039480001016A05D8A4F7D0000184ABF4D0E1D70F
:10395800F2D000019087000E0101696F00D00101CB
:10396800692B820E0101686FDE0EE82EFED7682FE4
:10397800FCD7C80E0101696501D0FAD001016A516E
:103988000101D8A403D0000184BDE9D701016A056B
:10399800D8A4D1D0000184AFCED0E1D7CCD00001DB
:1039A8009089000E0101696F00D00101692B820E18
:1039B8000101686FDE0EE82EFED7682FFCD7C80E0F
:1039C8000101696501D0D4D001016A510101D8A46F
:1039D80003D0000185B1E9D701016A05D8A4ABD0AD
:1039E800000185A3A8D0E1D7A6D00001908B000ED6
:1039F8000101696F00D00101692B820E0101686F16
:103A0800DE0EE82EFED7682FFCD7C80E01016965C7
:103A180001D0AED001016A510101D8A403D0000140
:103A280085B5E9D701016A05D8A485D0000185A725
:103A380082D0E1D780D00001908D000E0101696F1E
:103A480000D00101692B820E0101686FDE0EE82E9D
:103A5800FED7682FFCD700F0C80E0101696501D0B8
:103A680087D001016A510101D8A403D0000185B9AA
:103A7800E8D701016A05D8A45ED0000185AB5BD008
:103A8800E0D759D00001908F000E0101696F00D076
:103A98000101692B820E0101686FDE0EE82EFED748
:103AA800682FFCD7C80E0101696501D061D00101FA
:103AB8006A510101D8A403D0000185BDE9D70101ED
:103AC8006A05D8A438D0000185AF35D0E1D733D006
:103AD8000001E351000AD8B4D5D7020AD8B4C7D632
:103AE800060AD8B4EAD60C0AD8B40DD7180AD8B43E
:103AF80030D7300AD8B453D7600AD8B476D7C00ABA
:103B0800D8B499D718D00001909130D00001909383
:103B18002DD0000190952AD00001909727D0000160
:103B2800909924D00001909B21D00001909D1ED037
:103B38000001909F1BD00001E351000AD8B4F8D7C8
:103B4800020AD8B4E0D7060AD8B4E0D70C0AD8B429
:103B5800E0D7180AD8B4E0D7300AD8B4E0D7600A5A
:103B6800D8B4E0D7C00AD8B4E0D700D0C4EC27F066
:103B78001200000E01016A6F0D0E01016A65E2D0A4
:103B88001AD1E0D0EBEC27F0F00E01016A25000114
:103B9800E16F0001E26B000EE2238AC0E3F088ECDB
:103BA80027F0FDD0EBEC27F0F00E01016A250001AB
:103BB800E16F0001E26B000EE22389C0E3F088ECBC
:103BC80027F0EDD0EBEC27F0F00E01016A2500019B
:103BD800E16F0001E26B000EE22388C0E3F088EC9D
:103BE80027F0DDD0EBEC27F0F00E01016A2500018B
:103BF800E16F0001E26B000EE2237AC0E3F088EC8B
:103C080027F0CDD0EBEC27F0F00E01016A2500017A
:103C1800E16F0001E26B000EE22399C0E3F088EC4B
:103C280027F0BDD0EBEC27F0F00E01016A2500016A
:103C3800E16F0001E26B000EE22398C0E3F088EC2C
:103C480027F0ADD0EBEC27F0F00E01016A2500015A
:103C5800E16F0001E26B000EE223C6C0E3F088ECDE
:103C680027F09DD0EBEC27F0F00E01016A2500014A
:103C7800E16F0001E26B000EE22392C0E3F088ECF2
:103C880027F08DD0EBEC27F0F00E01016A2500013A
:103C9800E16F0001E26B000EE22395C0E3F088ECCF
:103CA80027F07DD0EBEC27F0F00E01016A2500012A
:103CB800E16F0001E26B000EE22397C0E3F088ECAD
:103CC80027F06DD0EBEC27F0F00E01016A2500011A
:103CD800E16F0001E26B000EE22387C0E3F088EC9D
:103CE80027F05DD0EBEC27F0F00E01016A2500010A
:103CF800E16F0001E26B000EE2238DC0E3F088EC77
:103D080027F04DD0EBEC27F0F00E01016A250001F9
:103D1800E16F0001E26B000EE2238EC0E3F088EC55
:103D280027F03DD0EBEC27F0F00E01016A250001E9
:103D3800E16F0001E26B000EE2238FC0E3F088EC34
:103D480027F02DD001016A51000AD8B41BD7010A07
:103D5800D8B428D7030AD8B435D7010AD8B442D77B
:103D6800070AD8B44FD7010AD8B45CD7030AD8B425
:103D780069D7010AD8B476D70F0AD8B483D7010A0D
:103D8800D8B490D7030AD8B49DD7010AD8B4AAD713
:103D9800070AD8B4B7D7010AD8B4C4D700D0410E9F
:103DA8000101696FEE0EE82EFED7692FFCD700D00F
:103DB80001016A2BE1D6120001016D6F01016D0747
:103DC80001016D510101D8B406D0260E01016D0321
:103DD800F3506D6F00D0000E01016F6F150E0101D9
:103DE8006F6544D0A5D042D09FC06EF184D0A0C0EA
:103DF8006EF181D0A1C06EF17ED0A2C06EF17BD0F1
:103E0800A3C06EF178D0A4C06EF175D0A5C06EF1D4
:103E180072D0A6C06EF16FD0A7C06EF16CD0A8C0EA
:103E28006EF169D0A9C06EF166D0AAC06EF163D0F8
:103E3800ABC06EF160D0ACC06EF15DD0ADC06EF1BC
:103E48005AD0AEC06EF157D0AFC06EF154D0B0C0EA
:103E58006EF151D0B1C06EF14ED0B2C06EF14BD000
:103E6800B3C06EF148D0B4C06EF145D001016F51B6
:103E7800000AD8B4B9D7010AD8B4B9D7030AD8B454
:103E8800B9D7010AD8B4B9D7070AD8B4B9D7010A3B
:103E9800D8B4B9D7030AD8B4B9D7010AD8B4B9D7AE
:103EA8000F0AD8B4B9D7010AD8B4B9D7030AD8B415
:103EB800B9D7010AD8B4B9D7070AD8B4B9D7010A0B
:103EC800D8B4B9D7030AD8B4B9D7010AD8B4B9D77E
:103ED8001F0AD8B4B9D7010AD8B4B9D7030AD8B4D5
:103EE800B9D7010AD8B4B9D7070AD8B4B9D7010ADB
:103EF800D8B4B9D700D0EBEC27F001016D5101011E
:103F08006F250001E16F0001E26B0001E2376EC12D
:103F1800E3F088EC27F000F0410E0101696FEE0E26
:103F2800E82EFED7692FFCD700D001016F2B56D79A
:103F3800160E01016F6F31D034D0EA0E0101696F9E
:103F4800FF0E01016A6F01016F5101016B6F6C6B0C
:103F58000101695101016B2701016A5101016C23BB
:103F6800B50E01016B25D96E000E01016C21DA6EC8
:103F7800DF5001016E6FEBEC27F001016D5101017B
:103F88006F250001E16F0001E26B0001E2376EC1AD
:103F9800E3F088EC27F001016F2B250E01016F6516
:103FA800CCD700F01200000E0101696F1D0E686F7A
:103FB800030E5CEC26F03B9A3B943B9C000EBB6ED8
:103FC8000001919F00019191000191990001919543
:103FD8000001919700019193020E0001E36F000E1A
:103FE8002EEC1CF0040E0001E36F000E2EEC1CF00A
:103FF800080E0001E36F000E2EEC1CF0100E0001FD
:10400800E36F000E2EEC1CF0200E0001E36F000E93
:104018002EEC1CF0400E0001E36F000E2EEC1CF09D
:10402800800E0001E36F000E2EEC1CF0000E000164
:10403800E36F000E2EEC1CF0000E0101826F410EA2
:10404800816F000E0101846F000E836F26EC26F04D
:104058003C90000E0101826F420E816F000E01013B
:10406800846F000E836F26EC26F03C92000E01014F
:10407800826F430E816F000E0101846F000E836F03
:1040880026EC26F03C94000E0101826F440E816FED
:10409800000E0101846F000E836F26EC26F03C961B
:1040A800000E0101826F450E816F000E0101846FC1
:1040B800000E836F26EC26F03C98000E0101826FFB
:1040C800460E816F000E0101846F000E836F26EC8F
:1040D80026F03C9A000E0101826F470E816F000E98
:1040E8000101846F000E836F26EC26F03C9C000EC5
:1040F8000101826F480E816F000E0101846F000E6E
:10410800836F26EC26F03C9E000E0101826F590E4B
:10411800816F000E0101846F000E836F26EC26F07C
:10412800000E0101826F490E816F000E0101846F3C
:10413800000E836F26EC26F0000E0101826F500EF0
:10414800816F000E0101846F000E836F26EC26F04C
:10415800000E0101826F390E816F000E0101846F1C
:10416800000E836F26EC26F0120001018E6F01010C
:104178008E0701018E510101D8B406D0260E010127
:104188008E03F3508E6F00D0000E01018D6F8EC12B
:104198008FF132D08FC1E1F00001E26BD9EC27F04A
:1041A80001018A6F150E01018D6110D0100E0101F9
:1041B8008D250101816F0101826B000E82238AC166
:1041C80083F10101846B26EC26F000D0150E010165
:1041D8008D19D8A40CD0000E0101826F510E816F89
:1041E8008AC183F10101846B26EC26F000D001011D
:1041F8008D2B01018F2B00D001018E510101856F9C
:10420800866B250E01018527000E862301018F513B
:104218000101876F886B010185510101875D0101EB
:104228008851800A0101896F01018651800A0101C4
:104238008959D8A0AFD7000E01018D6F01018E51A9
:10424800160F01018F6F38D08FC1E1F00001E26BCA
:10425800D9EC27F00101856F0101855101018B6FB0
:104268008C6B01018B5101018C6F8B6B010E01016D
:104278008F250001E16F0001E26B000EE223D9EC0B
:1042880027F00101856F0101855101018B13000E93
:1042980001018D250101816F0101826B010E8223CD
:1042A8008BC183F18CC184F126EC26F001018D2BA2
:1042B800020E01018F2700D001018E510101856F87
:1042C800866B260E01018527000E862301018F517A
:1042D8000101876F886B010185510101875D01012B
:1042E8008851800A0101896F01018651800A010104
:1042F8008959D8A0A9D71200000E0101696F270EAD
:10430800686F55EC23F00101685100018A6F000EB7
:104318000101696F280E686F55EC23F0010168519F
:104328000001896F000E0101696F290E686F55EC55
:1043380023F0010168510001886F000E0101696FC7
:104348002A0E686F55EC23F068C17AF069C17BF0DA
:10435800000E0101696F570E686F55EC23F00101DB
:1043680068510001996F000E0101696F580E686F5E
:1043780055EC23F0010168510001986F000E01010E
:10438800696F2C0E686F55EC23F00101685100012C
:10439800C66F000E0101696F2D0E686F55EC23F092
:1043A800010168510001926F000E0101696F550EFD
:1043B800686F55EC23F0010168510001956F000EFC
:1043C8000101696F560E686F55EC23F001016851C1
:1043D8000001976F000E0101696F2B0E686F55EC95
:1043E80023F0010168510001876F000E0101696F18
:1043F8002E0E686F55EC23F00101685100018D6F96
:10440800000E0101696F2F0E686F55EC23F0010152
:10441800685100018E6F000E0101696F300E686FE0
:1044280055EC23F00101685100018F6F1200000E56
:104438002F6E2DAE0BD02D1E2C1E2B1E2A6C000E9F
:104448002B222C222D22010E2F6E00D029AE0BD04C
:10445800291E281E271E266C000E27222822292204
:10446800010E2F1A00D0000E306E000E316E000EB5
:10447800326E000E336E2A502B102C102D10D8B42B
:104488002FD0010E2E6E07D0D8902A362B362C3618
:104498002D362E2A00D02DBE02D0F6D700D0D890C7
:1044A80030363136323633362A50265C2B50275870
:1044B8002C5028582D502958D8A00AD02A50265EAA
:1044C8002B50275A2C50285A2D50295A308000D06A
:1044D800D8902D322C322B322A322E2EE0D700D013
:1044E8002F50D8B409D0331E321E311E306C000E46
:1044F80031223222332200D030C026F031C027F0DA
:1045080032C028F033C029F000D01200000E01019B
:104518006D6F01016BAF09D001016A6D6B1FD8B0D7
:104528006B2B010E01016D6F00D0010169AF09D03D
:104538000101686D691FD8B0692B010E01016D1B5F
:1045480000D0000E01016F6F000E6E6F01016A51FD
:1045580001016B11D8B431D0010E01016C6F07D085
:104568000101D8906A376B3701016C2B00D001012B
:104578006BBF02D0F5D700D00101D8906E376F37E6
:1045880001016A510101685D01016B51010169591D
:10459800D8A00BD001016A510101685F01016B517C
:1045A8000101695B01016E8100D00101D8906B3374
:1045B8006A3301016C2FE0D700D001016D51010170
:1045C800D8B406D001016E6D6F1FD8B06F2B00D024
:1045D8006EC168F16FC169F100D01200000E0101CF
:1045E8007C6F000E7D6F000E7E6F000E7F6F0101E5
:1045F80078510101791101017A1101017B11D8B4B7
:1046080047D0010E0101806F09D00101D890783799
:1046180079377A377B370101802B00D001017BBFC6
:1046280002D0F3D700D00101D8907C377D377E3790
:104638007F37010178510101745D01017951010150
:10464800755901017A510101765901017B51010126
:104658007759D8A013D0010178510101745F010185
:1046680079510101755B01017A510101765B010104
:104678007B510101775B01017C8100D00101D89059
:104688007B337A33793378330101802FCCD700D04C
:104698007CC174F17DC175F17EC176F17FC177F17E
:1046A80012005A0E0101286FA50E0101296F040E90
:1046B80001012A6F830E01012B6F0101695101016C
:1046C8002C6F68C12DF1010E01012E6F9E98000E0E
:1046D80001016C6F12D015D001016C51010D280E2B
:1046E800F324D96E010EF420DA6EDF50AD6E00D0DF
:1046F8009EA8FED79E9801016C2B060E01016C65E1
:10470800EBD79E9A000E01016C6F080E01016C65D3
:1047180002D012D000D09EAAFED79E9A01016C51F9
:10472800010D000EF324D96E010EF420DA6EAECF1F
:10473800DFFF01016C2BE9D70101075101016B6F04
:104748006A6B0101085101016A27000E6B23C4EC52
:1047580027F06AC168F16BC169F100D01200000E40
:104768000001E26F010169AF09D00101686D691F9D
:10477800D8B0692B010E0001E26F00D001016BAFC8
:1047880006D001016A6D6B1FD8B06B2B00D00101F8
:104798006A5101016B11D8B42BD0010E0001E16FF1
:1047A80007D00101D8906A376B370001E12B00D0A0
:1047B80001016BBF02D0F5D700D001016A51010198
:1047C800685D01016B5101016959D8A009D0010147
:1047D8006A510101685F01016B510101695B00D0F9
:1047E8000101D8906B336A330001E12FE6D700D07E
:1047F8000001E2510001D8B406D00101686D691FBB
:10480800D8B0692B00D068C168F169C169F100D0DE
:10481800120001016A6F5A0E0101286FA50E0101ED
:10482800296F030E01012A6F810E01012B6F6AC1E6
:104838002CF1020E01012D6F9E98000E01016C6F84
:1048480012D015D001016C51010D280EF324D96E38
:10485800010EF420DA6EDF50AD6E00D09EA8FED7B0
:104868009E9801016C2B050E01016C65EBD79E9A91
:10487800000E01016C6F070E01016C6502D012D0A9
:1048880000D09EAAFED79E9A01016C51010D000E20
:10489800F324D96E010EF420DA6EAECFDFFF0101EA
:1048A8006C2BE9D7000E01016B6F01010751010163
:1048B8006B27C4EC27F06BC168F10101696B00D06C
:1048C8001200000E176E15AE07D0146C151ED8B066
:1048D800152A010E176E00D013AE07D0126C131EE6
:1048E800D8B0132A010E171A00D0000E196E000E48
:1048F800186E14501510D8B421D0010E166E05D0BC
:10490800D89014361536162A00D015BE02D0F8D71E
:1049180000D0D890183619361450125C1550135818
:10492800D8A006D01450125E1550135A188000D023
:10493800D89015321432162EECD700D01750D8B4B0
:1049480005D0186C191ED8B0192A00D018C012F05A
:1049580019C013F000D01200000E1A6E000E1B6E64
:10496800000E1C6E000E1D6E165017101810191030
:10497800D8B42FD0010E1E6E07D0D8901636173631
:10498800183619361E2A00D019BE02D0F6D700D024
:10499800D8901A361B361C361D361650125C175026
:1049A80013581850145819501558D8A00AD0165032
:1049B800125E1750135A1850145A1950155A1A8063
:1049C80000D0D89019321832173216321E2EE0D77E
:1049D80000D01AC012F01BC013F01CC014F01DC088
:1049E80015F01200000E0101796F000E786F0101B9
:1049F800755101017611D8B431D0010E0101776FDC
:104A080007D00101D890753776370101772B00D090
:104A1800010176BF02D0F5D700D00101D8907837D0
:104A28007937010175510101735D01017651010169
:104A38007459D8A00BD0010175510101735F0101B0
:104A480076510101745B0101788100D00101D89091
:104A5800763375330101772FE0D700D078C173F131
:104A680079C174F11200000E176E13AE07D0126CE4
:104A7800131ED8B0132A010E176E00D015AE05D03C
:104A8800146C151ED8B0152A00D014501510D8B4BF
:104A98001DD0010E166E05D0D89014361536162A7C
:104AA80000D015BE02D0F8D700D01450125C1550B3
:104AB8001358D8A005D01450125E1550135A00D0C0
:104AC800D89015321432162EF0D700D01750D8B41B
:104AD80005D0126C131ED8B0132A00D012C012F0E1
:104AE80013C013F000D01200000E0101706F000E09
:104AF800716F000E726F000E736F00D0010168A114
:104B080011D001016C510101702701016D510101A2
:104B1800712301016E510101722301016F510101DD
:104B2800732300D00101D8906C376D376E376F371B
:104B38000101D8906B336A336933683301016851D6
:104B48000101691101016A1101016B11D8A4D6D7BD
:104B580070C168F171C169F172C16AF173C16BF119
:104B68001200000EC26E1A0EC16EA50EC06E070EA0
:104B7800B46E3F0E926E000E806EC30E936E000EE2
:104B8800816E9468000E826E9568000E836E000E2A
:104B9800966E000E846E020EB06E080EAF6EB8866A
:104BA800AC84AC8AAB8EAB889F9A9D9AC280C60EA5
:104BB800D56E3C0ED66EF184F28ACB687F0EBB6E42
:104BC800040ECA6E0F0EBA6E050EBD6E9F949D84BC
:104BD800D08EF28EF28C120001016A5101016B1124
:104BE800D8B42BD0010E0001E16F07D00101D89095
:104BF8006A376B370001E12B00D001016BBF02D08F
:104C0800F5D700D001016A510101685D01016B51BE
:104C180001016959D8A009D001016A510101685FF1
:104C280001016B510101695B00D00101D8906B3320
:104C38006A330001E12FE6D700D068C168F169C185
:104C480069F112005A0E0101286FA50E0101296FA2
:104C5800050E01012A6F820E01012B6F010182519D
:104C680001012C6F81C12DF10101845101012E6FC9
:104C780083C12FF19E98000E0001E36F070E00011B
:104C8800E36501D012D00001E351010D280EF32491
:104C9800D96E010EF420DA6EDF50AD6E00D09EA8FA
:104CA800FED79E980001E32BE9D7C4EC27F0120049
:104CB80001016A6F5A0E0101286FA50E0101296FC3
:104CC800040E01012A6F800E01012B6F6AC12CF1BD
:104CD8000101695101012D6F68C12EF19E98000EE6
:104CE80001016B6F060E01016B6501D012D0010145
:104CF8006B51010D280EF324D96E010EF420DA6EE3
:104D0800DF50AD6E00D09EA8FED79E9801016B2B98
:104D1800E9D7C4EC27F012005A0E0101286FA50E3E
:104D28000101296F040E01012A6F840E01012B6F06
:104D3800010E01012C6F0101695101012D6F68C13C
:104D48002EF19E98000E0001E36F060E0001E36548
:104D580001D012D00001E351010D280EF324D96EC1
:104D6800010EF420DA6EDF50AD6E00D09EA8FED79B
:104D78009E980001E32BE9D7C4EC27F01200000E3F
:104D8800186E000E176E14501510D8B421D0010EED
:104D9800166E05D0D89014361536162A00D015BED2
:104DA80002D0F8D700D0D890173618361450125CB5
:104DB80015501358D8A006D01450125E1550135A27
:104DC800178000D0D89015321432162EECD700D0A8
:104DD80017C012F018C013F01200000E226E000E59
:104DE800236E000E246E000E256E00D01AA009D086
:104DF8001E5022261F5023222050242221502522D3
:104E080000D0D8901E361F3620362136D8901D3255
:104E18001C321B321A321A501B101C101D10D8A439
:104E2800E5D722C01AF023C01BF024C01CF025C00F
:104E38001DF012000101686F000E01016A6F000E7B
:104E4800696FE80E0101695D030E01016A59D8B066
:104E58000FD001D00DD0070E0001E16F7D0EE82EB6
:104E6800FED7E12FFCD700F00101694B6A2BE9D787
:104E780001016807010168510101D8A4DDD71200BA
:104E880001EE00F0680EEE6AE806FDE100EE60F063
:104E9800670EEE6AE806FDE13D6A3C6A3B6A00EE91
:104EA8003EF00A0EEE6AE806FDE1DE0EF66E4F0EE3
:104EB800F76E000EF86E0900F5CFE5F0000EF86EFB
:104EC800000129EF18F000F0000E01016A6FDD0EF5
:104ED80001016A6501D017D0EBEC27F06AC1E1F057
:104EE8000001E26B000E0001E36F88EC27F0410E31
:104EF8000101696FEE0EE82EFED7692FFCD700D0AE
:104F080001016A2BE4D71200000E0101686FE1C0AD
:104F1800A9FFE3C0A8FFA69EA69CA684000EF2BE29
:104F2800010E0101686FF29E550EA76EAA0EA76EBC
:104F3800A68200D0A6B2FED7010168B102D0F29EC7
:104F480001D0F28EA694120001016D5101016F0388
:104F5800F3CF71F1F4CF72F101016D5101017003CA
:104F6800F3500101722701016E5101016F03F350E3
:104F78000101722771C16DF172C16EF100D012008A
:104F8800000E0001E26F4F0E0001E26501D00CD067
:104F9800070E0001E16F7D0EE82EFED7E12FFCD74A
:104FA80000F00001E22BEFD71200E1C0A9FFA69C98
:104FB800A69EA68000F000F0A85000D012000001C4
:104FC800918F010E1EEC27F00001919F120000D076
:084FD800A6B2FED71200010091
:020000040020DA
:08000000FFFFFFFFFFFFFFFF00
:020000040030CA
:0E000000000C191EFF8080FF0FC00FE00F40A4
:00000001FF
