:0400000068EF00F0B5
:10000800FACFCBF0FBCFCCF0E9CFCDF0B2ED0EF0CC
:10001800D8CF01F0E8CF02F0E0CF03F0FACF04F038
:10002800FBCF05F0E9CF06F0EACF07F0E1CF08F003
:10003800E2CF09F0D9CF0AF0DACF0BF0F3CF0CF00A
:10004800F4CF0DF0F6CF0EF0F7CF0FF0F8CF10F099
:10005800F5CF11F09DBA9EAA14D09E9A4650010D74
:10006800000EF324D96E010EF420DA6EAECFDFFF56
:10007800462A0D0EAE18D8A404D0000E466E3D8454
:1000880000D011C0F5FF10C0F8FF0FC0F7FF0EC079
:10009800F6FF0DC0F4FF0CC0F3FF0BC0DAFF0AC077
:1000A800D9FF09C0E2FF08C0E1FF07C0EAFF06C0A8
:1000B800E9FF05C0FBFF04C0FAFF03C0E0FF02C070
:1000C800E8FF01C0D8FF1000DBEF29F0E2EC23F0D5
:1000D8000009D8A4B1EF0EF002D0B1EF0EF03BA2A8
:1000E800A2D0000E0101856F320E846F78C086F1B0
:1000F80079C087F121EC28F0000E0101856F370ED9
:10010800846F7AC086F17BC087F121EC28F0000E5D
:100118000101856F520E846FB4C086F10101876BAF
:1001280021EC28F0000E0101856F650E846F88C0F0
:10013800D9F089C0DAF08AC0DBF08BC0DCF0640E3D
:100148000001DD6F000EDE6F000EDF6F000EE06F46
:10015800E4EC27F0D9C077F1DAC078F1DBC079F1A7
:10016800DCC07AF1AC0E01017B6F000E7C6F000ED3
:100178007D6F000E7E6F14EC26F077C186F178C192
:1001880087F121EC28F0040E00019C654CD01D0E6F
:1001980000019C6148D0000E0101856F330E846F09
:1001A800BBC086F10101876B21EC28F0000E01012C
:1001B800856F340E846FBCC086F10101876B21EC1A
:1001C80028F03BA017D0000E0101856F350E846F13
:1001D8009EC086F10101876B21EC28F0000E010119
:1001E800856F360E846FA9C086F10101876B21ECFB
:1001F80028F019D0000E0101856F350E846F000EAE
:100208000101876F000E866F21EC28F0000E0101B6
:10021800856F360E846F000E0101876F000E866FA2
:1002280021EC28F000D0040E00019C6508D0150EC2
:1002380000019C6104D000019B51D8B413D0170E63
:1002480000019C19D8B40ED01C0E00019C19D8B41A
:1002580009D0170E00019C653AD01C0E00019C6164
:1002680036D000D0000E0001DC6F390EDB6FDAECFF
:1002780024F0DBC096F1DCC097F10101975105E14C
:10028800050E0101965DD8A01ED096C1D9F097C180
:10029800DAF0000E0001DC6FDB69BFEC29F0D9C091
:1002A80096F1DAC097F196C1DFF097C1E0F0000E41
:1002B8000001E26F640EE16F62EC27F00001DF518C
:1002C800BB6E818404D08194000EBB6E00D0190EE1
:1002D80000019C19D8B405D01B0E00019C19D8A4A4
:1002E80019D0000E0001DC6F2B0EDB6FDAEC24F066
:1002F8000001D8900001DB3501018F6F01018F05E6
:100308000001E56FC70E0001E5651BD0C70E0001AF
:10031800E56F17D0000E0101856F2B0E846FE5C0C5
:10032800D9F00001DA6B000E0001DC6F020EDB6F02
:1003380046EC25F0D9C086F1DAC087F121EC28F027
:1003480000D0070E00019C65ADD0140E00019C6121
:10035800A9D09CD00001BA510001A85DD8A0A2D0B4
:10036800000E0001DC6F390EDB6FDAEC24F00001BF
:10037800DB510001B16F000E0001A86F000EBB6ECB
:10038800000E0101856F390E846F000E0101876F21
:10039800000E866F21EC28F08194020E74D082D072
:1003A800000E0101856F390E846F000E0101876F01
:1003B800210E866F21EC28F00001B9510001A85DDB
:1003C800D8A070D0100E0101896F010E4AEC1DF003
:1003D800200E0101896F000E4AEC1DF0000E00018D
:1003E800A86F000E0101856F390E846FB1C086F1C8
:1003F8000101876B21EC28F00001B151FF0DF3CF0B
:1004080096F1F4CF97F196C1DFF097C1E0F0000EB6
:100418000001E26F640EE16F62EC27F00001DF512A
:10042800BB6E000E30D03ED0000E0101856F390E34
:10043800846F000E0101876F000E866F21EC28F093
:100448000001A851D8B42ED0200E0101896F010EE9
:100458004AEC1DF0100E0101896F000E4AEC1DF0E8
:10046800550EBB6E000E0101856F390E846F000EAC
:100478000101876F210E866F21EC28F08184000E20
:100488000001A86F010E00019B6F0CD000019B5169
:10049800000AD8B45FD7010AD8B482D7030AD8B4FF
:1004A800C3D700D03BA618D03B96040E00019C652C
:1004B80013D01D0E00019C610FD0910E0001785DD4
:1004C800010E00017959D8A007D078C0DBF079C0B7
:1004D800DCF0CAEC28F000D000019C51D8B407D059
:1004E800160E00019C6103D00001AF8303D0000108
:1004F800AF9300D0020E00019C6517D0160E0001C4
:100508009C6113D00001BE510A0DF35000017A5DC1
:10051800F45000017B59D8B004D00001AF8734EF04
:100528000EF00001AF9734EF0EF00001AF9734EFF3
:100538000EF0000E0101856F390E846F000E010167
:10054800876F000E866F21EC28F0000E0101856F81
:10055800310E846F000E0101876F010E866F21EC4A
:1005680028F0000E0101856F660E846F000E0101F0
:10057800876F000E866F21EC28F0000E0101856F51
:10058800670E846F000E0101876F000E866F21ECE5
:1005980028F0000E0101856F680E846F000E0101BE
:1005A800876F000E866F21EC28F0000E0001B46FF3
:1005B8000001A1A503D0010E68EF0DF00001AF8185
:1005C800B1EF0EF00001AF810001A1A7B1EF0EF06D
:1005D8000001AF910001885100018C5D0001895133
:1005E80000018D5900018A5100018E5900018B517B
:1005F80000018F59D8A006D0000E0101896F010EA5
:100608004AEC1DF0000E0001DC6F230EDB6F030EB9
:100618005BEC28F00001AF8F000E0001DC6F230EA9
:10062800DB6F030E5BEC28F00001AF8F020E68EF62
:100638000DF0B1EF0EF00001A1A3B1EF0EF0000133
:10064800AF9F000E0001DC6F060EDB6F030E5BEC44
:1006580028F0030E68EF0DF0B1EF0EF000018C5199
:100668000001885D00018D510001895900018E51FA
:1006780000018A5900018F5100018B59D8A016D06A
:10068800000E0101896F000E4AEC1DF0040E0101F5
:10069800896F010E4AEC1DF0100E0101896F010EE1
:1006A8004AEC1DF0040E00019C6F00D000F0B1EF81
:1006B8000EF0000E0101976F000E966F0101975121
:1006C8003CE1050E0101965DD8B037D001D035D098
:1006D8000001A1B10BD0030EAEEC25F00001DB0543
:1006E8000001DC11D8B429D001D027D08184BB689F
:1006F800000E0101856F390E846F000E0101876FAE
:10070800640E866F21EC28F0020E58EC29F0190EC1
:10071800BB6E000E0101856F390E846F000E01015A
:10072800876F0A0E866F21EC28F0020E58EC29F02C
:100738000101964B972BC2D700D0000E0101856F9F
:10074800310E846F000E0101876F020E866F21EC57
:1007580028F0000E0101856F660E846F000E0101FE
:10076800876F000E866F21EC28F0000E0101856F5F
:10077800670E846F000E0101876F000E866F21ECF3
:1007880028F0000E0101856F680E846F000E0101CC
:10079800876F000E866F21EC28F0550EBB6E000E99
:1007A8000101856F390E846F000E0101876F210EDC
:1007B800866F21EC28F00001AF853B8A000E00010E
:1007C800A76F000E0001B26F50C1B4F03D90000E4B
:1007D8000001B26F000E0001BB6F000E0001BD6F7B
:1007E800000E0001BC6F050E68EF0DF000F03DA093
:1007F800B1EF0EF014EC2AF0000E0001A76F000E06
:100808000001B26F000E0101856F310E846F000E7A
:100818000101876F030E866F21EC28F0000E01019D
:10082800856F660E846F000E0101876F000E866F5C
:1008380021EC28F0000E0101856F670E846F000E11
:100848000101876F000E866F21EC28F0000E010170
:10085800856F680E846F000E0101876F000E866F2A
:1008680021EC28F0000E0101856F390E846F000E0F
:100878000101876F000E866F21EC28F0000E000141
:10088800DC6F070EDB6F030E5BEC28F00001AF8F07
:10089800060E68EF0DF0B1EF0EF0030EAEEC25F08A
:1008A800060E0001DB190001DC11D8A411D08194D7
:1008B800000EBB6E3B9A0001AF95000E0001DC6F85
:1008C8000D0EDB6F030E5BEC28F00001AF9F00D02C
:1008D8000001A1A3B1EF0EF00001AFBFB1EF0EF020
:1008E800000E0001DC6F060EDB6F030E5BEC28F0D8
:1008F800000E0101856F260E846F000E0101876FBF
:10090800000E866F21EC28F0000E0001A76F000E84
:100918000001B26F65C198F198C1D9F00001DA6B96
:10092800000E0001DC6F3C0EDB6F46EC25F0000189
:10093800D95100019E6F98C1D9F00001DA6B000E01
:100948000001DC6F3C0EDB6F77EC26F00001D9511B
:100958000001A96F3B0E0001B36F3B800001AF851A
:100968003B8A3D908184400EBB6E000E0101856F6D
:10097800390E846F000E0101876F190E866F21EC06
:1009880028F0000E0101856F310E846F000E010101
:10099800876F000E866F21EC28F0000E0101856F2D
:1009A800660E846F000E0101876F010E866F21ECC1
:1009B80028F0000E0101856F670E846F000E01019B
:1009C800876F000E866F21EC28F0000E0101856FFD
:1009D800680E846F000E0101876F000E866F21EC90
:1009E80028F0070E68EF0DF0B1EF0EF001019851F5
:1009F8000001A75DD8A0B1EF0EF014EC2AF0000EAC
:100A08000001A76F000E0001B26F51C1B4F03D9014
:100A1800000E0001A86F3B90080E68EF0DF0B1EFD3
:100A28000EF03DA0B1EF0EF014EC2AF0000E00011C
:100A3800A76F000E0001B26F52C198F198C1D9F0AA
:100A48000001DA6B000E0001DC6F3C0EDB6F46EC38
:100A580025F00001D95100019E6F98C1D9F000011D
:100A6800DA6B000E0001DC6F3C0EDB6F77EC26F0D2
:100A78000001D9510001A96F3B0E0001B36F3B8003
:100A8800090E68EF0DF0B1EF0EF001019851000169
:100A9800A75DD8A0B1EF0EF014EC2AF0000E00010B
:100AA800A76F000E0001B26F53C1B4F03D903B90A8
:100AB8000A0E68EF0DF0B1EF0EF001015451D8A401
:100AC8000BD00001AF8F000E0001DC6F100EDB6F42
:100AD800030E5BEC28F0B4D03DA0B1EF0EF014EC9F
:100AE8002AF0000E0001A76F000E0001B26F54C17A
:100AF80098F198C1D9F00001DA6B000E0001DC6FA3
:100B08003C0EDB6F46EC25F00001D95100019E6FC9
:100B180098C1D9F00001DA6B000E0001DC6F3C0EC1
:100B2800DB6F77EC26F00001D9510001A96F3B0E6D
:100B38000001B36F3B800B0E68EF0DF0B1EF0EF0C4
:100B4800010198510001A75DD8A0B1EF0EF014EC97
:100B58002AF0000E0001A76F000E0001B26F55C108
:100B6800B4F03D903B900C0E68EF0DF0B1EF0EF035
:100B780001015651D8A40BD00001AF8F000E00011F
:100B8800DC6F100EDB6F030E5BEC28F059D03DA034
:100B9800B1EF0EF014EC2AF0000E0001A76F000E62
:100BA8000001B26F56C198F198C1D9F00001DA6B13
:100BB800000E0001DC6F3C0EDB6F46EC25F00001F7
:100BC800D95100019E6F98C1D9F00001DA6B000E6F
:100BD8000001DC6F3C0EDB6F77EC26F00001D95189
:100BE8000001A96F3B0E0001B36F3B800D0E68EF4B
:100BF8000DF0B1EF0EF0010198510001A75DD8A0EA
:100C0800B1EF0EF014EC2AF0000E0001A76F000EF1
:100C18000001B26F57C1B4F03D900E0EB5D03B90B5
:100C2800B1EF0EF001015851D8A40DD00001AF8FDB
:100C3800000E0001DC6F100EDB6F030E5BEC28F07A
:100C4800120E68EF0DF03DA0B1EF0EF014EC2AF093
:100C5800000E0001A76F000E0001B26F58C198F195
:100C680098C1D9F00001DA6B000E0001DC6F3C0E70
:100C7800DB6F46EC25F00001D95100019E6F98C149
:100C8800D9F00001DA6B000E0001DC6F3C0EDB6F5F
:100C980077EC26F00001D9510001A96F3B0E000145
:100CA800B36F3B800F0E68EF0DF0B1EF0EF001014E
:100CB80098510001A75DD8A0B1EF0EF014EC2AF00E
:100CC800000E0001A76F000E0001B26F59C1B4F009
:100CD8003D903B90100E68EF0DF0B1EF0EF0010162
:100CE8005A51D8A40BD00001AF8F000E0001DC6F61
:100CF800100EDB6F030E5BEC28F0A2D73DA0B1EF1E
:100D08000EF014EC2AF0000E0001A76F000E00018F
:100D1800B26F5AC198F198C1D9F00001DA6B000E90
:100D28000001DC6F3C0EDB6F46EC25F00001D95169
:100D380000019E6F98C1D9F00001DA6B000E000126
:100D4800DC6F3C0EDB6F77EC26F00001D951000117
:100D5800A96F3B0E0001B36F3B80110E68EF0DF0D9
:100D6800B1EF0EF0010198510001A75DD8A0B1EFD5
:100D78000EF00001AF8F000E0001DC6F100EDB6F6C
:100D8800030E5BEC28F0120E00019C6F48D7B1EF00
:100D98000EF0030EAEEC25F0060E0001DB19000183
:100DA800DC11D8A40BD0000E0001DC6F110EDB6F34
:100DB800030E5BEC28F00001AF9F00D00001A1A357
:100DC800B1EF0EF00001AFBFB1EF0EF0000E000161
:100DD800DC6F060EDB6F030E5BEC28F05BC1B4F032
:100DE800000E0001A76F000E0001B26F3D90130EB8
:100DF80068EF0DF0B1EF0EF03DA0B1EF0EF014EC7E
:100E08002AF0000E0001A76F000E0001B26F5CC14E
:100E180098F198C1D9F00001DA6B000E0001DC6F7F
:100E28003C0EDB6F46EC25F00001D95100019E6FA6
:100E380098C1D9F00001DA6B000E0001DC6F3C0E9E
:100E4800DB6F77EC26F00001D9510001A96F3B0E4A
:100E58000001B36F3B80100E0101896F010E4AEC4F
:100E68001DF0200E0101896F000E4AEC1DF0550E91
:100E7800BB6E000E0101856F390E846F000E0101F3
:100E8800876F210E866F21EC28F0000E00019B6F02
:100E9800140E68EF0DF0B1EF0EF00101985100014A
:100EA800A75DD8A0B1EF0EF0000E0001A76F000EED
:100EB8000001B26F3B90000E0101856F390E846FFF
:100EC800000E0101876F000E866F21EC28F0000EDE
:100ED8000101856F310E846F000E0101876F000ECE
:100EE800866F21EC28F0000E0101856F660E846F75
:100EF800000E0101876F020E866F21EC28F0000EAC
:100F08000101856F670E846F000E0101876F000E67
:100F1800866F21EC28F0000E0101856F680E846F42
:100F2800000E0101876F000E866F21EC28F0819476
:100F3800000EBB6E040E0101896F010E4AEC1DF014
:100F4800100E0101896F010E4AEC1DF0200E0101FF
:100F5800896F000E4AEC1DF03B9A0001AF95000125
:100F6800AF97150E68EF0DF0B1EF0EF0FE0E000111
:100F7800BE250001D96F0001DA6BFF0EDA23000EDF
:100F88000001DC6F0A0EDB6FBFEC29F00001D951BC
:100F980000017A5D0001DA5100017B59D8B003D015
:100FA8000001A1A30DD0000E0001DC6F090EDB6F5C
:100FB800030E5BEC28F00001AF8F160E68EF0DF002
:100FC800000E0001DC6F210EDB6F030E5BEC28F0D6
:100FD800B1EF0EF0030EAEEC25F0060E0001DB19A2
:100FE8000001DC11D8A40BD0000E0001DC6F0E0E3E
:100FF800DB6F030E5BEC28F00001AF9F00D000010F
:10100800A1A3B1EF0EF00001AFBFB1EF0EF0000EDB
:101018000101856F260E846F000E0101876F000E97
:10102800866F21EC28F0000E0101856F310E846F68
:10103800000E0101876F000E866F21EC28F0000E6C
:101048000101856F660E846F000E0101876F000E27
:10105800866F21EC28F0000E0101856F670E846F02
:10106800000E0101876F010E866F21EC28F0000E3B
:101078000101856F680E846F000E0101876F000EF5
:10108800866F21EC28F000D00001A1B3FDD7000E37
:101098000001B26F000E0001DC6F120EDB6F030E51
:1010A8005BEC28F0040E0101896F000E4AEC1DF07C
:1010B800100E0101896F000E4AEC1DF0080E0101A7
:1010C800896F010E4AEC1DF0020E0101896F010EB5
:1010D8004AEC1DF0170E68EF0DF0B1EF0EF00001AD
:1010E800A1A3B1EF0EF08194000EBB6E000E0101BA
:1010F800856F390E846F000E0101876F000E866FB1
:1011080021EC28F0010E58EC29F0080E0101896F36
:10111800000E4AEC1DF0020E0101896F000E4AEC28
:101128001DF0040E0101896F010E4AEC1DF0100E2E
:101138000101896F010E4AEC1DF0000E0001DC6F01
:10114800060EDB6F030E5BEC28F0000E0001A76FA4
:10115800000E0001B26F5DC1B4F03D90000E0101B8
:10116800856F310E846F000E0101876F000E866F48
:1011780021EC28F0000E0101856F660E846F000EC9
:101188000101876F000E866F21EC28F0000E010127
:10119800856F670E846F000E0101876F020E866FE0
:1011A80021EC28F0000E0101856F680E846F000E97
:1011B8000101876F000E866F21EC28F03B9A000131
:1011C800AF850001AF97C70E0001E56F000E010162
:1011D800856F2B0E846F000E0101876F640E866F7A
:1011E80021EC28F03B82180E68EF0DF0B1EF0EF0FD
:1011F8000001B4510A0DF3500001785DF45000016C
:101208007959D8A0B1EF0EF014EC2AF0000E0001C5
:10121800A76F000E0001B26F5EC198F198C1D9F0B6
:101228000001DA6B000E0001DC6F3C0EDB6F46EC50
:1012380025F00001D95100019E6F98C1D9F0000135
:10124800DA6B000E0001DC6F3C0EDB6F77EC26F0EA
:101258000001D9510001A96F3B0E0001B36F3B801B
:10126800C70E0001E56F000E0101856F2B0E846F1C
:10127800000E0101876F640E866F21EC28F03B8415
:101288003B9A91D2B1EF0EF001015F51D8B468D00A
:1012980001015F5101018F6F906B0001A75101019E
:1012A800916F926B0101911F921F914B922B01013B
:1012B80098510101936F946B01019151010193279A
:1012C800010192510101942301018F5101019319E8
:1012D80047E10101905101019419D8A441D0000EB1
:1012E80001015F6F000E0101856F310E846F000EE2
:1012F8000101876F000E866F21EC28F0000E0101B6
:10130800856F660E846F000E0101876F000E866F71
:1013180021EC28F0000E0101856F670E846F000E26
:101328000101876F030E866F21EC28F0000E010182
:10133800856F680E846F000E0101876F000E866F3F
:1013480021EC28F0000E0001DC6F080EDB6F030EA5
:101358005BEC28F00001AF8F1A0E00019C6F00D0E3
:1013680001016051D8B468D00101605101018F6F4B
:10137800906B0001A7510101916F926B0101911FC0
:10138800921F914B922B010198510101936F946B1D
:101398000101915101019327010192510101942307
:1013A80001018F510101931947E101019051010198
:1013B8009419D8A441D0000E0101606F000E0101FC
:1013C800856F310E846F000E0101876F000E866FE6
:1013D80021EC28F0000E0101856F660E846F000E67
:1013E8000101876F000E866F21EC28F0000E0101C5
:1013F800856F670E846F000E0101876F030E866F7D
:1014080021EC28F0000E0101856F680E846F000E34
:101418000101876F000E866F21EC28F0000E000195
:10142800DC6F080EDB6F030E5BEC28F00001AF8F5A
:101438001A0E00019C6F00D001016151D8B468D028
:101448000101615101018F6F906B0001A7510101EA
:10145800916F926B0101911F921F914B922B010189
:1014680098510101936F946B0101915101019327E8
:10147800010192510101942301018F510101931936
:1014880047E10101905101019419D8A441D0000EFF
:101498000101616F000E0101856F310E846F000E2E
:1014A8000101876F000E866F21EC28F0000E010104
:1014B800856F660E846F000E0101876F000E866FC0
:1014C80021EC28F0000E0101856F670E846F000E75
:1014D8000101876F030E866F21EC28F0000E0101D1
:1014E800856F680E846F000E0101876F000E866F8E
:1014F80021EC28F0000E0001DC6F080EDB6F030EF4
:101508005BEC28F00001AF8F1A0E00019C6F00D031
:1015180001016251D8B468D00101625101018F6F95
:10152800906B0001A7510101916F926B0101911F0E
:10153800921F914B922B010198510101936F946B6B
:101548000101915101019327010192510101942355
:1015580001018F510101931947E1010190510101E6
:101568009419D8A441D0000E0101626F000E010148
:10157800856F310E846F000E0101876F000E866F34
:1015880021EC28F0000E0101856F660E846F000EB5
:101598000101876F000E866F21EC28F0000E010113
:1015A800856F670E846F000E0101876F030E866FCB
:1015B80021EC28F0000E0101856F680E846F000E83
:1015C8000101876F000E866F21EC28F0000E0001E4
:1015D800DC6F080EDB6F030E5BEC28F00001AF8FA9
:1015E8001A0E00019C6F00D001016451D8B468D074
:1015F8000101645101018F6F906B0001A751010136
:10160800916F926B0101911F921F914B922B0101D7
:1016180098510101936F946B010191510101932736
:10162800010192510101942301018F510101931984
:1016380047E10101905101019419D8A441D0000E4D
:101648000101646F000E0101856F310E846F000E79
:101658000101876F000E866F21EC28F0000E010152
:10166800856F660E846F000E0101876F000E866F0E
:1016780021EC28F0000E0101856F670E846F000EC3
:101688000101876F030E866F21EC28F0000E01011F
:10169800856F680E846F000E0101876F000E866FDC
:1016A80021EC28F0000E0001DC6F080EDB6F030E42
:1016B8005BEC28F00001AF8F1A0E00019C6F00D080
:1016C800010198510001A75DD8A047D3000E000181
:1016D800DC6F150EDB6F030E5BEC28F00001AF8F9B
:1016E8003B901B0EF1D139D3030EAEEC25F0060E5C
:1016F8000001DB190001DC11D8A40BD0000E000199
:10170800DC6F0F0EDB6F030E5BEC28F00001AF9F60
:1017180000D00001A1A321D30001AFBF1ED3000E4A
:101728000001DC6F060EDB6F030E5BEC28F0000E89
:101738000101856F260E846F000E0101876F000E70
:10174800866F21EC28F0000E0101856F310E846F41
:10175800000E0101876F000E866F21EC28F0000E45
:101768000101856F660E846F000E0101876F000E00
:10177800866F21EC28F0000E0101856F670E846FDB
:10178800000E0101876F020E866F21EC28F0000E13
:101798000101856F680E846F000E0101876F000ECE
:1017A800866F21EC28F0190E8FD1D7D2030EAEEC3C
:1017B80025F0060E0001DB190001DC11D8A40BD0BE
:1017C800000E0001DC6F130EDB6F030E5BEC28F0DC
:1017D8000001AF9F00D0000E0101856F650E846F78
:1017E80088C0D9F089C0DAF08AC0DBF08BC0DCF0A1
:1017F800640E0001DD6F000EDE6F000EDF6F000E5D
:10180800E06FE4EC27F0D9C077F1DAC078F1DBC0FB
:1018180079F1DCC07AF1AC0E01017B6F000E7C6FB0
:10182800000E7D6F000E7E6F14EC26F077C186F1F6
:1018380078C187F121EC28F00001A1A38ED2000124
:10184800AFBF8BD2000E0001A76F000E0001B26F70
:101858003B9A3B940001AF950001AF97000E010140
:10186800856F2B0E846F000E0101876F000E866F47
:1018780021EC28F0000E0001DC6F060EDB6F030E72
:101888005BEC28F0000E0101856F310E846F000EAD
:101898000101876F000E866F21EC28F0000E010110
:1018A800856F660E846F000E0101876F000E866FCC
:1018B80021EC28F0000E0101856F670E846F000E81
:1018C8000101876F000E866F21EC28F0000E0101E0
:1018D800856F680E846F000E0101876F010E866F99
:1018E80021EC28F0200E0101896F010E4AEC1DF051
:1018F800040E0101896F010E4AEC1DF0100E010162
:10190800896F000E4AEC1DF08184BB68000E01014E
:10191800856F390E846F000E0101876F640E866F24
:1019280021EC28F0B7C098F198C1D9F00001DA6B22
:10193800000E0001DC6F3C0EDB6F46EC25F0000169
:10194800D95100019E6F98C1D9F00001DA6B000EE1
:101958000001DC6F3C0EDB6F77EC26F00001D951FB
:101968000001A96F3B0E0001B36F3B801C0EACD089
:10197800F4D1000E0001E56F010198510001A75D47
:10198800D8A0EBD10001AF8F000E0001DC6F200E54
:10199800DB6F030E5BEC28F03B901D0E95D0DDD17C
:1019A800030EAEEC25F0060E0001DB190001DC1178
:1019B800D8A4D3D1000E0001DC6F190EDB6F030E23
:1019C8005BEC28F00001AF9F000E0101856F390E16
:1019D800846F000E0101876F000E866F21EC28F0DE
:1019E800000EBB6E8194200E0101896F000E4AEC37
:1019F8001DF01E0E69D0B1D10001A1A3AED1000126
:101A0800AFBFABD10001AF9F000E0001DC6F140E19
:101A1800DB6F030E5BEC28F0000E0101856F310EC1
:101A2800846F000E0101876F000E866F21EC28F08D
:101A3800000E0101856F660E846F000E0101876F2D
:101A4800000E866F21EC28F0000E0101856F670EED
:101A5800846F000E0101876F000E866F21EC28F05D
:101A6800000E0101856F680E846F000E0101876FFB
:101A7800020E866F21EC28F0800E0101896F010E9D
:101A88004AEC1DF0040E0101896F010E4AEC1DF0AD
:101A9800400E0101896F010E4AEC1DF0000E000195
:101AA800956F190E946F8184000E0101956F000ED9
:101AB8000101856F730E846F000E0101876F190E87
:101AC800866F21EC28F01F0E00019C6F46D1000E96
:101AD8000101856F380E846F7CC086F17DC087F167
:101AE80021EC28F0000E0101856F390E846F94C037
:101AF80086F195C087F121EC28F0000E0001DC6F1B
:101B0800730EDB6FDAEC24F00001B15101018F6F25
:101B1800906B0001DB5101018F1906E10001DC51D6
:101B280001019019D8B410D0000E0001DC6F730EBB
:101B3800DB6FDAEC24F00001DB510001B16FB1C0BA
:101B480094F00001956B00D03BA804D00101952BBF
:101B58003B9800D00E0E0101956539D0000E0101A9
:101B6800956F0001B5510A0D00017C51F35C00012D
:101B78007D51F458D8B014D00001B15101018F6FD4
:101B8800906B0001945101018F5D00019551010195
:101B98009059D8B005D000019407D8A0950700D077
:101BA8000001B5510A0DF35000017C5DF4500001AD
:101BB8007D59D8B00CD00001955109E14B0E0001B8
:101BC800945DD8B004D00001944B952B00D094C0FC
:101BD800D9F095C0DAF0000E0001DC6FDB69BFECCC
:101BE80029F0D9C0DFF0DAC0E0F0000E0001E26FA2
:101BF800640EE16F62EC27F00001DF51BB6E00015B
:101C0800A1A3ABD0000EBB6E8194000E0101856FBD
:101C1800390E846F000E0101876F000E866F21EC6C
:101C280028F0800E0101896F000E4AEC1DF0400E6D
:101C38000101896F000E4AEC1DF0040E0101896F45
:101C4800000E4AEC1DF000D00001A1B3FDD7000E34
:101C58000001DC6F010EDB6F030E5BEC28F07DD01A
:101C680000019C51000AD8B49DEF02F0010AD8B4D3
:101C7800E6EF02F0030AD8B41FEF03F0010AD8B464
:101C880032EF03F0070AD8B45DEF03F0010AD8B4C5
:101C9800FAEF03F0030AD8B451EF04F0010AD8B4FC
:101CA800FAEF04F00F0AD8B415EF05F0010AD8B41A
:101CB80049EF05F0030AD8B461EF05F0010AD8B47A
:101CC800A4EF05F0070AD8B4BCEF05F0010AD8B4B0
:101CD800FFEF05F0030AD8B416EF06F0010AD8B4EE
:101CE8005BEF06F01F0AD8B473EF06F0010AD8B408
:101CF800B6EF06F0030AD8B4CDEF06F0010AD8B45F
:101D080000EF07F0070AD8B451EF07F0010AD8B47A
:101D1800BAEF07F0030AD8B4EEEF07F0010AD8B417
:101D280073EF08F00F0AD8B4FCEF08F0010AD8B432
:101D380048EF09F0030AD8B4D7D4010AD8B436D585
:101D4800070AD8B416D6010AD8B42AD6030AD8B4D2
:101D580053D6010AD8B4BBD600D012000600EACF89
:101D6800CEF0E1CFCFF0E2CFD0F0D9CFD1F0DACFBB
:101D7800D2F0F3CFD3F0F4CFD4F0F6CFD5F0F7CF3D
:101D8800D6F0F8CFD7F0F5CFD8F0F2BAF2A4E3EF57
:101D980012F03C0ED66EF2949568010E846E00F037
:101DA80000F000F083CFA1F0030E846E00F000F085
:101DB80000F083CFA0F0040E846E00F000F000F075
:101DC80083CF9FF0020E846E00F0000E956E00F037
:101DD80000F000F0AFC083FF00F0050E846E00F045
:101DE80000F000F0AEC083FF00F0000E846E00F03B
:101DF80095680001992B0001B82B99C012F0136A5D
:101E0800000E156E140E146EA3EC27F0125013106A
:101E1800D8A403D000019A2B00D03BAA6ED10001B0
:101E28009A510001BF6FC06B000192510001BF5D64
:101E38000001C051800A0001C16F00019351800A5E
:101E48000001C159D8A059D1000E00019A6F0001B4
:101E580078510001BF6F000179510001C06F000186
:101E6800C16B0001C26B0001BF1FC01FC11FC21F91
:101E7800BF2B000EC023C123C2230001B4511A6E28
:101E88001B6A1C6A1D6A0A0E1E6E000E1F6E000E6B
:101E9800206E000E216E2BEC29F00001BF511A2490
:101EA800366E0001C0511B20376E0001C1511C2045
:101EB800386E0001C2511D20396E39AE0AD0FE0EAF
:101EC800365CFF0E3758FF0E3858FF0E3958D8A029
:101ED8000CD039BE08D039503810371006E1030E3F
:101EE800365CD8B002D03D8002D03D9000D036504C
:101EF80000018427375000018523385000018623CC
:101F0800395000018723000187AF0ED0CE0E0001A3
:101F1800845DFF0E00018559FF0E00018659FF0EF2
:101F280000018759D8A011D0000187BF18D000013F
:101F38008751000186110001851107E1330E000168
:101F4800845DD8B002D00BD000D0000E0001846FA1
:101F5800000E856F000E866F000E876F00D000019F
:101F6800A5511A6E1B6A1C6A1D6A36C01EF037C05E
:101F78001FF038C020F039C021F02BEC29F01AC02E
:101F880026F01BC027F01CC028F01DC029F00A0E3F
:101F98002A6E000E2B6E000E2C6E000E2D6E6BEC52
:101FA80024F026C0BFF027C0C0F028C0C1F029C067
:101FB800C2F00001A4511A6E1B6A1C6A1D6A84C013
:101FC8001EF085C01FF086C020F087C021F02BECE2
:101FD80029F01AC026F01BC027F01CC028F01DC02D
:101FE80029F00A0E2A6E000E2B6E000E2C6E000EC3
:101FF8002D6E6BEC24F026500001BF250001C36F45
:1020080027500001C0210001C46F28500001C121E0
:102018000001C56F29500001C2210001C66F80C0B0
:10202800C7F081C0C8F082C0C9F083C0CAF00001FF
:10203800C71FC81FC91FCA1FC72B000EC823C92323
:10204800CA2336500001C7251A6E37500001C8212F
:102058001B6E38500001C9211C6E39500001CA217D
:102068001D6E92C014F093C015F0A3C012F0136A4D
:10207800D1EC26F012C01EF013C01FF0000E1FBED8
:10208800FF0E206E216E2BEC29F01A500001C3259B
:10209800366E1B500001C421376E1C500001C5214B
:1020A800386E1D500001C621396E36C080F037C029
:1020B80081F038C082F039C083F039BE0BD00001FE
:1020C800B4510A0DF3500001785DF45000017959BC
:1020D800D8A002D0010E0ED039BE08D03950381021
:1020E800371007E1C70E365CD8B003D036C0E5F02C
:1020F80004D0C70E0001E56F00D0C70E0001996536
:1021080055D00001B22B3B880001BD2B000E000109
:10211800996F3B0E0001B26506D0000E0001B26F48
:102128000001A72B00D03BA02AD00001B307000173
:10213800B351D8A424D03B0E0001B36F00019E51C7
:10214800D8A408D000019E51D8A407D00001A951F5
:10215800D8B403D00001A90700D000019E51D8B41B
:102168000ED00001A951D8A40AD03B0E0001A96FD6
:1021780000019E51D8B403D000019E0700D03B0E49
:102188000001BD6509D0000E0001BD6F0001A82B3C
:102198003B860001BC2B00D03B0E0001BC6506D07D
:1021A800000E0001BC6F0001BB2B00D03BAA1ED063
:1021B800010E0001E56517D00001B4510A0DF35076
:1021C8000001785DF45000017959D8B00CD00001B5
:1021D800E5510001995DD8B003D00001AF8506D064
:1021E8000001AF9503D00001AF9500D03BA413D0F8
:1021F800010E0001E5650CD00001E5510001995D73
:10220800D8B003D00001AF8506D00001AF9503D048
:102218000001AF9500D03BACD2D10001B6510A0DF8
:1022280000017A51F35C00017B51F458D8A009D021
:102238000001AFA306D00001A1B503D00001AF870C
:10224800BED10001AF97BBD1C30EC216030E000169
:10225800966105D000019645E846FC0B05D00001C3
:102268009645E846FC0B040FC21200D0010EA4D11B
:10227800C282020EA1D1C2B2B1D1C4CF34F0356A44
:102288003450356E346AC350341200019651020D31
:10229800600EF324D96E000EF420DA6E3450DE2678
:1022A8003550DD220001962B030E0001966506D0FD
:1022B800000E0001966F0001972B00D0000E000160
:1022C800986F190E00019719D8A488D1030E74D1FC
:1022D80085D1000E3A6E030E3A6401D0F8D03A5018
:1022E800020D600EF324D96E000EF420DA6EDECFF4
:1022F80012F0DDCF13F0000E156E190E146EFDEC02
:1023080028F03A50020D780EF324D96E000EF4200E
:10231800DA6E12C0DEFF13C0DDFF3A50020D600E08
:10232800F324D96E000EF420DA6E000EDE6E000E75
:10233800DD6E030E3A60C9D021D00001AA51000118
:102348007827000E0001AABFFF0E0001792321D0D3
:102358000001AB5100017A27000E0001ABBFFF0E50
:1023680000017B2316D00001AC5100017C27000E30
:102378000001ACBFFF0E00017D230BD03A50000ACC
:10238800D8B4DBD7010AD8B4E3D7030AD8B4EBD75B
:1023980000D03A50020D680EF324D96E000EF420D6
:1023A800DA6EDECFBFF0DDCFC0F03A50020D780E06
:1023B800F324D96E000EF420DA6E0001BF51DE2638
:1023C800C051DD223A50020D700EF324D96E000E72
:1023D800F420DA6EDECFBFF0DDCFC0F03A50020D48
:1023E800780EF324D96E000EF420DA6E0001BF5186
:1023F800DE26C051DD223A50020D3E0EF324D96E7E
:10240800000EF420DA6EDECFBFF0DDCFC0F03A5018
:10241800020D780EF324D96E000EF420DA6E000156
:10242800BF51DE26C051DD22020E0001BF6F3A50B7
:10243800020D780EF324D96E000EF420DA6E000136
:10244800BF2904D0D92AD890DD32DF32E82EFAD756
:102458003A50020D700EF324D96E000EF420DA6E95
:102468003A50020D3E0EF324E16E000EF420E26EA7
:10247800DECFE6FFDDCFE5FF3A50020D680EF3240C
:10248800D96E000EF420DA6E3A50020D700EF32465
:10249800E16E000EF420E26EDECFE6FFDDCFE5FF51
:1024A8003A50020D780EF324D96E000EF420DA6E3D
:1024B8003A50020D680EF324E16E000EF420E26E2D
:1024C800DECFE6FFDDCFE5FF00D03A2A04D7000EC5
:1024D8000001976F7EC088F07FC089F000018A6B89
:1024E8008B6BADC0BFF00001C06BC16BC26B00014C
:1024F800BF510001885D0001C051000189590001E8
:10250800C15100018A590001C25100018B59D8A05C
:1025180049D0ADC0BFF00001C06BC16BC26B0001F8
:10252800BF510001885F0001C0510001895B0001B3
:10253800C15100018A5B0001C25100018B5B88C058
:102548001AF089C01BF08AC01CF08BC01DF0000176
:10255800A6511E6E1F6A206A216A2BEC29F01AC048
:1025680088F01BC089F01CC08AF01DC08BF088C0A1
:1025780012F089C013F08AC014F08BC015F0640EF5
:10258800166E000E176E000E186E000E196E1CECFB
:1025980027F012C088F013C089F014C08AF015C063
:1025A8008BF009D0000E0001886F000E896F000EB5
:1025B8008A6F000E8B6F000E0001986F0FD000011C
:1025C8009851000AD8B440D6010AD8B451D6030AA3
:1025D800D8B451D6010AD8B47CD600D0D8C0F5FFFB
:1025E800D7C0F8FFD6C0F7FFD5C0F6FFD4C0F4FFB8
:1025F800D3C0F3FFD2C0DAFFD1C0D9FFD0C0E2FF09
:10260800CFC0E1FFCEC0EAFFCDC0E9FFCCC0FBFFE1
:10261800CBC0FAFF1100100E0101886F250E0101D1
:102628008865F6D03DD1F4D088C1DBF00001DC6BC1
:10263800DAEC24F00001DB510101506F2ED188C182
:10264800DBF00001DC6BDAEC24F00001DB51010166
:10265800516F23D188C1DBF00001DC6BDAEC24F088
:102668000001DB510101526F18D188C1DBF0000174
:10267800DC6BDAEC24F00001DB510101536F0DD162
:1026880088C1DBF00001DC6BDAEC24F00001DB51DF
:102698000101546F02D188C1DBF00001DC6BDAEC78
:1026A80024F00001DB510101556FF7D088C1DBF040
:1026B8000001DC6BDAEC24F00001DB510101566FFC
:1026C800ECD088C1DBF00001DC6BDAEC24F000010F
:1026D800DB510101576FE1D088C1DBF00001DC6BF1
:1026E800DAEC24F00001DB510101586FD6D088C123
:1026F800DBF00001DC6BDAEC24F00001DB510101B6
:10270800596FCBD088C1DBF00001DC6BDAEC24F028
:102718000001DB5101015A6FC0D088C1DBF0000114
:10272800DC6BDAEC24F00001DB5101015B6FB5D002
:1027380088C1DBF00001DC6BDAEC24F00001DB512E
:1027480001015C6FAAD088C1DBF00001DC6BDAEC18
:1027580024F00001DB5101015D6F9FD088C1DBF0DF
:102768000001DC6BDAEC24F00001DB5101015E6F43
:1027780094D088C1DBF00001DC6BDAEC24F00001B6
:10278800DB5101015F6F89D088C1DBF00001DC6B90
:10279800DAEC24F00001DB510101606F7ED088C1C2
:1027A800DBF00001DC6BDAEC24F00001DB51010105
:1027B800616F73D088C1DBF00001DC6BDAEC24F0C8
:1027C8000001DB510101626F68D088C1DBF00001B4
:1027D800DC6BDAEC24F00001DB51B00F0101636F10
:1027E8005CD088C1DBF00001DC6BDAEC24F000017E
:1027F800DB510101646F51D0000E0001DC6F510EF6
:10280800DB6FDAEC24F00001DB510101656F45D084
:1028180001018851100AD8B407D7010AD8B40FD7D4
:10282800030AD8B417D7010AD8B41FD7070AD8B4EF
:1028380027D7010AD8B42FD7030AD8B437D7010A43
:10284800D8B43FD70F0AD8B447D7010AD8B44FD75E
:10285800030AD8B457D7010AD8B45FD7070AD8B43F
:1028680067D7010AD8B46FD7030AD8B477D7010A53
:10287800D8B47FD73F0AD8B487D7010AD8B48FD73E
:10288800030AD8B497D7010AD8B49FD7070AD8B48F
:10289800A8D7010AD8B4B0D700D00101882BBED67A
:1028A800010163510101846F856B500E010184277A
:1028B800000E852384C1D9F085C1DAF00001000E2D
:1028C800DABFFF0EDB6FDC6F100E0001DD6F270E25
:1028D800DE6F000EDF6F000EE06FE4EC27F0D9C06A
:1028E8008CF0DAC08DF0DBC08EF0DCC08FF08CC0CD
:1028F80077F18DC078F18EC079F18FC07AF17D0EB5
:1029080001017B6F170E7C6F000E7D6F000E7E6FCE
:1029180014EC26F077C18CF078C18DF079C18EF077
:102928007AC18FF0000E0101886F070E01018865DA
:1029380001D036D0000E010188250001DB6F0001AF
:10294800DC6B010EDC23DAEC24F0DBC086F1DCC0A2
:1029580087F1010188510101846F856BD8900101CD
:1029680084378537010E01018427000E8523660E02
:1029780001018425D96E010E01018521DA6E86C117
:10298800DFFF01018851020D660EF324D96E010E96
:10299800F420DA6E01018751DF6E0101882BC5D75B
:1029A800010150510101515DD8B002D033D136D167
:1029B80001015351D8A40ED001015551D8A42AD1F0
:1029C80001015751D8A426D101015951D8B402D0D8
:1029D80021D124D101015351D8B408D0010151515A
:1029E8000101535DD8B002D015D118D1010153515E
:1029F800D8B406D001015451D8A402D00BD10ED1BD
:102A080001015351D8B414D001015951D8A410D0A0
:102A180001015751D8A40CD001015551D8A408D0B0
:102A28000101555101015B5DD8B002D0F3D0F6D059
:102A380001015551D8A40AD001015751D8A4EAD0B0
:102A480001015951D8B402D0E5D0E8D0010155515F
:102A5800D8B408D0010153510101555DD8B002D056
:102A6800D9D0DCD001015551D8B406D00101565156
:102A7800D8A402D0CFD0D2D001015551D8B410D0AB
:102A880001015951D8A40CD001015751D8A408D03C
:102A98000101555101015B5DD8B002D0BBD0BED059
:102AA80001015751D8A406D001015951D8B402D018
:102AB800B1D0B4D001015751D8B40CD0010159514B
:102AC800D8A408D00101575101015B5DD8B002D0EC
:102AD800A1D0A4D001015751D8B408D00101555153
:102AE8000101575DD8B002D095D098D00101575157
:102AF800D8B406D001015851D8A402D08BD08ED0BA
:102B080001015951D8B408D0010157510101595D4B
:102B1800D8B002D07FD082D001015951D8B40CD09E
:102B280001015A51D8B476D00101595101015B5DB8
:102B3800D8B002D06FD072D001015F51D8A412D0A2
:102B480001016051D8A466D001016151D8A462D0B6
:102B580001016251D8A45ED001016451D8B402D0F9
:102B680059D05CD001016051D8B408D0010160513E
:102B780001015F5DD8B002D04DD050D00101605145
:102B8800D8A40ED001016151D8A444D001016251EA
:102B9800D8A440D001016451D8B402D03BD03ED073
:102BA80001016151D8B408D0010161510101605D92
:102BB800D8B002D02FD032D001016151D8A40AD0A8
:102BC80001016251D8A426D001016251D8B402D0C3
:102BD80021D024D001016251D8B408D0010162513A
:102BE8000101615DD8B002D015D018D00101625141
:102BF800D8A406D001016451D8B402D00BD00ED0AD
:102C080001016451D8B408D0010164510101625D29
:102C1800D8B002D0000E02D0010E00D01200000E73
:102C28000101856F320E846F78C086F179C087F113
:102C380021EC28F0000E0101856F370E846F7AC0F1
:102C480086F17BC087F121EC28F0000E0101856F29
:102C5800380E846F7CC086F17DC087F121EC28F0A6
:102C6800000E0101856F650E846F88C0D9F089C098
:102C7800DAF08AC0DBF08BC0DCF0640E0001DD6F97
:102C8800000EDE6F000EDF6F000EE06FE4EC27F041
:102C9800D9C077F1DAC078F1DBC079F1DCC07AF11C
:102CA800AC0E01017B6F000E7C6F000E7D6F000E75
:102CB8007E6F14EC26F077C186F178C187F121EC9C
:102CC80028F0000E0001DC6F640EDB6FDAEC24F0F4
:102CD8000001DB510001B46F000E0001DC6F630ED0
:102CE800DB6FDAEC24F00001DB510001B66F000E57
:102CF8000001DC6F390EDB6FDAEC24F0DBC090F0FA
:102D0800DCC091F00001915105E1050E0001905DD4
:102D1800D8A01ED090C0D9F091C0DAF0000E000102
:102D2800DC6FDB69BFEC29F0D9C090F0DAC091F014
:102D380090C0DFF091C0E0F0000E0001E26F640E79
:102D4800E16F62EC27F00001DF51BB6E818404D093
:102D5800000EBB6E819400D0000E0001DC6F400EA7
:102D6800DB6FDAEC24F0DBC094F0DCC095F00001F6
:102D7800945100019511D8A471D1B6D16FD1000139
:102D8800AFA103D00001AF9103D00001AF8100D003
:102D98000001AFA10DD0000E0101856F410E846FB7
:102DA800000E0101876F010E866F21EC28F08CD18F
:102DB800000E0101856F410E846F000E0101876FBF
:102DC800000E866F21EC28F07FD13C70020E0101C5
:102DD800896F000E3CB0010E4AEC1DF03CA00DD0EE
:102DE800000E0101856F420E846F000E0101876F8E
:102DF800010E866F21EC28F067D1000E0101856F66
:102E0800420E846F000E0101876F000E866F21EC61
:102E180028F05AD13C72040E0101896F000E3CB2B1
:102E2800010E4AEC1DF03CA20DD0000E0101856F89
:102E3800430E846F000E0101876F010E866F21EC2F
:102E480028F042D1000E0101856F430E846F000EF9
:102E58000101876F000E866F21EC28F035D13C7494
:102E6800080E0101896F000E3CB4010E4AEC1DF0FA
:102E78003CA40DD0000E0101856F440E846F000E36
:102E88000101876F010E866F21EC28F01DD1000E1D
:102E98000101856F440E846F000E0101876F000EDB
:102EA800866F21EC28F010D13C76100E0101896F55
:102EB800000E3CB6010E4AEC1DF03CA60DD0000EEB
:102EC8000101856F450E846F000E0101876F010EA9
:102ED800866F21EC28F0F8D0000E0101856F450EB1
:102EE800846F000E0101876F000E866F21EC28F0B9
:102EF800EBD03C78200E0101896F000E3CB8010E22
:102F08004AEC1DF03CA80DD0000E0101856F460E5D
:102F1800846F000E0101876F010E866F21EC28F087
:102F2800D3D0000E0101856F460E846F000E01019B
:102F3800876F000E866F21EC28F0C6D03C7A400ED1
:102F48000101896F000E3CBA010E4AEC1DF03CAA43
:102F58000DD0000E0101856F470E846F000E010130
:102F6800876F010E866F21EC28F0AED0000E0101AC
:102F7800856F470E846F000E0101876F000E866F04
:102F880021EC28F0A1D03C7C800E0101896F000E55
:102F98003CBC010E4AEC1DF03CAC0DD0000E01010A
:102FA800856F480E846F000E0101876F010E866FD2
:102FB80021EC28F089D0000E0101856F480E846F3E
:102FC800000E0101876F000E866F21EC28F07CD07F
:102FD8003C7E000E0101896F000E3CBE010E4AECDA
:102FE8001DF03CAE0DD0000E0101856F590E846FA7
:102FF800000E0101876F010E866F21EC28F064D066
:10300800000E0101856F590E846F000E0101876F54
:10301800000E866F21EC28F057D00001AFA30FD027
:10302800000E0101856F720E846F000E0101876F1B
:10303800000E866F21EC28F00001AF9345D0000EFA
:103048000101856F720E846F000E0101876F010EFA
:10305800866F21EC28F00001AF8336D094C08FF141
:1030680095C090F101019051000AD8B407D0010A27
:10307800D8B41FD0030AD8B422D026D001018F516A
:10308800010AD8B47CD6030AD8B49FD6060AD8B4A5
:10309800C1D60C0AD8B4E3D6180AD8B405D7300A72
:1030A800D8B427D7600AD8B449D7C00AD8B46BD7E0
:1030B8000BD001018F51000AD8B48AD705D001017D
:1030C8008F51000AD8B4A9D700F0000E0101856F0E
:1030D800400E846F000E0101876F000E866F21EC91
:1030E80028F0F5EC29F000D0000E0001DC6F260E68
:1030F800DB6FDAEC24F0DBC094F0DCC095F0000163
:10310800945100019511D8B461D000F040D03BAA89
:1031180010D03B9A0001AF95000E0101856F490E52
:10312800846F000E0101876F000E866F21EC28F076
:1031380040D03B8A000E0101856F490E846F000E56
:103148000101876F010E866F21EC28F032D03BAC6D
:1031580010D03B9C0001AF97000E0101856F500E07
:10316800846F000E0101876F000E866F21EC28F036
:1031780020D03B8C000E0101856F500E846F000E2D
:103188000101876F010E866F21EC28F012D094C0E0
:103198008FF195C090F101019051000AD8A409D08F
:1031A80001018F51400AD8B4B2D7C00AD8B4CFD7DA
:1031B80000D0000E0101856F260E846F000E0101FC
:1031C800876F000E866F21EC28F000D0120093EC78
:1031D80028F03D923D94B2C09BF1010E0001E56FCD
:1031E8003B9A3B9C3B94000E836E000EBB6E3B9655
:1031F800010E01019C6F020E58EC29F0000E01012E
:10320800856F400E846F000E0101876F000E866F78
:1032180021EC28F0000E0101856F260E846F000E48
:103228000101876F000E866F21EC28F00001A1A331
:1032380050D0000E0001DC6F220EDB6F030E5BEC3A
:1032480028F000D00001A1A33AD0FCD738D0000E56
:103258000001DC6F260EDB6FDAEC24F00001DB05E1
:103268000001DC11D8A42BD07EEC29F01E0E000141
:10327800A56F1E0E0001A46F1E0E0001A36F000EA5
:103288000001936F1E0E926F140E0001BA6F020EAA
:103298000001B96F4E0E0001BE6F320E0001B06F13
:1032A8001E0E0001B56F050E0001B76F640E000118
:1032B800A26F14EC1FF03AEC1BF00BD000D0030EF9
:1032C800AEEC25F0220E0001DB190001DC11D8B4A8
:1032D800BED70001A1A10ED0000E0001DC6F0A0EBE
:1032E800DB6F030E5BEC28F000D00001A1A102D037
:1032F800FCD700D0000E0001DC6F1F0EDB6F030E41
:103308005BEC28F000D00001A1A3FDD70001A1A922
:103318001CD08188050E58EC29F081980001A1A9DC
:1033280014D0000E0001DC6F1E0EDB6F030E5BEC89
:1033380028F000D0030EAEEC25F00001DB050001FB
:10334800DC11D8B402D0F6D700D054EC21F0000E2E
:103358000101856F260E846F000E0101876F000E34
:10336800866F21EC28F03B9E3B82010E58EC29F039
:10337800000E00019D6F01019C5143EC22F0000EEC
:103388000101856F250E846F000E0101876F010E04
:10339800866F21EC28F03AEC1BF031EC23F0000E9C
:1033A8000001DC6F010EDB6F030E5BEC28F014EC00
:1033B8002AF0000E0101856F690E846F000E01016D
:1033C800876F000E866F21EC28F000D000F0E2EC49
:1033D80023F038D123D03BAE02D0010E56D0000ED8
:1033E8000001DC6F1A0EDB6F030E5BEC28F0EED7E2
:1033F800010E43EC22F0020E48D0030E46D0000E18
:103408000101856F690E846F000E0101876F000E40
:10341800866F21EC28F0040E38D0D8D7030EAEEC16
:1034280025F00001DC51000AD8A4D0D70001DB51F7
:10343800020AD8B4E2D7010AD8B4E1D7070AD8B447
:10344800D7D7020AD8B4C7D7C1D76AEC00F0030EA1
:10345800AEEC25F00001DB050001DC11D8A4B6D7DD
:103468003B9E000E00019C6F000E00019B6F54EC08
:1034780021F0000E0001DC6F010EDB6F030E5BEC28
:1034880028F0020E58EC29F09BD000019D6F9ED7C2
:1034980001019C510101996F9A6B000E0001DC6FCC
:1034A800250EDB6FDAEC24F0010199510001DB19DC
:1034B80006E101019A510001DC19D8B40FD0000EC1
:1034C8000001DC6F250EDB6FDAEC24F00001DB5124
:1034D80001019C6F01019C5143EC22F0000E000198
:1034E800DC6F260EDB6FDAEC24F00001DB51000103
:1034F800DC11D8B42ED0000E0001DC6F260EDB6F75
:10350800030E5BEC28F00FEC13F00009D8B405D0DB
:1035180001019C515DEC20F008D0000E0001DC6F29
:103528001B0EDB6F030E5BEC28F0000E0001DC6F56
:10353800040EDB6F030E5BEC28F0000E0101856FB3
:10354800260E846F000E0101876F000E866F21EC36
:1035580028F0030EAEEC25F0260E0001DB19000161
:10356800DC11D8A433D70FEC13F00009D8B40AD073
:103578003B8E000E0001DC6F010EDB6F030E5BEC6F
:1035880028F01ED0000E0001DC6F1B0EDB6F030E4F
:103598005BEC28F01BD713EC16F0030EAEEC25F00D
:1035A8000001DB050001DC11D8A410D754EC21F090
:1035B800000E0001DC6F010EDB6F030E5BEC28F0E0
:1035C800000E63D703D7030EAEEC25F0260E0001DC
:1035D800DB190001DC11D8A410D031EC23F014EC75
:1035E8001FF0000E0001DC6F010EDB6F030E5BECB9
:1035F80028F0000E00019D6F00D0000E0001DC6F66
:10360800690EDB6FDAEC24F0930E0001DB1904E19C
:103618000A0E0001DC19D8A4D9D6000E0101856F65
:10362800690E846F000E0101876F000E866F21EC12
:1036380028F0000E0001DC6F240EDB6F030E5BEC3C
:1036480028F0C4D600019D51000AD8B4E7D6010A73
:10365800D8B4FBD6030AD8B41BD7010AD8B49BD771
:10366800070AD8B4B0D7B2D668EF00F0000E01014F
:103678008A6F0F0E01018A65A2D1D7D1A0D1000EA1
:103688000101856F270E846FF00E01018A25000164
:10369800D96F0001DA6B000EDA230AEC2AF0010177
:1036A800896F010189510101866F876B21EC28F030
:1036B800B9D1000E0101856F280E846FF00E01014B
:1036C8008A250001D96F0001DA6B000EDA230AECB3
:1036D8002AF00101896F010189510101866F876B09
:1036E80021EC28F09FD1000E0101856F290E846F0F
:1036F800F00E01018A250001D96F0001DA6B000E76
:10370800DA230AEC2AF00101896F010189510101CC
:10371800866F876B21EC28F085D1000E0101856F3B
:103728002A0E846FF00E01018A250001D96F00016D
:10373800DA6B000EDA230AEC2AF00101896F010125
:1037480089510101866F876B21EC28F06BD1000E3F
:103758000101856F570E846FF00E01018A25000163
:10376800D96F0001DA6B000EDA230AEC2AF00101A6
:10377800896F010189510101866F876B21EC28F05F
:1037880051D1000E0101856F580E846FF00E0101B2
:103798008A250001D96F0001DA6B000EDA230AECE2
:1037A8002AF00101896F010189510101866F876B38
:1037B80021EC28F037D1000E0101856F2C0E846FA3
:1037C800F00E01018A250001D96F0001DA6B000EA5
:1037D800DA230AEC2AF00101896F010189510101FC
:1037E800866F876B21EC28F01DD1000E0101856FD3
:1037F8002D0E846FF00E01018A250001D96F00019A
:10380800DA6B000EDA230AEC2AF00101896F010154
:1038180089510101866F876B21EC28F003D1000ED6
:103828000101856F550E846FF00E01018A25000194
:10383800D96F0001DA6B000EDA230AEC2AF00101D5
:10384800896F010189510101866F876B21EC28F08E
:10385800E9D0000E0101856F560E846FF00E01014C
:103868008A250001D96F0001DA6B000EDA230AEC11
:103878002AF00101896F010189510101866F876B67
:1038880021EC28F0CFD0000E0101856F2B0E846F3C
:10389800F00E01018A250001D96F0001DA6B000ED4
:1038A800DA230AEC2AF00101896F0101895101012B
:1038B800866F876B21EC28F0B5D0000E0101856F6B
:1038C8002E0E846FF00E01018A250001D96F0001C8
:1038D800DA6B000EDA230AEC2AF00101896F010184
:1038E80089510101866F876B21EC28F09BD0000E6F
:1038F8000101856F2F0E846FF00E01018A250001EA
:10390800D96F0001DA6B000EDA230AEC2AF0010104
:10391800896F010189510101866F876B21EC28F0BD
:1039280081D0000E0101856F300E846FF00E010109
:103938008A250001D96F0001DA6B000EDA230AEC40
:103948002AF00101896F010189510101866F876B96
:1039580021EC28F067D0000E0101856F700E846F8E
:10396800F00E01018A250001D96F0001DA6B000E03
:10397800DA230AEC2AF00101896F0101895101015A
:10398800866F876B21EC28F04DD0000E0101856F02
:10399800710E846FF00E01018A250001D96F0001B4
:1039A800DA6B000EDA230AEC2AF00101896F0101B3
:1039B80089510101866F876B21EC28F033D0010112
:1039C8008A51000AD8B45BD6010AD8B472D6030A61
:1039D800D8B489D6010AD8B4A0D6070AD8B4B7D6BD
:1039E800010AD8B4CED6030AD8B4E5D6010AD8B4A9
:1039F800FCD60F0AD8B413D7010AD8B42AD7030AB9
:103A0800D8B441D7010AD8B458D7070AD8B46FD761
:103A1800010AD8B486D7030AD8B49DD7010AD8B406
:103A2800B4D700D001018A2B24D6000E0101856F7E
:103A3800350E846F000E0101876F000E866F21EC32
:103A480028F0000E0101856F360E846F000E01010B
:103A5800876F000E866F21EC28F0000E0101856F3C
:103A6800330E846F000E0101876F000E866F21EC04
:103A780028F0000E0101856F340E846F000E0101DD
:103A8800876F000E866F21EC28F0120001018E6FFF
:103A980001018E05D8A402D0819A02D0818A00D073
:103AA800F5EC29F0000E01018C6F3BD10001AE81CD
:103AB800000E01018D6F00D001018D2B820E0101D6
:103AC8008A6FDE0EE82EFED78A2FFCD7C80E0101BA
:103AD8008D6502D0020E11D101018E510101D8A4C9
:103AE80003D000019FB1E8D701018E05D8A44CD1BD
:103AF80000019FA349D1E0D747D10001AE83000E52
:103B080001018D6F00D001018D2B820E01018A6F9A
:103B1800DE0EE82EFED78A2FFCD7C80E01018D6570
:103B280002D0030EEAD001018E510101D8A403D0BE
:103B380000019FB5E8D701018E05D8A425D1000161
:103B48009FA722D1E0D720D10001AE85000E010148
:103B58008D6F00D001018D2B820E01018A6FDE0E60
:103B6800E82EFED78A2FFCD7C80E01018D6502D03A
:103B7800040EC3D001018E510101D8A403D0000165
:103B88009FB9E8D701018E05D8A4FED000019FABEC
:103B9800FBD0E0D7F9D00001AE87000E01018D6F90
:103BA80000D001018D2B820E01018A6FDE0EE82EF6
:103BB800FED78A2FFCD7C80E01018D6502D0050EED
:103BC8009CD001018E510101D8A403D000019FBDF2
:103BD800E8D701018E05D8A4D7D000019FAFD4D073
:103BE800E0D7D2D00001AE89000E01018D6F00D060
:103BF80001018D2B820E01018A6FDE0EE82EFED7A1
:103C08008A2FFCD7C80E01018D6502D0060E75D02B
:103C180001018E510101D8A403D00001A0B1E8D759
:103C280001018E05D8A4B0D00001A0A3ADD0E0D783
:103C3800ABD00001AE8B000E01018D6F00D00101E9
:103C48008D2B820E01018A6FDE0EE82EFED78A2F99
:103C5800FCD7C80E01018D6502D0070E4ED00101B8
:103C68008E510101D8A403D00001A0B5E8D7010105
:103C78008E05D8A489D00001A0A786D0E0D784D02B
:103C88000001AE8D000E01018D6F00D001018D2B5A
:103C9800820E01018A6FDE0EE82EFED78A2FFCD72E
:103CA80000F0C80E01018D6502D0080E26D0010172
:103CB8008E510101D8A403D00001A0B9E7D70101B2
:103CC8008E05D8A461D00001A0AB5ED0DFD75CD050
:103CD8000001AE8F000E01018D6F00D001018D2B08
:103CE800820E01018A6FDE0EE82EFED78A2FFCD7DE
:103CF800C80E01018D6504D0090E01018C6F44D0F6
:103D080001018E510101D8A403D00001A0BDE6D75E
:103D180001018E05D8A438D00001A0AF35D0DED778
:103D280033D001018951000AD8B4D2D7020AD8B4D5
:103D3800BDD6060AD8B4E1D60C0AD8B405D7180AF5
:103D4800D8B429D7300AD8B44DD7600AD8B471D7B7
:103D5800C00AD8B495D718D00001AE9130D0000170
:103D6800AE932DD00001AE952AD00001AE9727D092
:103D78000001AE9924D00001AE9B21D00001AE9D78
:103D88001ED00001AE9F1BD001018951000AD8B492
:103D9800F8D7020AD8B4E0D7060AD8B4E0D70C0A94
:103DA800D8B4E0D7180AD8B4E0D7300AD8B4E0D7E6
:103DB800600AD8B4E0D7C00AD8B4E0D700D001016F
:103DC8008C510101D8B42BD0030EAEEC25F00001C4
:103DD800DB5101018B6F00F0000E0001DC6F250E36
:103DE800DB6F030E5BEC28F00001AF8F000E0101C2
:103DF800856F720E846F8CC186F10101876B21EC8F
:103E080028F000D00001A1A3FDD70001AF9F8BC10E
:103E1800DBF00001DC6B030E5BEC28F000D0120035
:103E2800000E0001DE6F0F0E0001DE6502D140D1E9
:103E380000D11CEC2AF0F00E0001DE250001D96F3C
:103E48000001DA6B000EDA23A5C0DBF09FEC29F045
:103E580023D11CEC2AF0F00E0001DE250001D96FF9
:103E68000001DA6B000EDA23A4C0DBF09FEC29F026
:103E780013D11CEC2AF0F00E0001DE250001D96FE9
:103E88000001DA6B000EDA23A3C0DBF09FEC29F007
:103E980003D11CEC2AF0F00E0001DE250001D96FD9
:103EA8000001DA6B000EDA2392C0DBF09FEC29F0F8
:103EB800F3D01CEC2AF0F00E0001DE250001D96FCA
:103EC8000001DA6B000EDA23BAC0DBF09FEC29F0B0
:103ED800E3D01CEC2AF0F00E0001DE250001D96FBA
:103EE8000001DA6B000EDA23B9C0DBF09FEC29F091
:103EF800D3D01CEC2AF0F00E0001DE250001D96FAA
:103F08000001DA6B000EDA23BEC0DBF09FEC29F06B
:103F1800C3D01CEC2AF0F00E0001DE250001D96F99
:103F28000001DA6B000EDA23B0C0DBF09FEC29F059
:103F3800B3D01CEC2AF0F00E0001DE250001D96F89
:103F48000001DA6B000EDA23B5C0DBF09FEC29F034
:103F5800A3D01CEC2AF0F00E0001DE250001D96F79
:103F68000001DA6B000EDA23B7C0DBF09FEC29F012
:103F780093D01CEC2AF0F00E0001DE250001D96F69
:103F88000001DA6B000EDA23A2C0DBF09FEC29F007
:103F980083D01CEC2AF0F00E0001DE250001D96F59
:103FA8000001DA6B000EDA23AAC0DBF09FEC29F0DF
:103FB80073D01CEC2AF0F00E0001DE250001D96F49
:103FC8000001DA6B000EDA23ABC0DBF09FEC29F0BE
:103FD80063D01CEC2AF0F00E0001DE250001D96F39
:103FE8000001DA6B000EDA23ACC0DBF09FEC29F09D
:103FF80053D01CEC2AF0F00E0001DE250001D96F29
:104008000001DA6B000EDA23ADC0DBF09FEC29F07B
:1040180043D01CEC2AF0F00E0001DE250001D96F18
:104028000001DA6B000EDA23A6C0DBF09FEC29F062
:1040380033D00001DE51000AD8B4FBD6010AD8B447
:1040480008D7030AD8B415D7010AD8B422D7070A63
:10405800D8B42FD7010AD8B43CD7030AD8B449D763
:10406800010AD8B456D70F0AD8B463D7010AD8B40E
:1040780070D7030AD8B47DD7010AD8B48AD7070AFB
:10408800D8B497D7010AD8B4A4D7030AD8B4B1D7FB
:10409800010AD8B4BED700D0410E0001DD6FEE0E84
:1040A800E82EFED7DD2FFCD700D00001DE2BBBD6D3
:1040B80012000001E16F0001E1070001E151000178
:1040C800D8B406D0260E0001E103F350E16F00D00A
:1040D800000E0001E36F150E0001E36544D0A5D082
:1040E80042D050C1E2F084D051C1E2F081D052C137
:1040F800E2F07ED053C1E2F07BD054C1E2F078D038
:1041080055C1E2F075D056C1E2F072D057C1E2F065
:104118006FD058C1E2F06CD059C1E2F069D05AC1F1
:10412800E2F066D05BC1E2F063D05CC1E2F060D03F
:104138005DC1E2F05DD05EC1E2F05AD05FC1E2F04D
:1041480057D060C1E2F054D061C1E2F051D062C1F1
:10415800E2F04ED063C1E2F04BD064C1E2F048D047
:1041680065C1E2F045D00001E351000AD8B4B9D7DF
:10417800010AD8B4B9D7030AD8B4B9D7010AD8B450
:10418800B9D7070AD8B4B9D7010AD8B4B9D7030A36
:10419800D8B4B9D7010AD8B4B9D70F0AD8B4B9D79F
:1041A800010AD8B4B9D7030AD8B4B9D7010AD8B420
:1041B800B9D7070AD8B4B9D7010AD8B4B9D7030A06
:1041C800D8B4B9D7010AD8B4B9D71F0AD8B4B9D75F
:1041D800010AD8B4B9D7030AD8B4B9D7010AD8B4F0
:1041E800B9D7070AD8B4B9D7010AD8B4B9D700D013
:1041F8001CEC2AF00001E1510001E3250001D96F10
:104208000001DA6B0001DA37E2C0DBF09FEC29F03D
:1042180000F0410E0001DD6FEE0EE82EFED7DD2F17
:10422800FCD700D00001E32B56D7160E0001E36F30
:1042380031D034D0EA0E0001DD6FFF0E0001DE6FD1
:104248000001E3510001DF6FE06B0001DD51000167
:10425800DF270001DE510001E023660E0001DF25A3
:10426800D96E010E0001E021DA6EDF500001E26F25
:104278001CEC2AF00001E1510001E3250001D96F8F
:104288000001DA6B0001DA37E2C0DBF09FEC29F0BD
:104298000001E32B250E0001E365CCD700F01200E6
:1042A800000E0001DC6F1D0EDB6F030E5BEC28F0C7
:1042B8003B9A3B943B9C000EBB6E81940001AF9FE0
:1042C8000001AF910001AF990001AF950001AF97D0
:1042D8000001AF93020E0101896F000E4AEC1DF038
:1042E800040E0101896F000E4AEC1DF0080E010151
:1042F800896F000E4AEC1DF0100E0101896F000E47
:104308004AEC1DF0200E0101896F000E4AEC1DF0E9
:10431800400E0101896F000E4AEC1DF0800E01016C
:10432800896F000E4AEC1DF0000E0101896F000E26
:104338004AEC1DF0000E0101856F410E846F000EDE
:104348000101876F000E866F21EC28F03C90000E6B
:104358000101856F420E846F000E0101876F000E08
:10436800866F21EC28F03C92000E0101856F430E08
:10437800846F000E0101876F000E866F21EC28F014
:104388003C94000E0101856F440E846F000E0101FC
:10439800876F000E866F21EC28F03C96000E010115
:1043A800856F450E846F000E0101876F000E866FC2
:1043B80021EC28F03C98000E0101856F460E846FB1
:1043C800000E0101876F000E866F21EC28F03C9AE1
:1043D800000E0101856F470E846F000E0101876F83
:1043E800000E866F21EC28F03C9C000E0101856FC1
:1043F800480E846F000E0101876F000E866F21EC56
:1044080028F03C9E000E0101856F590E846F000E46
:104418000101876F000E866F21EC28F0000E010164
:10442800856F720E846F000E0101876F000E866F14
:1044380021EC28F0000E0101856F490E846F000EF3
:104448000101876F000E866F21EC28F0000E010134
:10445800856F500E846F000E0101876F000E866F06
:1044680021EC28F0000E0101856F390E846F000ED3
:104478000101876F000E866F21EC28F01200010100
:10448800916F01019107010191510101D8B406D042
:10449800260E01019103F350916F00D0000E010127
:1044A800936F91C192F159D092C1D9F00001DA6BA2
:1044B8000AEC2AF00101906F140E0101936126D0D5
:1044C800130E01019319D8A411D0000E0101856FB4
:1044D800230E846F500E010190250101866F0101A2
:1044E800876B000E872321EC28F010D0100E0101F5
:1044F80093250101846F0101856B000E852390C10E
:1045080086F10101876B21EC28F000D0140E01011F
:104518009319D8A40CD0000E0101856F240E846F66
:1045280090C186F10101876B21EC28F000D0150EAF
:1045380001019319D8A40CD0000E0101856F510E0A
:10454800846F90C186F10101876B21EC28F000D0BF
:104558000101932B0101922B00D00101915101011E
:10456800896F8A6B160E01018927000E8A230101C3
:10457800925101018B6F8C6B0101895101018B5D97
:1045880001018C51800A01018D6F01018A51800A55
:1045980001018D59D8A088D7000E0101936F010140
:1045A8009151160F0101926F38D092C1D9F00001D4
:1045B800DA6B0AEC2AF00101896F010189510101C6
:1045C8008E6F8F6B01018E5101018F6F8E6B010E03
:1045D800010192250001D96F0001DA6B000EDA2380
:1045E8000AEC2AF00101896F0101895101018E133A
:1045F800000E010193250101846F0101856B010EF5
:1046080085238EC186F18FC187F121EC28F0010145
:10461800932B020E0101922700D001019151010153
:10462800896F8A6B260E01018927000E8A230101F2
:10463800925101018B6F8C6B0101895101018B5DD6
:1046480001018C51800A01018D6F01018A51800A94
:1046580001018D59D8A0A9D71200000E0001DC6F06
:10466800270EDB6FDAEC24F00001DB510001A56FA7
:10467800000E0001DC6F280EDB6FDAEC24F000017D
:10468800DB510001A46F000E0001DC6F290EDB6F07
:10469800DAEC24F00001DB510001A36F000E0001E9
:1046A800DC6F2A0EDB6FDAEC24F0DBC092F0DCC0A2
:1046B80093F0000E0001DC6F570EDB6FDAEC24F08C
:1046C8000001DB510001BA6F000E0001DC6F580ECB
:1046D800DB6FDAEC24F00001DB510001B96F000E4A
:1046E8000001DC6F2C0EDB6FDAEC24F00001DB51EB
:1046F8000001BE6F000E0001DC6F2D0EDB6FDAECDF
:1047080024F00001DB510001B06F000E0001DC6FE6
:10471800550EDB6FDAEC24F00001DB510001B56FB8
:10472800000E0001DC6F560EDB6FDAEC24F000019E
:10473800DB510001B76F000E0001DC6F2B0EDB6F41
:10474800DAEC24F00001DB510001A26F000E000139
:10475800DC6F2E0EDB6FDAEC24F00001DB51000178
:10476800AA6F000E0001DC6F2F0EDB6FDAEC24F06D
:104778000001DB510001AB6F000E0001DC6F300E51
:10478800DB6FDAEC24F00001DB510001AC6F000EA6
:104798000001DC6F700EDB6FDAEC24F00001DB51F6
:1047A8000001AD6F000E0001DC6F710EDB6FDAECFB
:1047B80024F00001DB510001A66F12000001A1A145
:1047C80051D0000E0001DC6F0A0EDB6F030E5BECAC
:1047D80028F00001AF8F00D00001A1B1FDD7000182
:1047E800AF9F54EC21F0000E00019C6F000E0001F9
:1047F8009B6F000E0001DC6F1F0EDB6F030E5BEC7E
:1048080028F000D00001A1A3FDD7010E58EC29F033
:104818000001A1A91CD08188050E58EC29F08198C7
:104828000001A1A914D0000E0001DC6F1E0EDB6F81
:10483800030E5BEC28F000D0030EAEEC25F000016F
:10484800DB050001DC11D8B402D0F6D700D0000E89
:104858000001DC6F010EDB6F030E5BEC28F02FD03C
:10486800010E34D00001A1A92FD054EC21F0000E84
:104878000001DC6F1E0EDB6F030E5BEC28F00001FD
:10488800AF8F00D0030EAEEC25F00001DB05000170
:10489800DC11D8A4F7D70001AF9F00D00001A1B95F
:1048A800FDD7000E0001DC6F010EDB6F030E5BEC21
:1048B80028F0000E00019C6F000E00019B6F000E97
:1048C80000019D6FCDD702D0000E00D01200000E5F
:1048D8002F6E2DAE0BD02D1E2C1E2B1E2A6C000EFB
:1048E8002B222C222D22010E2F6E00D029AE0BD0A8
:1048F800291E281E271E266C000E27222822292260
:10490800010E2F1A00D0000E306E000E316E000E10
:10491800326E000E336E2A502B102C102D10D8B486
:104928002FD0010E2E6E07D0D8902A362B362C3673
:104938002D362E2A00D02DBE02D0F6D700D0D89022
:1049480030363136323633362A50265C2B502758CB
:104958002C5028582D502958D8A00AD02A50265E05
:104968002B50275A2C50285A2D50295A308000D0C5
:10497800D8902D322C322B322A322E2EE0D700D06E
:104988002F50D8B409D0331E321E311E306C000EA1
:1049980031223222332200D030C026F031C027F035
:1049A80032C028F033C029F000D012000001AF89CE
:1049B8005A0E0101286FA50E0101296F040E01018D
:1049C8002A6F830E01012B6F0001DC5101012C6F4E
:1049D800DBC02DF1010E01012E6F9E98000E000123
:1049E800DF6F12D015D00001DF51010D280EF3241E
:1049F800D96E010EF420DA6EDF50AD6E00D09EA89D
:104A0800FED79E980001DF2B060E0001DF65EBD76D
:104A18009E9A0001AF99000E0001B86F000E0001C8
:104A2800DF6F080E0001DF6509D019D007D0FA0E34
:104A38000001B86503D00001AF8900D09EAAF7D75E
:104A48009E9A0001DF51010D000EF324D96E010E6C
:104A5800F420DA6EAECFDFFF0001DF2BE2D70101D1
:104A680007510001DE6FDD6B010108510001DD27F0
:104A7800000EDE23F5EC29F0DDC0DBF0DEC0DCF053
:104A880000D01200000E0001DE6F0001DCAF09D07B
:104A98000001DB6DDC1FD8B0DC2B010E0001DE6FDE
:104AA80000D00001DAAF09D00001D96DDA1FD8B003
:104AB800DA2B010E0001DE1B00D0000E0001E06FB2
:104AC800000EDF6F0001DB510001DC11D8B431D0DA
:104AD800010E0001DD6F07D00001D890DB37DC370D
:104AE8000001DD2B00D00001DCBF02D0F5D700D0DB
:104AF8000001D890DF37E0370001DB510001D95DB4
:104B08000001DC510001DA59D8A00BD00001DB51BB
:104B18000001D95F0001DC510001DA5B0001DF818F
:104B280000D00001D890DC33DB330001DD2FE0D763
:104B380000D00001DE510001D8B406D00001DF6DBD
:104B4800E01FD8B0E02B00D0DFC0D9F0E0C0DAF029
:104B580000D012000001DD6F0001AF895A0E01017B
:104B6800286FA50E0101296F030E01012A6F810E1E
:104B780001012B6FDDC02CF1020E01012D6F9E98F3
:104B8800000E0001DF6F12D015D00001DF51010DBA
:104B9800280EF324D96E010EF420DA6EDF50AD6EC4
:104BA80000D09EA8FED79E980001DF2B050E0001BD
:104BB800DF65EBD79E9A0001AF99000E0001B86F30
:104BC800000E0001DF6F070E0001DF6509D019D064
:104BD80007D0FA0E0001B86503D00001AF8900D0F4
:104BE8009EAAF7D79E9A0001DF51010D000EF3240B
:104BF800D96E010EF420DA6EAECFDFFF0001DF2B95
:104C0800E2D7000E0001DE6F010107510001DE2727
:104C1800F5EC29F0DEC0DBF00001DC6B00D01200FF
:104C2800000E01017F6F000E806F000E816F000E75
:104C3800826F01017B5101017C1101017D1101018C
:104C48007E11D8B447D0010E0101836F09D001014C
:104C5800D8907B377C377D377E370101832B00D096
:104C680001017EBF02D0F3D700D00101D8907F3771
:104C780080378137823701017B510101775D01015E
:104C88007C510101785901017D51010179590101D6
:104C98007E5101017A59D8A013D001017B5101013D
:104CA800775F01017C510101785B01017D510101B0
:104CB800795B01017E5101017A5B01017F8100D09E
:104CC8000101D8907E337D337C337B330101832F00
:104CD800CCD700D07FC177F180C178F181C179F15B
:104CE80082C17AF11200000E0001DE6F0001DAAF16
:104CF80009D00001D96DDA1FD8B0DA2B010E0001F6
:104D0800DE6F00D00001DCAF06D00001DB6DDC1FD8
:104D1800D8B0DC2B00D00001DB510001DC11D8B485
:104D28002BD0010E0001DD6F07D00001D890DB37D2
:104D3800DC370001DD2B00D00001DCBF02D0F5D745
:104D480000D00001DB510001D95D0001DC510001F8
:104D5800DA59D8A009D00001DB510001D95F000160
:104D6800DC510001DA5B00D00001D890DC33DB3382
:104D78000001DD2FE6D700D00001DE510001D8B4D4
:104D880006D00001D96DDA1FD8B0DA2B00D0D9C00F
:104D9800D9F0DAC0DAF000D01200000E176E15AEA6
:104DA80007D0146C151ED8B0152A010E176E00D046
:104DB80013AE07D0126C131ED8B0132A010E171A9F
:104DC80000D0000E196E000E186E14501510D8B4CD
:104DD80021D0010E166E05D0D89014361536162A35
:104DE80000D015BE02D0F8D700D0D89018361936A2
:104DF8001450125C15501358D8A006D01450125EE7
:104E08001550135A188000D0D89015321432162E27
:104E1800ECD700D01750D8B405D0186C191ED8B0EC
:104E2800192A00D018C012F019C013F000D01200CF
:104E3800000E1A6E000E1B6E000E1C6E000E1D6E0C
:104E48001650171018101910D8B42FD0010E1E6E56
:104E580007D0D89016361736183619361E2A00D0BD
:104E680019BE02D0F6D700D0D8901A361B361C3699
:104E78001D361650125C17501358185014581950F4
:104E88001558D8A00AD01650125E1750135A185049
:104E9800145A1950155A1A8000D0D890193218325D
:104EA800173216321E2EE0D700D01AC012F01BC0DF
:104EB80013F01CC014F01DC015F01200000E010103
:104EC800796F000E786F0001E1510001E211D8B44A
:104ED80031D0010E0101776F07D00001D890E1377A
:104EE800E2370101772B00D00001E2BF02D0F5D7ED
:104EF80000D00101D890783779370001E1510001DD
:104F0800DF5D0001E2510001E059D8A00BD000019B
:104F1800E1510001DF5F0001E2510001E05B0101A6
:104F2800788100D00001D890E233E1330101772F76
:104F3800E0D700D078C1DFF079C1E0F01200000EB0
:104F4800176E13AE07D0126C131ED8B0132A010EB9
:104F5800176E00D015AE05D0146C151ED8B0152AE2
:104F680000D014501510D8B41DD0010E166E05D0FF
:104F7800D89014361536162A00D015BE02D0F8D7A8
:104F880000D01450125C15501358D8A005D01450F6
:104F9800125E1550135A00D0D89015321432162EBE
:104FA800F0D700D01750D8B405D0126C131ED8B063
:104FB800132A00D012C012F013C013F000D0120050
:104FC800000E0001E16F000EE26F000EE36F000EAD
:104FD800E46F00D00001D9A111D00001DD5100011A
:104FE800E1270001DE510001E2230001DF51000149
:104FF800E3230001E0510001E42300D00001D89030
:10500800DD37DE37DF37E0370001D890DC33DB33BC
:10501800DA33D9330001D9510001DA110001DB116B
:105028000001DC11D8A4D6D7E1C0D9F0E2C0DAF08B
:10503800E3C0DBF0E4C0DCF012000001AF8B5A0ED5
:105048000101286FA50E0101296F050E01012A6FC4
:10505800820E01012B6F0101855101012C6F84C162
:105068002DF10101875101012E6F86C12FF19E9804
:10507800000E0101886F070E0101886501D012D06A
:1050880001018851010D280EF324D96E010EF42078
:10509800DA6EDF50AD6E00D09EA8FED79E98010153
:1050A800882BE9D70001AF9BF5EC29F0120000012D
:1050B800DD6F0001AF8B5A0E0101286FA50E0101AB
:1050C800296F040E01012A6F800E01012B6FDDC0CC
:1050D8002CF10001DC5101012D6FDBC02EF19E98EF
:1050E800000E0001DE6F060E0001DE6501D012D051
:1050F8000001DE51010D280EF324D96E010EF420B3
:10510800DA6EDF50AD6E00D09EA8FED79E980001E3
:10511800DE2BE9D70001AF9BF5EC29F01200000E59
:10512800C26E1A0EC16EA50EC06E070EB46E3F0E8B
:10513800926E000E806EC30E936E000E816E9468A0
:10514800000E826E9568000E836E000E966E000E3D
:10515800846E020EB06E080EAF6EB886AC84AC8A50
:10516800AB8EAB889F9A9D9AC280C60ED56E3C0EB8
:10517800D66EF184F28ACB687F0EBB6E040ECA6EBF
:105188000F0EBA6ED08EF28EF28C12005A0E0101FA
:10519800286FA50E0101296F040E01012A6F840EE4
:1051A80001012B6F010E01012C6F0001DC5101017F
:1051B8002D6FDBC02EF19E98000E0001DD6F060EEC
:1051C8000001DD6501D012D00001DD51010D280E6E
:1051D800F324D96E010EF420DA6EDF50AD6E00D0E4
:1051E8009EA8FED79E980001DD2BE9D7F5EC29F0A3
:1051F8001200000E186E000E176E14501510D8B459
:1052080021D0010E166E05D0D89014361536162A00
:1052180000D015BE02D0F8D700D0D890173618366F
:105228001450125C15501358D8A006D01450125EB2
:105238001550135A178000D0D89015321432162EF4
:10524800ECD700D017C012F018C013F01200000EEF
:10525800226E000E236E000E246E000E256E00D006
:105268001AA009D01E5022261F5023222050242283
:105278002150252200D0D8901E361F3620362136E0
:10528800D8901D321C321B321A321A501B101C10B7
:105298001D10D8A4E5D722C01AF023C01BF024C0E3
:1052A8001CF025C01DF012000001DA6F000E00018D
:1052B800DC6F000EDB6FE80E0001DB5D030E000102
:1052C800DC59D8B00FD001D00DD0070E0001D96F2E
:1052D8007D0EE82EFED7D92FFCD700F00001DB4B5E
:1052E800DC2BE9D70001DA070001DA510001D8A464
:1052F800DDD7120000F0000E0001DE6FE30E0001A2
:10530800DE6501D017D01CEC2AF0DEC0D9F0000110
:10531800DA6B000E0001DB6F9FEC29F0410E0001F3
:10532800DD6FEE0EE82EFED7DD2FFCD700D0000192
:10533800DE2BE4D71200000E0001DC6FD9C0A9FFF4
:10534800DBC0A8FFA69EA69CA684000EF2BE010E96
:105358000001DC6FF29E550EA76EAA0EA76EA682FC
:1053680000D0A6B2FED70001DCB102D0F29E01D077
:10537800F28EA69412000001D9510001DB03F3CF8D
:10538800DDF0F4CFDEF00001D9510001DC03F35069
:105398000001DE270001DA510001DB03F3500001B0
:1053A800DE27DDC0D9F0DEC0DAF000D0120001EE51
:1053B80000F0770EEE6AE806FDE100EE60F05F0EA1
:1053C800EE6AE806FDE13D6A3C6A3B6A00EE3EF0A3
:1053D800090EEE6AE806FDE1000EF86E0001EBEF3B
:1053E80018F0000E0001DA6F4F0E0001DA6501D0E7
:1053F8000CD0070E0001D96F7D0EE82EFED7D92FED
:10540800FCD700F00001DA2BEFD71200D9C0A9FFB2
:10541800A69CA69EA68000F000F0A85000D012001E
:105428000001AF8F010E58EC29F00001AF9F120068
:0854380000D0A6B2FED712005D
:020000040020DA
:08000000FFFFFFFFFFFFFFFF00
:020000040030CA
:0E000000000C191EFF8080FF0FC00FE00F40A4
:00000001FF
