:0400000067EF00F0B6
:10000800FACFC1F0FBCFC2F0E9CFC3F060ED06F044
:10001800D8CF27F0E8CF28F0E0CF29F0FACF2AF0A0
:10002800FBCF2BF0E9CF2CF0EACF2DF0E1CF2EF06B
:10003800E2CF2FF0D9CF30F0DACF31F0F3CF32F072
:10004800F4CF33F0F6CF34F0F7CF35F0F8CF36F001
:10005800F5CF37F09DBA9EAA13D09E9A2450010D71
:10006800600EF324D96E000EF420DA6EAECFDFFFF7
:10007800242A0D0EAE18D8A403D0000E246E00D08A
:1000880037C0F5FF36C0F8FF35C0F7FF34C0F6FFBC
:1000980033C0F4FF32C0F3FF31C0DAFF30C0D9FFFC
:1000A8002FC0E2FF2EC0E1FF2DC0EAFF2CC0E9FF00
:1000B8002BC0FBFF2AC0FAFF29C0E0FF28C0E8FFD9
:1000C80027C0D8FF10006EEF09F0B8EC08F0000E5A
:1000D8000001E56F000EE46F000E0001E36F000EF3
:1000E800E26F330EBB6E00F0000E0001D06F1A0EE7
:1000F800CF6F000E0001D26F000ED16FF0EC08F048
:10010800000E0001D06F1B0ECF6F000E0001D26FE2
:10011800000ED16FF0EC08F0818A2580000E0001F6
:10012800E76F000EE66FF40E0001E65D010E0001B8
:10013800E759D8B00FD001D00DD0410E0001DC6FC7
:10014800EE0EE82EFED7DC2FFCD700D00001E64BE0
:10015800E72BE9D725902582000E0001E76F000EF6
:10016800E66FF40E0001E65D010E0001E759D8B014
:100178000FD001D00DD0410E0001DC6FEE0EE82E3D
:10018800FED7DC2FFCD700D00001E64BE72BE9D7E0
:1001980025922584000E0001E76F000EE66FF40E2D
:1001A8000001E65D010E0001E759D8B00FD001D07B
:1001B8000DD0410E0001DC6FEE0EE82EFED7DC2FCD
:1001C800FCD700D00001E64BE72BE9D7259425861C
:1001D800000E0001E76F000EE66FF40E0001E65D09
:1001E800010E0001E759D8B00FD001D00DD0410E53
:1001F8000001DC6FEE0EE82EFED7DC2FFCD700D016
:100208000001E64BE72BE9D725962588000E00016B
:10021800E76F000EE66FF40E0001E65D010E0001C7
:10022800E759D8B00FD001D00DD0410E0001DC6FD6
:10023800EE0EE82EFED7DC2FFCD700D00001E64BEF
:10024800E72BE9D72598258A000E0001E76F000EF5
:10025800E66FF40E0001E65D010E0001E759D8B023
:100268000FD001D00DD0410E0001DC6FEE0EE82E4C
:10027800FED7DC2FFCD700D00001E64BE72BE9D7EF
:10028800259A258C000E0001E76F000EE66FF40E2C
:100298000001E65D010E0001E759D8B00FD001D08A
:1002A8000DD0410E0001DC6FEE0EE82EFED7DC2FDC
:1002B800FCD700D00001E64BE72BE9D7259C258E1B
:1002C800000E0001E76F000EE66FF40E0001E65D18
:1002D800010E0001E759D8B00FD001D00DD0410E62
:1002E8000001DC6FEE0EE82EFED7DC2FFCD700D025
:1002F8000001E64BE72BE9D7259E819A000E266E72
:10030800000E256E00D0000E0001D06F1C0ECF6FBE
:1003180019C0D1F01AC0D2F0F0EC08F0000E0001BC
:10032800D06F1D0ECF6F1BC0D1F01CC0D2F0F0EC07
:1003380008F0000E0001D06F1E0ECF6F1DC0D1F067
:100348001EC0D2F0F0EC08F0170E0001DC6FF80EBA
:100358000001DD6F1FC0CFF020C0D0F0000E0001FB
:10036800D26F870ED16F54EC09F00001DC51000107
:10037800CF270001DD510001D0230001CFC0B8F024
:100388000001D0C0B9F00001BA6BBB6BB8C0CFF0A8
:10039800B9C0D0F0BAC0D1F0BBC0D2F0640E000131
:1003A800D36F000ED46F000ED56F000ED66FF7EC2A
:1003B80007F0CFC0B8F0D0C0B9F0D1C0BAF0D2C001
:1003C800BBF0000E0001D06F1F0ECF6FB8C0D1F088
:1003D800B9C0D2F0F0EC08F0000E0001D06F200E8A
:1003E800CF6FFF0EBB240001D16F0001D26BFF0E4F
:1003F800D223F0EC08F0000E0001D06F210ECF6F71
:100408005AEC08F0CFC0DEF0D0C0DFF00001DE51BA
:100418000001DF11D8B422D00A0EBB6412D00A0E34
:10042800BB5E000E0001D06F200ECF6FFF0EBB2405
:100438000001D16F0001D26BFF0ED223F0EC08F05F
:1004480000D0000E0001D06F210ECF6F000E00010A
:10045800D26F000ED16FF0EC08F000D0000E000152
:10046800D06F220ECF6F5AEC08F0CFC0E0F0D0C0AA
:10047800E1F00001E0510001E111D8B422D05B0E97
:10048800BB6012D00A0EBB26000E0001D06F200EF2
:10049800CF6FFF0EBB240001D16F0001D26BFF0E9E
:1004A800D223F0EC08F000D0000E0001D06F220E2D
:1004B800CF6F000E0001D26F000ED16FF0EC08F084
:1004C80000D044A00DD0000E0001D06F800ECF6F79
:1004D800000E0001D26F010ED16FF0EC08F00DD0C4
:1004E800000E0001D06F800ECF6F000E0001D26F9A
:1004F800000ED16FF0EC08F000D044A20DD0000E31
:100508000001D06F810ECF6F000E0001D26F010E77
:10051800D16FF0EC08F00DD0000E0001D06F810E05
:10052800CF6F000E0001D26F000ED16FF0EC08F013
:1005380000D00001BEA10DD0000E0001D06F820EC8
:10054800CF6F000E0001D26F010ED16FF0EC08F0F2
:100558000DD0000E0001D06F820ECF6F000E00018B
:10056800D26F000ED16FF0EC08F000D00001BEA3EE
:100578000DD0000E0001D06F830ECF6F000E00016A
:10058800D26F010ED16FF0EC08F00DD0000E000113
:10059800D06F830ECF6F000E0001D26F000ED16FA7
:1005A800F0EC08F000D00001BEA50DD0000E00014F
:1005B800D06F840ECF6F000E0001D26F010ED16F85
:1005C800F0EC08F00DD0000E0001D06F840ECF6F54
:1005D800000E0001D26F000ED16FF0EC08F000D0D1
:1005E8000001BEA70DD0000E0001D06F850ECF6FA1
:1005F800000E0001D26F010ED16FF0EC08F00DD0A3
:10060800000E0001D06F850ECF6F000E0001D26F73
:10061800000ED16FF0EC08F000D00001BEA90DD09B
:10062800000E0001D06F860ECF6F000E0001D26F52
:10063800010ED16FF0EC08F00DD0000E0001D06F64
:10064800860ECF6F000E0001D26F000ED16FF0EC56
:1006580008F000D00001BEAB0DD0000E0001D06F35
:10066800870ECF6F000E0001D26F010ED16FF0EC34
:1006780008F00DD0000E0001D06F870ECF6F000E6E
:100688000001D26F000ED16FF0EC08F000D000012D
:10069800BEAD0DD0000E0001D06F880ECF6F000EDA
:1006A8000001D26F010ED16FF0EC08F00DD0000EF2
:1006B8000001D06F880ECF6F000E0001D26F000EC0
:1006C800D16FF0EC08F000D00001BEAF0DD0000EE5
:1006D8000001D06F890ECF6F000E0001D26F010E9E
:1006E800D16FF0EC08F00DD0000E0001D06F890E2C
:1006F800CF6F000E0001D26F000ED16FF0EC08F042
:1007080000D00001BCA10DD0000E0001D06F8A0EF0
:10071800CF6F000E0001D26F010ED16FF0EC08F020
:100728000DD0000E0001D06F8A0ECF6F000E0001B1
:10073800D26F000ED16FF0EC08F000D00001BCA31E
:100748000DD0000E0001D06F8B0ECF6F000E000190
:10075800D26F010ED16FF0EC08F00DD0000E000141
:10076800D06F8B0ECF6F000E0001D26F000ED16FCD
:10077800F0EC08F000D00001BCA50DD0000E00017F
:10078800D06F8C0ECF6F000E0001D26F010ED16FAB
:10079800F0EC08F00DD0000E0001D06F8C0ECF6F7A
:1007A800000E0001D26F000ED16FF0EC08F000D0FF
:1007B8000001BCA70DD0000E0001D06F8D0ECF6FC9
:1007C800000E0001D26F010ED16FF0EC08F00DD0D1
:1007D800000E0001D06F8D0ECF6F000E0001D26F9A
:1007E800000ED16FF0EC08F000D00001BCA90DD0CC
:1007F800000E0001D06F8E0ECF6F000E0001D26F79
:10080800010ED16FF0EC08F00DD0000E0001D06F92
:100818008E0ECF6F000E0001D26F000ED16FF0EC7C
:1008280008F000D00001BCAB0DD0000E0001D06F65
:100838008F0ECF6F000E0001D26F010ED16FF0EC5A
:1008480008F00DD0000E0001D06F8F0ECF6F000E94
:100858000001D26F000ED16FF0EC08F000D000015B
:10086800BCAD0DD0000E0001D06F900ECF6F000E02
:100878000001D26F010ED16FF0EC08F00DD0000E20
:100888000001D06F900ECF6F000E0001D26F000EE6
:10089800D16FF0EC08F000D00001BCAF0DD0000E15
:1008A8000001D06F910ECF6F000E0001D26F010EC4
:1008B800D16FF0EC08F00DD0000E0001D06F910E52
:1008C800CF6F000E0001D26F000ED16FF0EC08F070
:1008D80000D00001BDA10DD0000E0001D06F920E16
:1008E800CF6F000E0001D26F010ED16FF0EC08F04F
:1008F8000DD0000E0001D06F920ECF6F000E0001D8
:10090800D26F000ED16FF0EC08F000D00001BDA34B
:100918000DD0000E0001D06F930ECF6F000E0001B6
:10092800D26F010ED16FF0EC08F00DD0000E00016F
:10093800D06F930ECF6F000E0001D26F000ED16FF3
:10094800F0EC08F000D00001BDA50DD0000E0001AC
:10095800D06F940ECF6F000E0001D26F010ED16FD1
:10096800F0EC08F00DD0000E0001D06F940ECF6FA0
:10097800000E0001D26F000ED16FF0EC08F000D02D
:100988000001BDA70DD0000E0001D06F950ECF6FEE
:10099800000E0001D26F010ED16FF0EC08F00DD0FF
:1009A800000E0001D06F950ECF6F000E0001D26FC0
:1009B800000ED16FF0EC08F000D00001BDA90DD0F9
:1009C800000E0001D06F960ECF6F000E0001D26F9F
:1009D800010ED16FF0EC08F00DD0000E0001D06FC1
:1009E800960ECF6F000E0001D26F000ED16FF0ECA3
:1009F80008F000D00001BDAB0DD0000E0001D06F93
:100A0800970ECF6F000E0001D26F010ED16FF0EC80
:100A180008F00DD0000E0001D06F970ECF6F000EBA
:100A28000001D26F000ED16FF0EC08F000D0000189
:100A3800BDAD0DD0000E0001D06F980ECF6F000E27
:100A48000001D26F010ED16FF0EC08F00DD0000E4E
:100A58000001D06F980ECF6F000E0001D26F000E0C
:100A6800D16FF0EC08F000D00001BDAF0DD0000E42
:100A78000001D06F990ECF6F000E0001D26F010EEA
:100A8800D16FF0EC08F00CD0000E0001D06F990E79
:100A9800CF6F000E0001D26F000ED16FF0EC08F09E
:100AA800000E0001D06F1A0ECF6F5AEC08F0CFC0BD
:100AB800E4F0D0C0E5F0000E0001D06F1B0ECF6F40
:100AC8005AEC08F0CFC0E2F0D0C0E3F034D0447460
:100AD80069D0447667D026A002D0269063D02680BD
:100AE80061D026A202D026925DD026825BD026A4B1
:100AF80002D0269457D0268455D026A602D0269612
:100B080051D026864FD026A802D026984BD02688CA
:100B180049D026AA02D0269A45D0268A43D026ACA8
:100B280002D0269C3FD0268C3DD026AE02D0269EF1
:100B380039D0268E37D0E4C0DCF0E5C0DDF0000106
:100B4800DD51000AD8B407D0010AD8B41FD0030A6F
:100B5800D8B422D027D00001DC51010AD8B4B7D7C5
:100B6800030AD8B4B6D7060AD8B4B5D70C0AD8B48D
:100B7800B8D7180AD8B4BBD7300AD8B4BED7600AD9
:100B8800D8B4C1D7C00AD8B4C4D70CD00001DC513E
:100B9800000AD8B4C4D706D00001DC51000AD8B482
:100BA800C4D700D00001E4510001E511D8B43FD00A
:100BB800000E0001D06F1A0ECF6F000E0001D26F29
:100BC800000ED16FF0EC08F032D025A002D02590AD
:100BD8005CD025805AD025A202D0259256D02582F5
:100BE80054D025A402D0259450D025844ED025A6D3
:100BF80002D025964AD0258648D025A802D0259827
:100C080044D0258842D025AA02D0259A3ED0258AEC
:100C18003CD025AC02D0259C38D0258C36D025AECA
:100C280002D0259E32D0258E30D0817A2ED0E2C0D7
:100C3800DCF0E3C0DDF00001DD51000AD8B404D0D7
:100C4800010AD8B41CD021D00001DC51010AD8B463
:100C5800BCD7030AD8B4BFD7060AD8B4C2D70C0A7F
:100C6800D8B4C5D7180AD8B4C8D7300AD8B4CBD79F
:100C7800600AD8B4CED7C00AD8B4D1D706D00001FC
:100C8800DC51000AD8B4D1D700D00001E2510001EC
:100C9800E311D8B487EF01F0000E0001D06F1B0EEE
:100CA800CF6F000E0001D26F000ED16FF0EC08F08C
:100CB80087EF01F067EF00F00600EACFC4F0E1CF5C
:100CC800C5F0E2CFC6F0D9CFC7F0DACFC8F0F3CF7E
:100CD800C9F0F4CFCAF0F6CFCBF0F7CFCCF0F8CF0D
:100CE800CDF0F5CFCEF0F2BAF2A452D13C0ED66ECA
:100CF800F294449080B84480449282B444829568C7
:100D0800010E846E00F000F000F083CFBEF0030EF9
:100D1800846E00F000F000F083CFBDF0040E846E06
:100D280000F000F000F083CFBCF0020E846E00F0FB
:100D3800000E956E00F000F000F026C083FF00F072
:100D4800050E846E00F000F000F025C083FF00F06F
:100D5800000E846E00F0956844A402D0818401D00E
:100D6800819444A602D0818801D0819811D1C30E04
:100D7800C216030E216004D02144E846FC0B04D0BF
:100D88002144E846FC0B040FC21200D0010EFED02D
:100D9800C282020EFBD0C2B209D1C4CF3FF0406A72
:100DA8003F50406E3F6AC3503F122150020D010E62
:100DB800F324D96E000EF420DA6E3F50DE26405040
:100DC800DD22212A030E216404D0000E216E222A7E
:100DD80000D0000E236E190E2218D8A4E7D0030EF7
:100DE800D5D0E4D0000E416E030E416401D0CBD0C3
:100DF8004150020D010EF324D96E000EF420DA6E74
:100E0800DECF38F0DDCF39F0000E3B6E190E3A6EAA
:100E180026EC09F04150020D190EF324D96E000E8C
:100E2800F420DA6E38C0DEFF39C0DDFF030E416002
:100E38009CD04150020D090EF324D96E000EF42007
:100E4800DA6EDECFBFF0DDCFC0F04150020D190ED3
:100E5800F324D96E000EF420DA6E0001BF51DE26AD
:100E6800C051DD224150020D110EF324D96E000E3F
:100E7800F420DA6EDECFBFF0DDCFC0F04150020DB6
:100E8800190EF324D96E000EF420DA6E0001BF515A
:100E9800DE26C051DD224150020DB00EF324D96E7A
:100EA800000EF420DA6EDECFBFF0DDCFC0F0415087
:100EB800020D190EF324D96E000EF420DA6E00012B
:100EC800BF51DE26C051DD22020E0001BF6F415026
:100ED800020D190EF324D96E000EF420DA6E00010B
:100EE800BF2904D0D92AD890DD32DF32E82EFAD7CC
:100EF8004150020D110EF324D96E000EF420DA6E63
:100F08004150020DB00EF324E16E000EF420E26EA3
:100F1800DECFE6FFDDCFE5FF4150020D090EF324D9
:100F2800D96E000EF420DA6E4150020D110EF32432
:100F3800E16E000EF420E26EDECFE6FFDDCFE5FFC6
:100F48004150020D190EF324D96E000EF420DA6E0A
:100F58004150020D090EF324E16E000EF420E26EFA
:100F6800DECFE6FFDDCFE5FF00D04150020D010ED8
:100F7800F324D96E000EF420DA6E000EDE6E000E39
:100F8800DD6E412A31D7000E226E000E236E0ED080
:100F98002350000AD8B4EBD6010AD8B4F9D6030A0C
:100FA800D8B4F9D6010AD8B41DD700D0CEC0F5FF01
:100FB800CDC0F8FFCCC0F7FFCBC0F6FFCAC0F4FF26
:100FC800C9C0F3FFC8C0DAFFC7C0D9FFC6C0E2FF77
:100FD800C5C0E1FFC4C0EAFFC3C0E9FFC2C0FBFF50
:100FE800C1C0FAFF1100000E0001D76F000ED86FC4
:100FF800000ED96F000EDA6F0001D3510001D41131
:101008000001D5110001D611D8B447D0010E000156
:10101800DB6F09D00001D890D337D437D537D6370E
:101028000001DB2B00D00001D6BF02D0F3D700D0DF
:101038000001D890D737D837D937DA370001D351DC
:101048000001CF5D0001D4510001D0590001D551F4
:101058000001D1590001D6510001D259D8A013D0AE
:101068000001D3510001CF5F0001D4510001D05BD2
:101078000001D5510001D15B0001D6510001D25BBE
:101088000001D78100D00001D890D633D533D433AE
:10109800D3330001DB2FCCD700D0D7C0CFF0D8C0D6
:1010A800D0F0D9C0D1F0DAC0D2F012005A0E000147
:1010B800886FA50E0001896F040E00018A6F830EE8
:1010C80000018B6F0001D05100018C6FCFC08DF0F3
:1010D800010E00018E6F9E98000E0001D36F12D092
:1010E80015D00001D351010D880EF324D96E000EDE
:1010F800F420DA6EDF50AD6E00D09EA8FED79E9821
:101108000001D32B060E0001D365EBD79E9A000E83
:101118000001D36F080E0001D36502D012D000D0B1
:101128009EAAFED79E9A0001D351010D600EF324AA
:10113800D96E000EF420DA6EAECFDFFF0001D32B9C
:10114800E9D7000167510001D26FD16B00016851E6
:101158000001D127000ED22380EC09F0D1C0CFF0D6
:10116800D2C0D0F000D01200000EC26E1A0EC16EAE
:10117800A50EC06E070EB46E3F0E926E000E806E06
:10118800C30E936E000E816E9468000E826E956891
:10119800000E836E000E966E000E846E020EB06E08
:1011A800080EAF6EB886AC84AC8AAB8EAB889F9ABB
:1011B8009D9AC280C60ED56E3C0ED66EF184F28A18
:1011C800640ECB6E1F0EBB6E040ECA6E0F0EBA6E87
:1011D800D08EF28EF28C12005A0E0001886FA50E86
:1011E8000001896F050E00018A6F820E00018B6F66
:1011F8000001D05100018C6FCFC08DF00001D25199
:1012080000018E6FD1C08FF09E98000E0001D36F41
:10121800070E0001D36501D012D00001D351010D92
:10122800880EF324D96E000EF420DA6EDF50AD6E0E
:1012380000D09EA8FED79E980001D32BE9D780EC5A
:1012480009F01200000E3D6E000E3C6E3A503B1045
:10125800D8B421D0010E3E6E05D0D8903A363B3630
:101268003E2A00D03BBE02D0F8D700D0D8903C36FA
:101278003D363A50385C3B503958D8A006D03A50E1
:10128800385E3B50395A3C8000D0D8903B323A32D5
:101298003E2EECD700D03CC038F03DC039F01200EB
:1012A8000001CF510001D103F3CF42F0F4CF43F056
:1012B8000001CF510001D203F35043260001D05161
:1012C8000001D103F350432642C0CFF043C0D0F011
:1012D80000D0120000EE60F05F0EEE6AE806FDE155
:1012E800446A00EE01F0260EEE6AE806FDE1000E03
:1012F800F86E000169EF00F0000E436E4F0E436474
:1013080001D00AD0070E426E7D0EE82EFED7422E7F
:0A131800FCD700F0432AF2D71200C0
:020000040020DA
:08000000FFFFFFFFFFFFFFFF00
:020000040030CA
:0E000000000C191EFF8080FF0FC00FE00F40A4
:00000001FF
