:04000000ADEF00F070
:10000800FACFCEF0FBCFCFF0E9CFD0F0A1ED0AF0D8
:10001800D8CF2DF0E8CF2EF0E0CF2FF0FACF30F088
:10002800FBCF31F0E9CF32F0EACF33F0E1CF34F053
:10003800E2CF35F0D9CF36F0DACF37F0F3CF38F05A
:10004800F4CF39F0F6CF3AF0F7CF3BF0F8CF3CF0E9
:10005800F5CF3DF09DBA9EAA14D09E9A1350010D7B
:10006800000EF324D96E010EF420DA6EAECFDFFF56
:10007800132A0D0EAE18D8A404D0000E136E4680B5
:1000880000D0A0B2A1A20AD0000E0C6E000E0B6E1A
:10009800000E0E6E000E0D6EA19200D09DB49EA4AF
:1000A80035D09E940B500C10D8A406D0BF500C6EBF
:1000B8000B6ABE500B122AD0BF500E6E0D6ABE508E
:1000C8000D120B500D5E0C500E5A0DC025F00EC0CF
:1000D80026F0020E286E710E276E9EEC17F0255042
:1000E800246E030E24640BD0030E266EE80E256ED4
:1000F80024C027F0286AC0EC15F0255001D0000E66
:10010800166E000E0C6E000E0B6E00D03DC0F5FF93
:100118003CC0F8FF3BC0F7FF3AC0F6FF39C0F4FF18
:1001280038C0F3FF37C0DAFF36C0D9FF35C0E2FF69
:1001380034C0E1FF33C0EAFF32C0E9FF31C0FBFF42
:1001480030C0FAFF2FC0E0FF2EC0E8FF2DC0D8FF57
:1001580010000EEF18F0000E0101606F320E5F6F95
:1001680001C061F102C062F1CDEC16F0000E010190
:10017800606F520E5F6F1FC061F10101626BCDECC1
:1001880016F0040E000196651BD01F0E0001966143
:1001980017D0000E0101606F330E5F6FA0C061F1D0
:1001A8000101626BCDEC16F0000E0101606F340E98
:1001B8005F6F22C061F10101626BCDEC16F000D0D7
:1001C800040E0001966509D0150E0001966105D050
:1001D800000195510001D8B409D0190E00019665A7
:1001E80029D01C0E0001966125D000D0000E010117
:1001F800536F390E526FB4EC14F052C157F153C11A
:1002080058F1000E01015A6F5969F2EC17F057C105
:100218007AF158C17BF17AC150F17BC151F1000EDE
:100228000101536F640E526F0BEC16F0010150512F
:10023800BB6E00D01B0E00019619D8A412D0000E78
:100248000101536F2B0E526FB4EC14F00101D890DA
:10025800010152350101746F010174050001E46F59
:1002680017D0000E0101606F2B0E5F6FE4C057F1CD
:100278000101586B000E01015A6F020E596FE5EC2F
:1002880013F057C161F158C162F1CDEC16F000D0FE
:10029800070E000196654DD0150E0001966149D0F4
:1002A8003CD000019F510001995DD8A042D0000EBA
:1002B8000001996F000EBB6E020E2CD03AD00001DF
:1002C8009E510001995DD8A034D0100E0101546FE1
:1002D800010E6AEC15F0200E0101546F000E6AEC55
:1002E80015F0000E0001996F000E14D022D0000105
:1002F8009951D8B41ED0200E0101546F010E6AEC3A
:1003080015F0100E0101546F000E6AEC15F0550E31
:10031800BB6E010E0001956F0CD000019551000ACB
:10032800D8B4BFD7010AD8B4CAD7030AD8B4DFD71C
:1003380000D044A222EF0AF04492040E0001966510
:1003480022EF0AF01F0E0001966122EF0AF0910ECB
:10035800015C010E0258D8A022EF0AF001C052F148
:1003680002C053F16BEC17F022EF0AF0000E000107
:10037800E36F000E0101606F390E5F6F000E01011F
:10038800626F000E616FCDEC16F0000E0101606F18
:10039800310E5F6F000E0101626F000E616FCDECD0
:1003A80016F0000E1F6E82A4A0EF0AF0000E0101E5
:1003B800536F180E526F030E03EC17F0000E000176
:1003C800956F010E45EF06F0A0EF0AF0000E01014F
:1003D800536F260E526FB4EC14F052C17AF153C128
:1003E8007BF1040E01017A1901017B11D8A432D0E6
:1003F800000E0101536F060E526F030E03EC17F047
:10040800000E0101606F260E5F6F000E0101626F22
:10041800000E616FCDEC16F0000EBB6E000E0101F0
:10042800606F390E5F6F000E0101626F000E616F21
:10043800CDEC16F0100E0101546F010E6AEC15F0A8
:10044800040E0101546F010E6AEC15F0040E000150
:10045800966F00D0080E01017A1901017B11D8A40A
:10046800A0EF0AF0000E0101536F060E526F030E43
:1004780003EC17F0000E0101606F310E5F6F000E84
:100488000101626F010E616FCDEC16F0000E0101E3
:10049800606F260E5F6F000E0101626F000E616FC4
:1004A800CDEC16F0100E0101546F010E6AEC15F038
:1004B800000E0001926F000E916F000E00018C6F0C
:1004C800000E8B6F94D0A0EF0AF081A81CD0839007
:1004D800000E00018C6F000E8B6F7F0EBB6E000E3E
:1004E8000101606F390E5F6F000E0101626F320EFD
:1004F800616FCDEC16F0020E0101546F010E6AEC2B
:1005080015F0030EBED38380A0EF0AF000018B51D3
:10051800000191250101586F00018C5100019221C1
:100528000101596F40EC18F058C16BF159C16CF1D9
:100538005AC16DF1000E01015F6FC00E0101606FBD
:100548003F0E0101616F0001B45128EC18F058C149
:100558005CF159C15DF15AC15EF189EC11F05CC1E1
:100568006EF15DC16FF15EC170F14DEC14F00101E7
:10057800D8A01ED0020E0101546F000E6AEC15F0CF
:10058800000EBB6E000E0101606F390E5F6F000E2A
:100598000101626F000E616FCDEC16F0040E0101CF
:1005A800546F010E6AEC15F0040E0001966F00D02E
:1005B80081A4A0EF0AF000018B51000191270001EE
:1005C8008C5100019223020E0101546F000E6AEC57
:1005D80015F0000EBB6E000E0101606F390E5F6FE3
:1005E800000E0101626F000E616FCDEC16F0020E75
:1005F80048D3A0EF0AF0000E01017B6F000E7A6F5E
:1006080001017B512DE1050E01017A5DD8B028D09A
:1006180001D026D0BB68000E0101606F390E5F6FF4
:10062800000E0101626F640E616FCDEC16F0020ED0
:10063800CCEC17F0190EBB6E000E0101606F390E7D
:100648005F6F000E0101626F0A0E616FCDEC16F04C
:10065800020ECCEC17F001017A4B7B2BD1D700D0DE
:10066800000E0101606F310E5F6F000E0101626FB5
:10067800020E616FCDEC16F0550EBB6E000E010137
:10068800606F390E5F6F000E0101626F210E616F9E
:10069800CDEC16F083968384448E000E0001986F8B
:1006A800000E1E6EA1C01FF0459C000E1E6E000EAF
:1006B8000001986F000E0001A06F000E236E000E5F
:1006C800226E050EDED200F045ACA0EF0AF07FECFA
:1006D80018F0000E0001986F000E1E6E000E01014A
:1006E800606F310E5F6F000E0101626F030E616F64
:1006F800CDEC16F0060E0001966F000E0101606F3A
:10070800390E5F6F000E0101626F000E616FCDEC54
:1007180016F0000E0101536F070E526F030E03EC23
:1007280017F08388A0EF0AF0030E12EC15F0060EFE
:100738000101521901015311D8A40ED0000EBB6E4D
:10074800449E8394000E0101536F0D0E526F030EE9
:1007580003EC17F0839800D082B483B8A0EF0AF0B6
:10076800000E0101536F060E526F030E03EC17F0D3
:10077800000E0101606F260E5F6F000E0101626FAF
:10078800000E616FCDEC16F0000E0001986F000EA0
:100798001E6EB6C07CF18384448E459C400EBB6EB1
:1007A800000E0101606F390E5F6F000E0101626F6C
:1007B800190E616FCDEC16F0000E0101606F310E5D
:1007C8005F6F000E0101626F040E616FCDEC16F0D1
:1007D800070E57D2A0EF0AF001017C510001985D85
:1007E800D8A0A0EF0AF07FEC18F0000E0001986F77
:1007F800000E1E6EA2C01FF0459C000E0001996FEE
:10080800080E3FD2A0EF0AF00001A351D8A405D0EA
:10081800A4C01FF021D00A0E34D245ACA0EF0AF0D4
:100828007FEC18F0000E0001986F000E1E6EA3C03A
:100838007CF1090E26D2A0EF0AF001017C510001DB
:10084800985DD8A0A0EF0AF07FEC18F0000E000128
:10085800986F000E1E6EDCD7459CDDD7A0EF0AF01E
:100868000001A551D8A403D020D00C0E0AD245AC63
:10087800A0EF0AF07FEC18F0000E0001986F000E50
:100888001E6EA5C07CF10B0EFCD1A0EF0AF0010191
:100898007C510001985DD8A0A0EF0AF07FEC18F019
:1008A800000E0001986F000E1E6EA6C01FF0459C3A
:1008B800DCD7A0EF0AF00001A751D8A408D00E0E8B
:1008C8000001966FA8C01FF0459CA0EF0AF045AC48
:1008D800A0EF0AF07FEC18F0000E0001986F000EF0
:1008E8001E6EA7C07CF10D0ECCD1A0EF0AF001015D
:1008F8007C510001985DD8A0A0EF0AF07FEC18F0B9
:10090800000E0001986F000E1E6EA8C01FF0459CD7
:100918000E0EB7D1A0EF0AF00001A951D8A405D056
:10092800AAC01FF021D0100EACD145ACA0EF0AF040
:100938007FEC18F0000E0001986F000E1E6EA9C023
:100948007CF10F0E9ED1A0EF0AF001017C5100014D
:10095800985DD8A0A0EF0AF07FEC18F0000E000117
:10096800986F000E1E6EDCD7459CDDD7A0EF0AF00D
:100978000001AB51D8A40AD08388000E0101536F3F
:10098800100E526F030E03EC17F020D045ACA0EF09
:100998000AF07FEC18F0000E0001986F000E1E6E32
:1009A800ABC07CF1110E6DD1A0EF0AF001017C51B2
:1009B8000001985DD8A0A0EF0AF08388000E01011D
:1009C800536F100E526F030E03EC17F0120E59D12D
:1009D800A0EF0AF0030E12EC15F0060E01015219F1
:1009E80001015311D8A40AD0000E0101536F110E52
:1009F800526F030E03EC17F0839800D082A4A0EF87
:100A08000AF0000E0101536F060E526F030E03EC3D
:100A180017F0ACC01FF0000E0001986F000E1E6E9C
:100A2800459C130E2ED1A0EF0AF045ACA0EF0AF0BA
:100A38007FEC18F0000E0001986F000E1E6EADC01E
:100A48007CF1140E1ED1A0EF0AF001017C510001C7
:100A5800985DD8A0A0EF0AF0000E0001986F000E74
:100A68001E6E000E0101606F390E5F6F000E0101EE
:100A7800626F000E616FCDEC16F0000E0101606F21
:100A8800310E5F6F000E0101626F050E616FCDECD4
:100A980016F0000E0101536F090E526F030E03EC9E
:100AA80017F0000EBB6E040E0101546F010E6AECC4
:100AB80015F0100E0101546F010E6AEC15F0200EAE
:100AC8000101546F000E6AEC15F0449E83948396DE
:100AD80081928388150ED5D0A0EF0AF0030E12EC90
:100AE80015F0060E0101521901015311D8A40AD0BC
:100AF800000E0101536F0E0E526F030E03EC17F038
:100B0800839800D082B483B8A0EF0AF0000E0101E8
:100B1800536F060E526F030E03EC17F0000E01011F
:100B2800606F260E5F6F000E0101626F000E616F2D
:100B3800CDEC16F0000E0101606F310E5F6F000EF4
:100B48000101626F070E616FCDEC16F000D082B420
:100B5800FED79CC07CF1000E1E6E000E0101536F83
:100B6800120E526F030E03EC17F0040E0101546FBE
:100B7800000E6AEC15F0100E0101546F000E6AECBD
:100B880015F0080E0101546F010E6AEC15F0020E03
:100B98000101546F010E6AEC15F0160E72D0A0EF29
:100BA8000AF0000E0101606F370E5F6F03C061F13C
:100BB80004C062F1CDEC16F081A808D0839083942C
:100BC80083868182170E0001966F04D083848396F2
:100BD8008182838082A4A0EF0AF08390000E010135
:100BE800536F060E526F030E03EC17F0080E010147
:100BF800546F000E6AEC15F0020E0101546F000EDE
:100C08006AEC15F0040E0101546F010E6AEC15F040
:100C1800100E0101546F010E6AEC15F0000E000170
:100C2800986F000E1E6EAEC01FF0459C000E0101AD
:100C3800606F310E5F6F000E0101626F080E616F09
:100C4800CDEC16F0449E838483968182000EBB6EA1
:100C5800000E0101606F390E5F6F000E0101626FB7
:100C6800000E616FCDEC16F0000E0101606F2B0EC7
:100C78005F6F000E0101626F640E616FCDEC16F0BC
:100C880031D10001966FA0EF0AF0000E0101606FEC
:100C9800370E5F6F03C061F104C062F1CDEC16F04E
:100CA800E20E0101746FFF0E0101756F00019B5187
:100CB8000A0D01017451F32601017551F422F35014
:100CC800035CF4500458D8B004D08394838681829E
:100CD80009D08384839681827FEC18F0180E000176
:100CE800966F00D082A4A0EF0AF08390000E010155
:100CF800536F060E526F030E03EC17F0080E010136
:100D0800546F000E6AEC15F0020E0101546F000ECC
:100D18006AEC15F0040E0101546F010E6AEC15F02F
:100D2800100E0101546F010E6AEC15F0000E00015F
:100D3800986F000E1E6EAEC01FF0459C000E01019C
:100D4800606F310E5F6F000E0101626F080E616FF8
:100D5800CDEC16F0449E838483968182000EBB6E90
:100D6800000E0101606F390E5F6F000E0101626FA6
:100D7800000E616FCDEC16F0000E0101606F2B0EB6
:100D88005F6F000E0101626F640E616FCDEC16F0AB
:100D9800A9D0D2D3000E0101606F370E5F6F03C078
:100DA80061F104C062F1CDEC16F0000E0101536F41
:100DB800390E526FB4EC14F052C157F153C158F1C7
:100DC800000E01015A6F5969F2EC17F057C17AF118
:100DD80058C17BF17AC150F17BC151F1000E01017C
:100DE800536F640E526F0BEC16F001015051BB6E3D
:100DF80081A406D0000EBB6E160E0001966F00D0BF
:100E080082A49AD3000E0101536F060E526F030E8F
:100E180003EC17F0000EBB6E080E0101546F000EB4
:100E28006AEC15F0020E0101546F000E6AEC15F021
:100E3800040E0101546F010E6AEC15F0100E010149
:100E4800546F010E6AEC15F0000E0001986F000E49
:100E58001E6EAEC01FF0459C000E0101606F310E82
:100E68005F6F000E0101626F080E616FCDEC16F026
:100E7800449E838483968182000EBB6E000E01011E
:100E8800606F390E5F6F000E0101626F000E616FB7
:100E9800CDEC16F0000E0101606F2B0E5F6F000E97
:100EA8000101626F640E616FCDEC16F01BD044D364
:100EB80001017C510001985DD8A03ED3000E0001CD
:100EC800986F000E1E6EAEC01FF0459C000E01010B
:100ED800606F310E5F6F000E0101626F080E616F67
:100EE800CDEC16F01A0ECDD627D3C80E0001E46F4C
:100EF800000E0101606F2B0E5F6F000E0101626F23
:100F0800640E616FCDEC16F01F500A0DF350015CB2
:100F1800F4500258D8A010D37FEC18F0000E00014E
:100F2800986F000E1E6EAFC07CF11B0E0001966F0D
:100F3800C70E0001E46F000E0101606F2B0E5F6F9A
:100F4800000E0101626F640E616FCDEC16F04480F3
:100F5800449EF2D20001B051D8B443D00001B05140
:100F68000101746F756B000198510101766F776B01
:100F78000101761F771F764B772B01017C51010108
:100F8800786F796B0101765101017827010177515A
:100F980001017923010174510101781922E101014C
:100FA800755101017919D8A41CD0000E0001B06F49
:100FB800000E0101606F310E5F6F000E0101626F5C
:100FC800090E616FCDEC16F0000E0101536F080E8B
:100FD800526F030E03EC17F083881C0E0001966F06
:100FE80000D00001B151D8B443D00001B151010182
:100FF800746F756B000198510101766F776B010171
:10100800761F771F764B772B01017C510101786F92
:10101800796B0101765101017827010177510101AE
:101028007923010174510101781922E101017551F7
:1010380001017919D8A41CD0000E0001B16F000E6F
:101048000101606F310E5F6F000E0101626F090EC2
:10105800616FCDEC16F0000E0101536F080E526F50
:10106800030E03EC17F083881C0E0001966F00D066
:101078000001B251D8B443D00001B2510101746FDC
:10108800756B000198510101766F776B0101761F2E
:10109800771F764B772B01017C510101786F796BB3
:1010A8000101765101017827010177510101792366
:1010B800010174510101781922E101017551010101
:1010C8007919D8A41CD0000E0001B26F000E0101DE
:1010D800606F310E5F6F000E0101626F090E616F64
:1010E800CDEC16F0000E0101536F080E526F030E7F
:1010F80003EC17F083881C0E0001966F00D00001E6
:10110800B351D8B443D00001B3510101746F756B6A
:10111800000198510101766F776B0101761F771FE7
:10112800764B772B01017C510101786F796B0101B6
:1011380076510101782701017751010179230101D5
:1011480074510101781922E10101755101017919E0
:10115800D8A41CD0000E0001B36F000E0101606F0F
:10116800310E5F6F000E0101626F090E616FCDECE9
:1011780016F0000E0101536F080E526F030E03ECB8
:1011880017F083881C0E0001966F00D001017C5176
:101198000001985DD8A0D0D1000E0101536F150E43
:1011A800526F030E03EC17F083881D0E6AD5C4D165
:1011B800030E12EC15F0060E01015219010153112C
:1011C800D8A40AD0000E0101536F0F0E526F030E00
:1011D80003EC17F0839800D082A4AED1000E010171
:1011E800536F060E526F030E03EC17F0000E010149
:1011F800606F260E5F6F000E0101626F000E616F57
:10120800CDEC16F0000E0101606F310E5F6F000E1D
:101218000101626F080E616FCDEC16F01B0E31D51F
:101228008BD1030E12EC15F0060E010152190101C3
:101238005311D8A40AD0000E0101536F130E526F38
:10124800030E03EC17F0839800D082A475D1000E2A
:101258000001986F000E1E6E449E449083948396FE
:101268008192000E0101606F2B0E5F6F000E01016D
:10127800626F000E616FCDEC16F0000E0101536F26
:10128800060E526F030E03EC17F0000E0101606F9B
:10129800310E5F6F000E0101626F0A0E616FCDECB7
:1012A80016F0200E0101546F010E6AEC15F0100EB5
:1012B8000101546F000E6AEC15F0BB68000E0101C5
:1012C800606F390E5F6F000E0101626F640E616F0F
:1012D800CDEC16F0B5C07CF11E0ED3D42DD1000E86
:1012E8000001E46F000E0101606F390E5F6F000EA0
:1012F8000101626F640E616FCDEC16F001017C5143
:101308000001985DD8A018D1000E0101536F190E85
:10131800526F030E03EC17F083881F0EB2D40CD162
:1013280082A40AD18398000E0101536F140E526FE4
:10133800030E03EC17F0000E0101606F310E5F6FB2
:10134800000E0101626F0B0E616FCDEC16F0000EFE
:101358000101606F390E5F6F000E0101626F000EB0
:10136800616FCDEC16F0000EBB6E200E0101546FBC
:10137800000E6AEC15F0400E0101546F010E6AEC84
:1013880015F08382200E7DD4D7D0000E0101606F46
:10139800380E5F6F05C061F106C062F1CDEC16F042
:1013A800000E0101536F390E526FB4EC14F052C1A4
:1013B80057F153C158F1000E01015A6F5969F2EC07
:1013C80017F057C17AF158C17BF17AC150F17BC14E
:1013D80051F1000E0101536F640E526F0BEC16F0C1
:1013E80001015051BB6E82A4A7D0000EBB6E000E47
:1013F8000101606F390E5F6F000E0101626F000E10
:10140800616FCDEC16F08392000E0101536F010E4F
:10141800526F030E03EC17F0400E0101546F000EDB
:101428006AEC15F0040E0101546F000E6AEC15F019
:1014380000D082B4FED7000E24D47ED0000196518D
:10144800000AD8B4BAEF01F0010AD8B4EAEF01F003
:10145800030AD8B469EF02F0010AD8B48AEF02F09F
:10146800070AD8B4FFEF02F0010AD8B467EF03F017
:10147800030AD8B498EF03F0010AD8B4F0EF03F0E8
:101488000F0AD8B408EF04F0010AD8B421EF04F029
:10149800030AD8B434EF04F0010AD8B44BEF04F0CF
:1014A800070AD8B45FEF04F0010AD8B47BEF04F060
:1014B800030AD8B490EF04F0010AD8B4A9EF04F0F5
:1014C8001F0AD8B4BCEF04F0010AD8B4DAEF04F06C
:1014D800030AD8B4EEEF04F0010AD8B419EF05F006
:1014E800070AD8B429EF05F0010AD8B472EF05F05D
:1014F800030AD8B4D5EF05F0010AD8B449EF06F0CD
:101508000F0AD8B447D4010AD8B4D2D4030AD8B43D
:10151800ECD4010AD8B41ED5070AD8B449D6010AB2
:10152800D8B47FD6030AD8B4DAD6010AD8B4F8D624
:101538003F0AD8B42AD700D012000600EACFD1F06B
:10154800E1CFD2F0E2CFD3F0D9CFD4F0DACFD5F0D3
:10155800F3CFD6F0F4CFD7F0F6CFD8F0F7CFD9F055
:10156800F8CFDAF0F5CFDBF0F2BAF2A450D23C0EA5
:10157800D66EF294449480B84484449682B44486E7
:101588009568010E846E00F000F000F083CF19F02A
:10159800030E846E00F000F000F083CF18F0040E04
:1015A800846E00F000F000F083CF17F0020E846E16
:1015B80000F0000E956E00F000F000F01DC083FFF3
:1015C80000F0050E846E00F000F000F01CC083FFF0
:1015D80000F0000E846E00F0956844AA02D0818461
:1015E80001D0819444AC02D0818801D08198122A1C
:1015F800449812C03EF03F6A000E416E140E406ED1
:101608004CEC16F03E503F10D8A402D0152A00D05A
:1016180044AEA0D015500001CB6FCC6B095000012F
:10162800CB5D0001CC51800A0001CD6F0A50800AC1
:101638000001CD59D8A08ED0000E156E01C0CBF098
:1016480002C0CCF00001CB1FCC1FCB4BCC2B1F50C2
:101658000A0D0001CB51F3240001E06F0001CC51C9
:10166800F4200001E16F0001E1AF08D0FE0E000197
:10167800E05DFF0E0001E159D8A00DD00001E1BFE7
:1016880008D00001E15107E1030E0001E05DD8B088
:1016980002D0458C02D0459C00D00001E0510001E9
:1016A800DE270001E1510001DF230001DFAF08D090
:1016B800CE0E0001DE5DFF0E0001DF59D8A00DD06F
:1016C8000001DFBF10D00001DF5107E1330E000138
:1016D800DE5DD8B002D007D000D0000E0001DF6F69
:1016E800000EDE6F00D01BC03EF03F6AE0C040F045
:1016F800E1C041F06BEC18F03EC0CBF03FC0CCF03D
:101708001AC03EF03F6ADEC040F0DFC041F06BEC2B
:1017180018F03E500001CB250001E06F3F5000015A
:10172800CC210001E16F0001E1AF02D0010E0FD022
:101738000001E1BF08D00001E15108E1C70E000136
:10174800E05DD8B003D0E0C0E4F004D0C70E0001DB
:10175800E46F00D0C70E126422D01E2A00018B4B02
:101768008C2B4488232A000E126E3B0E1E6405D073
:10177800000E1E6E0001982B00D03B0E236407D08C
:10178800000E236E0001992B4482222A00D03B0EC2
:10179800226405D0000E226E0001A02B00D044BEAA
:1017A80002D044A034D10001E451D8B409D00001DA
:1017B800E451125CD8B002D0818229D1819227D11C
:1017C800819225D1C30EC216030E0F6004D00F44B8
:1017D800E846FC0B04D00F44E846FC0B040FC21289
:1017E80000D0010E12D1C282020E0FD1C2B21DD199
:1017F800C4CFDCF00001DD6B0001DC510001DD6FBE
:10180800DC6BC3500001DC130F50020D600EF32493
:10181800D96E000EF420DA6E0001DC51DE26DD51AF
:10182800DD220F2A030E0F6404D0000E0F6E102A5B
:1018380000D0000E116E190E1018D8A4F6D0030EA1
:10184800E4D0F3D0000E0001E26F030E0001E26560
:1018580001D0D8D00001E251020D600EF324D96EF8
:10186800000EF420DA6EDECF3EF0DDCF3FF0000E42
:10187800416E190E406E37EC17F00001E251020D6F
:10188800010EF324D96E000EF420DA6E3EC0DEFF9E
:101898003FC0DDFF0001E251020D680EF324D96E4E
:1018A800000EF420DA6EDECFCBF0DDCFCCF00001F5
:1018B800E251020D010EF324D96E000EF420DA6E07
:1018C8000001CB51DE26CC51DD220001E251020D90
:1018D800700EF324D96E000EF420DA6EDECFCBF052
:1018E800DDCFCCF00001E251020D010EF324D96ED8
:1018F800000EF420DA6E0001CB51DE26CC51DD2239
:101908000001E251020D780EF324D96E000EF42086
:10191800DA6EDECFCBF0DDCFCCF00001E251020D64
:10192800010EF324D96E000EF420DA6E0001CB51BB
:10193800DE26CC51DD22020E0001CB6F0001E25100
:10194800020D010EF324D96E000EF420DA6E0001A8
:10195800CB2904D0D92AD890DD32DF32E82EFAD745
:101968000001E251020D700EF324D96E000EF4202E
:10197800DA6E0001E251020D780EF324E16E000EDA
:10198800F420E26EDECFE6FFDDCFE5FF0001E25195
:10199800020D680EF324D96E000EF420DA6E0001F1
:1019A800E251020D700EF324E16E000EF420E26E97
:1019B800DECFE6FFDDCFE5FF0001E251020D010EAB
:1019C800F324D96E000EF420DA6E0001E251020D04
:1019D800680EF324E16E000EF420E26EDECFE6FF1F
:1019E800DDCFE5FF0001E251020D600EF324D96E50
:1019F800000EF420DA6E000EDE6E000EDD6E0001C1
:101A0800E22B23D7000E106E000E116E0ED011506F
:101A1800000AD8B4D7D6010AD8B4E5D6030AD8B490
:101A2800E5D6010AD8B40ED700D0DBC0F5FFDAC07E
:101A3800F8FFD9C0F7FFD8C0F6FFD7C0F4FFD6C06B
:101A4800F3FFD5C0DAFFD4C0D9FFD3C0E2FFD2C0BC
:101A5800E1FFD1C0EAFFD0C0E9FFCFC0FBFFCEC095
:101A6800FAFF1100630E0001E36F000E0101606FC1
:101A7800320E5F6F01C061F102C062F1CDEC16F069
:101A8800000E0101606F370E5F6F03C061F104C083
:101A980062F1CDEC16F0000E0101606F380E5F6F39
:101AA80005C061F106C062F1CDEC16F0000E01012F
:101AB800536F390E526FB4EC14F052C157F153C141
:101AC80058F1000E01015A6F5969F2EC17F057C12D
:101AD80066F158C167F166C150F167C151F1000E56
:101AE8000101536F640E526F0BEC16F00101505157
:101AF800BB6E000E0101536F400E526FB4EC14F030
:101B080052C18FF053C190F000018F510001901124
:101B1800D8A41AD14DD118D1837083A00DD0000E4E
:101B28000101606F410E5F6F000E0101626F010ECF
:101B3800616FCDEC16F02BD1000E0101606F410EE4
:101B48005F6F000E0101626F000E616FCDEC16F041
:101B58001ED14570020E0101546F000E45B0010EF2
:101B68006AEC15F045A00DD0000E0101606F420E21
:101B78005F6F000E0101626F010E616FCDEC16F010
:101B880006D1000E0101606F420E5F6F000E010169
:101B9800626F000E616FCDEC16F0F9D04572040E3D
:101BA8000101546F000E45B2010E6AEC15F045A212
:101BB8000DD0000E0101606F430E5F6F000E010132
:101BC800626F010E616FCDEC16F0E1D0000E0101DD
:101BD800606F430E5F6F000E0101626F000E616F50
:101BE800CDEC16F0D4D04574080E0101546F000EE8
:101BF80045B4010E6AEC15F045A40DD0000E0101A4
:101C0800606F440E5F6F000E0101626F010E616F1D
:101C1800CDEC16F0BCD0000E0101606F440E5F6F72
:101C2800000E0101626F000E616FCDEC16F0AFD0AF
:101C38004576100E0101546F000E45B6010E6AEC90
:101C480015F045A60DD0000E0101606F450E5F6FBF
:101C5800000E0101626F010E616FCDEC16F097D096
:101C6800000E0101606F450E5F6F000E0101626F8B
:101C7800000E616FCDEC16F08AD04578200E010178
:101C8800546F000E45B8010E6AEC15F045A80DD04A
:101C9800000E0101606F460E5F6F000E0101626F5A
:101CA800010E616FCDEC16F072D0000E0101606F6D
:101CB800460E5F6F000E0101626F000E616FCDEC82
:101CC80016F065D0457A400E0101546F000E45BAF2
:101CD800010E6AEC15F045AA0DD0000E0101606FE7
:101CE800470E5F6F000E0101626F010E616FCDEC50
:101CF80016F04DD0000E0101606F470E5F6F000EA9
:101D08000101626F000E616FCDEC16F040D0837256
:101D180083A20DD0000E0101606F480E5F6F000EA8
:101D28000101626F010E616FCDEC16F030D0000E2C
:101D38000101606F480E5F6F000E0101626F000EB7
:101D4800616FCDEC16F023D08FC064F190C065F1BF
:101D580001016551000AD8A41AD001016451010A91
:101D6800D8B4DAD6030AD8B4F4D6060AD8B416D743
:101D78000C0AD8B438D7180AD8B45AD7300AD8B405
:101D88007CD7600AD8B49ED7C00AD8B4C0D700F0B0
:101D9800000E0101606F400E5F6F000E0101626F5F
:101DA800000E616FCDEC16F0010ECCEC17F000D0F0
:101DB800000E0101536F260E526FB4EC14F052C19D
:101DC8008FF053C190F000018F5100019011D8B4E9
:101DD80062D000F03ED0837483A40ED08182000EBE
:101DE8000101606F490E5F6F000E0101626F010E05
:101DF800616FCDEC16F03FD08192000E0101606F4B
:101E0800490E5F6F000E0101626F000E616FCDEC2D
:101E180016F031D0837683A60ED08182000E0101A0
:101E2800606F500E5F6F000E0101626F010E616FEF
:101E3800CDEC16F020D08192000E0101606F500E9B
:101E48005F6F000E0101626F000E616FCDEC16F03E
:101E580012D08FC064F190C065F101016551000A8C
:101E6800D8A409D001016451400AD8B4B4D7C00A33
:101E7800D8B4D0D700D0000E0101606F260E5F6F76
:101E8800000E0101626F000E616FCDEC16F0010EBD
:101E9800CCEC17F000D01200100E01015B6F240E7D
:101EA80001015B65E9D02DD1E7D05BC152F1010199
:101EB800536BB4EC14F0010152510001A16F1ED113
:101EC8005BC152F10101536BB4EC14F001015251A2
:101ED8000001A26F13D15BC152F10101536BB4EC45
:101EE80014F0010152510001A36F08D15BC152F1F6
:101EF8000101536BB4EC14F0010152510001A46FBD
:101F0800FDD05BC152F10101536BB4EC14F0010137
:101F180052510001A56FF2D05BC152F10101536B20
:101F2800B4EC14F0010152510001A66FE7D05BC177
:101F380052F10101536BB4EC14F00101525100014C
:101F4800A76FDCD05BC152F10101536BB4EC14F004
:101F5800010152510001A86FD1D05BC152F10101BA
:101F6800536BB4EC14F0010152510001A96FC6D0B3
:101F78005BC152F10101536BB4EC14F001015251F1
:101F88000001AA6FBBD05BC152F10101536BB4ECE5
:101F980014F0010152510001AB6FB0D05BC152F196
:101FA8000101536BB4EC14F0010152510001AC6F04
:101FB800A5D05BC152F10101536BB4EC14F00101DF
:101FC80052510001AD6F9AD05BC152F10101536BC0
:101FD800B4EC14F0010152510001AE6F8FD05BC117
:101FE80052F10101536BB4EC14F00101525100019C
:101FF800AF6F84D05BC152F10101536BB4EC14F0A4
:10200800010152510001B06F79D05BC152F1010159
:10201800536BB4EC14F0010152510001B16F6ED052
:102028005BC152F10101536BB4EC14F00101525140
:102038000001B26F63D05BC152F10101536BB4EC84
:1020480014F0010152510001B36F58D05BC152F135
:102058000101536BB4EC14F0010152510001B46F4B
:102068004DD05BC152F10101536BB4EC14F0010186
:1020780052510001B56F42D001015B51100AD8B42A
:1020880014D7010AD8B41CD7030AD8B424D7010A34
:10209800D8B42CD7070AD8B434D7010AD8B43CD757
:1020A800030AD8B444D7010AD8B44CD70F0AD8B415
:1020B80054D7010AD8B45CD7030AD8B464D7010A44
:1020C800D8B46CD7070AD8B474D7010AD8B47CD767
:1020D800030AD8B484D7010AD8B48CD73F0AD8B435
:1020E80094D7010AD8B49CD7030AD8B4A4D7010A54
:1020F800D8B4ACD7070AD8B4B4D700D001015B2B49
:10210800CED6000E0101536F510E526FB4EC14F08D
:10211800010152510001B66F000E01015B6F36D00C
:1021280039D0000E01015B250101526F0101536B8B
:10213800010E5323B4EC14F052C159F153C15AF1B2
:1021480001015B51020DB70EF324D96E000EF42085
:10215800DA6E01015A51DF6E01015B510101576FBF
:10216800586BD890010157375837010E010157278E
:10217800000E5823B70E01015725D96E000E010134
:102188005821DA6E59C1DFFF01015B2B070E0101EF
:102198005B65C7D700F01200000E0C6E000E0B6EC8
:1021A800000E0E6E000E0D6E000E246E000E166EE2
:1021B8008DEC16F0459E46901EC07DF1000E010183
:1021C8007E6F010E0001E46F449E4490000E836E02
:1021D800000EBB6E630E0001E36F449237EC12F001
:1021E800000E0101606F260E5F6F000E0101626F25
:1021F800000E616FCDEC16F057EC13F050EC0FF0B9
:10220800000E0101536F010E526F030E03EC17F01D
:102218007FEC18F000D000F064D013D0010E01015B
:102228007E6F000E0101536F0C0E526F030E03EC0C
:1022380017F0F1D7020E28D0030E26D0040E24D0B2
:10224800EAD7030E12EC15F001015351000AD8A485
:10225800E2D701015251020AD8B4EED7010AD8B424
:10226800EDD7070AD8B4E6D7020AD8B4D7D7D3D758
:10227800AFEC00F0030E12EC15F00101520501015C
:102288005311D8A4C8D72AD001017E6FC4D7030E32
:1022980012EC15F00101520501015311D8A4BBD766
:1022A80050EC0FF01BD0B7D736EC0DF0030E12EC44
:1022B80015F00101520501015311D8A4ACD737EC30
:1022C80012F00CD0A8D7030E12EC15F0010152053C
:1022D80001015311D8A49FD757EC13F0000ED4D79F
:1022E8009AD701017E51000AD8B4ABD7010AD8B4F5
:1022F800BFD7030AD8B4CBD7010AD8B4D5D7070AB1
:10230800D8B4E1D788D7ADEF00F05EC162F1010122
:10231800636B646B01015D350101623701E3638121
:10232800010162510101656F01016551D8A402D014
:1023380014D098D061C162F10101636B646B010133
:1023480060350101623701E36381010162510101D6
:102358006A6F01016A51D8A40AD0000E01015C6FAE
:10236800000E01015D6F000E01015E6F7BD001015F
:102378006A517B0F010165275EC16AF10101615154
:1023880001016A1B800E01016A1701015D8F0101BD
:10239800608FFF0E01015F17FF0E01016017000E2D
:1023A80001016117000E0101666F000E0101676FE0
:1023B800000E0101686F070E0101696F00D001016D
:1023C8005CA10DD001015F51010166270101605137
:1023D80001016723010161510101682300D0010156
:1023E800D8905E335D335C330101D8905F37603736
:1023F80061370101692FE3D700D0090E0101696F28
:1024080000D001015CA10DD001015F5101016627D7
:102418000101605101016723010161510101682334
:1024280000D00101D8905E335D335C330101D89050
:102438006833673366330101692FE3D700D066C17B
:1024480050F167C151F168C152F165C153F16AC1D8
:1024580054F1C7EC12F050C15CF151C15DF152C1A9
:102468005EF100D0120083908392839483968192C8
:10247800020E0101546F000E6AEC15F0040E010102
:10248800546F000E6AEC15F0080E0101546F000E2F
:102498006AEC15F0100E0101546F000E6AEC15F08D
:1024A800200E0101546F000E6AEC15F0400E010178
:1024B800546F000E6AEC15F0000E0101606F410EBA
:1024C8005F6F000E0101626F000E616FCDEC16F0B8
:1024D8004590000E0101606F420E5F6F000E010112
:1024E800626F000E616FCDEC16F04592000E01018F
:1024F800606F430E5F6F000E0101626F000E616F27
:10250800CDEC16F04594000E0101606F440E5F6F2C
:10251800000E0101626F000E616FCDEC16F045965A
:10252800000E0101606F450E5F6F000E0101626FC2
:10253800000E616FCDEC16F04598000E0101606F3A
:10254800460E5F6F000E0101626F000E616FCDECE9
:1025580016F0459A000E0101606F470E5F6F000E7E
:102568000101626F000E616FCDEC16F0000E0101E3
:10257800606F480E5F6F000E0101626F000E616FA1
:10258800CDEC16F01200010153510101D8B408D066
:10259800010150510101511101015211D8A413D068
:1025A800000E0101506F000E0101516F000E010174
:1025B800526F78D008D00101532B0101D8905233C3
:1025C8005133503300D0000E010150150101556FF1
:1025D800000E010151150101566FFE0E0101521541
:1025E8000101576F010155510101561101015711A0
:1025F800D8B413D0E0D711D00101532B010E01013B
:102608005027000E01015123000E01015223010140
:10261800D89052335133503300D0000E0101501579
:102628000101556F000E010151150101566FFF0E92
:10263800010152150101576F010155510101561150
:1026480001015711D8B40AD0D7D708D001015307D0
:102658000101D89050375137523700D0010151BF8E
:1026680005D0020E01015361F1D700D0010153B129
:1026780003D00101519F00D00101D89053330101CB
:10268800535101015213010154510101D8B403D02F
:102698000101528F00D050C150F151C151F152C1C6
:1026A80052F100D01200000E0101536F270E526F35
:1026B800B4EC14F052C157F153C158F1000E0101A6
:1026C8005A6F0A0E596FE5EC13F0010157511B6E52
:1026D800000E0101536F280E526FB4EC14F052C172
:1026E80057F153C158F1000E01015A6F0A0E596F84
:1026F800E5EC13F0010157511A6E000E0101536FFA
:10270800290E526FB4EC14F052C157F153C158F16D
:10271800000E01015A6F0A0E596FE5EC13F0010122
:1027280057510001976F000E0101536F2A0E526F27
:10273800B4EC14F052C109F053C10AF0000E0101C3
:10274800536F570E526FB4EC14F00101525100014F
:102758009F6F000E0101536F580E526FB4EC14F0C6
:102768000101525100019E6F000E0101536F2C0EA2
:10277800526FB4EC14F00101525100019B6F000E2E
:102788000101536F2D0E526FB4EC14F00101525138
:1027980000019A6F000E0101536F550E526FB4EC91
:1027A80014F00101525100019C6F000E0101536F9A
:1027B800560E526FB4EC14F00101525100019D6F96
:1027C8001200000E01015C6F01015AAF09D001012E
:1027D800596D5A1FD8B05A2B010E01015C6F00D0F9
:1027E800010158AF09D00101576D581FD8B0582BB7
:1027F800010E01015C1B00D0000E01015E6F000E8E
:102808005D6F0101595101015A11D8B431D0010E3F
:1028180001015B6F07D00101D89059375A37010180
:102828005B2B00D001015ABF02D0F5D700D00101BF
:10283800D8905D375E37010159510101575D01019B
:102848005A5101015859D8A00BD001015951010121
:10285800575F01015A510101585B01015D8100D0A8
:102868000101D8905A33593301015B2FE0D700D0CA
:1028780001015C510101D8B406D001015D6D5E1FF4
:10288800D8B05E2B00D05DC157F15EC158F100D0C1
:10289800120001016DAF1ED06BC171F16CC172F1F4
:1028A8006DC173F10101711F721F731F712B000E2F
:1028B80072237323000E0101712501016B6F000E55
:1028C8000101722101016C6F800E01017321010168
:1028D8006D6F00D0010170AF1ED06EC171F16FC174
:1028E80072F170C173F10101711F721F731F712B97
:1028F800000E72237323000E0101712501016E6F12
:10290800000E0101722101016F6F800E0101732118
:102918000101706F00D0000E01016B1B000E010158
:102928006C1B800E01016D1B000E01016E1B000E59
:1029380001016F1B800E0101701B01016E51010125
:102948006B5D01016F5101016C5901017051010169
:102958006D59D8B002D0D89002D0D88000D01200DB
:102968005A0E0101286FA50E0101296F040E0101FD
:102978002A6F830E01012B6F0101535101012C6F46
:1029880052C12DF1010E01012E6F9E98000E01011A
:10299800566F12D015D001015651010D280EF3249F
:1029A800D96E010EF420DA6EDF50AD6E00D09EA80D
:1029B800FED79E980101562B060E01015665EBD7EE
:1029C8009E9A000E0101566F080E0101566502D04D
:1029D80012D000D09EAAFED79E9A01015651010D31
:1029E800000EF324D96E010EF420DA6EAECFDFFFAD
:1029F8000101562BE9D7010107510101556F546BAD
:102A08000101085101015427000E552356EC18F016
:102A180054C152F155C153F100D012000101546F55
:102A28005A0E0101286FA50E0101296F030E01013D
:102A38002A6F810E01012B6F54C12CF1020E010186
:102A48002D6F9E98000E0101566F12D015D001010E
:102A58005651010D280EF324D96E010EF420DA6EBA
:102A6800DF50AD6E00D09EA8FED79E980101562B70
:102A7800050E01015665EBD79E9A000E0101566FAF
:102A8800070E0101566502D012D000D09EAAFED7CB
:102A98009E9A01015651010D000EF324D96E010EC4
:102AA800F420DA6EAECFDFFF0101562BE9D7000E16
:102AB8000101556F010107510101552756EC18F026
:102AC80055C152F10101536B00D012000101556F3D
:102AD80001015505D8A402D0818A02D0819A00D07C
:102AE80056EC18F00CD0838A1FD0838C1DD0838EAF
:102AF8001BD0848019D0848217D0848415D001011A
:102B08005451020AD8B4EFD7060AD8B4EED70C0A43
:102B1800D8B4EDD7180AD8B4ECD7300AD8B4EBD764
:102B2800600AD8B4EAD700D0030ECCEC17F00CD06A
:102B3800839A1FD0839C1DD0839E1BD0849019D06C
:102B4800849217D0849415D001015451020AD8B444
:102B5800EFD7060AD8B4EED70C0AD8B4EDD7180ABE
:102B6800D8B4ECD7300AD8B4EBD7600AD8B4EAD7CF
:102B780000D056EC18F01200000E2A6E28AE07D0CE
:102B8800276C281ED8B0282A010E2A6E00D026AE3F
:102B980007D0256C261ED8B0262A010E2A1A00D086
:102BA800000E2C6E000E2B6E27502810D8B421D0A2
:102BB800010E296E05D0D89027362836292A00D04C
:102BC80028BE02D0F8D700D0D8902B362C36275004
:102BD800255C28502658D8A006D02750255E2850B6
:102BE800265A2B8000D0D89028322732292EECD7AD
:102BF80000D02A50D8B405D02B6C2C1ED8B02C2A63
:102C080000D02BC025F02CC026F000D01200000EFA
:102C18000101566F000E556F010152510101531108
:102C2800D8B431D0010E0101546F07D00101D890FA
:102C3800523753370101542B00D0010153BF02D042
:102C4800F5D700D00101D8905537563701015251B8
:102C58000101505D0101535101015159D8A00BD018
:102C6800010152510101505F010153510101515BB2
:102C78000101558100D00101D8905333523301012D
:102C8800542FE0D700D055C150F156C151F1120070
:102C9800000E436E3FAE07D03E6C3F1ED8B03F2AB1
:102CA800010E436E00D041AE05D0406C411ED8B035
:102CB800412A00D040504110D8B41DD0010E426EB8
:102CC80005D0D89040364136422A00D041BE02D0C5
:102CD800F8D700D040503E5C41503F58D8A005D0AE
:102CE80040503E5E41503F5A00D0D8904132403269
:102CF800422EF0D700D04350D8B405D03E6C3F1ECA
:102D0800D8B03F2A00D03EC03EF03FC03FF000D0D0
:102D18001200000E806E000EC26E1A0EC16EA50E55
:102D2800C06E070EB46E3F0E926E000E816ED50E09
:102D3800936E000E826E9468000E836E000E956E80
:102D4800000E966E000E846E020EB06E080EAF6E08
:102D5800B886AC84AC8AAB8EAB889F9A9D9AC280A9
:102D6800C60ED56E3C0ED66EF184F28ACB687F0E05
:102D7800BB6E040ECA6E0F0EBA6EF90EB16EA0824B
:102D8800A292050EBD6E9F949D84D08EF28EF28C19
:102D980012005A0E0101286FA50E0101296F050EB8
:102DA80001012A6F820E01012B6F0101605101019F
:102DB8002C6F5FC12DF10101625101012E6F61C1BC
:102DC8002FF19E98000E0101636F070E01016365E4
:102DD80001D012D001016351010D280EF324D96EE0
:102DE800010EF420DA6EDF50AD6E00D09EA8FED73B
:102DF8009E980101632BE9D756EC18F012000101E7
:102E0800546F5A0E0101286FA50E0101296F040E97
:102E180001012A6F800E01012B6F54C12CF10101B1
:102E2800535101012D6F52C12EF19E98000E0101E0
:102E3800556F060E0101556501D012D0010155519B
:102E4800010D280EF324D96E010EF420DA6EDF503E
:102E5800AD6E00D09EA8FED79E980101552BE9D7EC
:102E680056EC18F01200000E0001CA6F000EC96F70
:102E780040504110D8B426D0010E0001C86F06D0CA
:102E8800D890403641360001C82B00D041BE02D050
:102E9800F7D700D00001D890C937CA3740503E5CF8
:102EA80041503F58D8A007D040503E5E41503F5A4D
:102EB8000001C98100D0D890413240320001C82FAA
:102EC800E9D700D0C9C03EF0CAC03FF012005A0E80
:102ED8000101286FA50E0101296F040E01012A6F57
:102EE800840E01012B6F010E01012C6F010153515A
:102EF80001012D6F52C12EF19E98000E0101546FF1
:102F0800060E0101546501D012D001015451010D82
:102F1800280EF324D96E010EF420DA6EDF50AD6E60
:102F280000D09EA8FED79E980101542BE9D756ECF5
:102F380018F01200000E2A6E000E296E2750281075
:102F4800D8B421D0010E2B6E05D0D890273628365C
:102F58002B2A00D028BE02D0F8D700D0D890293626
:102F68002A362750255C28502658D8A006D0275046
:102F7800255E2850265A298000D0D890283227323A
:102F88002B2EECD700D029C025F02AC026F012003D
:102F98000101516F000E0101536F000E526FE80ED0
:102FA8000101525D030E01015359D8B00FD001D071
:102FB8000DD0070E0101506F7D0EE82EFED7502F61
:102FC800FCD700F00101524B532BE9D701015107FF
:102FD800010151510101D8A4DDD712000101575157
:102FE80001015903F3CF5BF1F4CF5CF101015751B3
:102FF80001015A03F35001015C27010158510101F5
:103008005903F35001015C275BC157F15CC158F1CA
:1030180000D0120001EE00F0500EEE6AE806FDE165
:1030280000EE60F0680EEE6AE806FDE1466A456A61
:10303800446A00EE01F0240EEE6AE806FDE1000E97
:10304800F86E0001D0EF10F001015B6F01015B51D8
:103058000101506F516B526B8E0E0101536F000EC0
:103068000101546FC7EC12F050C158F151C159F128
:1030780052C15AF100D0120058C150F159C151F152
:103088000101526B8E0E0101536F000E0101546F46
:10309800C7EC12F050C158F151C159F152C15AF15F
:1030A80000D01200000E0101516F4F0E0101516551
:1030B80001D00CD0070E0101506F7D0EE82EFED70F
:1030C800502FFCD700F00101512BEFD712003E50D2
:1030D8004002F3CF42F0F4CF43F03E504102F350A8
:1030E80043263F504002F350432642C03EF043C0BF
:1030F8003FF000D012008388010ECCEC17F08398C3
:023108001200B3
:020000040020DA
:08000000FFFFFFFFFFFFFFFF00
:020000040030CA
:0E000000000C191EFF8080FF0FC00FE00F40A4
:00000001FF
