:0400000067EF00F0B6
:10000800FACF40F0FBCF41F0E9CF42F069ED00F0C4
:10001800D8CF2FF0E8CF30F0E0CF31F0FACF32F080
:10002800FBCF33F0E9CF34F0EACF35F0E1CF36F04B
:10003800E2CF37F0D9CF38F0DACF39F0F3CF3AF052
:10004800F4CF3BF0F6CF3CF0F7CF3DF0F8CF3EF0E1
:10005800F5CF3FF09DBA9EAA13D09E9A2950010D64
:10006800600EF324D96E000EF420DA6EAECFDFFFF7
:10007800292A0D0EAE18D8A403D0000E296E00D080
:100088003FC0F5FF3EC0F8FF3DC0F7FF3CC0F6FF9C
:100098003BC0F4FF3AC0F3FF39C0DAFF38C0D9FFDC
:1000A80037C0E2FF36C0E1FF35C0EAFF34C0E9FFE0
:1000B80033C0FBFF32C0FAFF31C0E0FF30C0E8FFB9
:1000C8002FC0D8FF100067EF01F00600EACF43F019
:1000D800E1CF44F0E2CF45F0D9CF46F0DACF47F090
:1000E800F3CF48F0F4CF49F0F6CF4AF0F7CF4BF012
:1000F800F8CF4CF0F5CF4DF0F2BAF2A441D03C0E57
:10010800D66EF2944E9080B84E804E9282B44E8253
:100118009568010E846E00F000F000F083CF2BF09C
:10012800030E846E00F000F000F083CF2AF0040E76
:10013800846E00F000F000F083CF2CF0020E846E85
:1001480000F0000E956E00F000F000F02EC083FF66
:1001580000F0050E846E00F000F000F02DC083FF63
:1001680000F0000E846E00F095684EA402D08184E1
:1001780001D081944EA602D0818801D0819800D008
:100188004DC0F5FF4CC0F8FF4BC0F7FF4AC0F6FF63
:1001980049C0F4FF48C0F3FF47C0DAFF46C0D9FFA3
:1001A80045C0E2FF44C0E1FF43C0EAFF42C0E9FFA7
:1001B80041C0FBFF40C0FAFF1100010E00018B6F28
:1001C80027EC01F0320EBB6E00D0000E00018A6FE2
:1001D800000E896F00018A5117E1320E0001895D16
:1001E800D8B012D001D010D0410E0001886FEE0EA9
:1001F800E82EFED7882FFCD700D00001894B8A2B28
:1002080000018A5101E1E9D74E944EB04E844E96D2
:100218004EB24E864EA002D0818A01D0819A8BC000
:100228002DF02CC02EF000018B518B2500018B6F17
:1002380000018B510001D8A4C8D7010E00018B6FB3
:10024800C4D767EF00F0000EC26E1A0EC16EA50E7D
:10025800C06E070EB46E3F0E926E000E806EC30E17
:10026800936E000E816E9468000E826E9568000E83
:10027800836E000E966E000E846E020EB06E080E2F
:10028800AF6EB886AC84AC8AAB8EAB889F9A9D9AC9
:10029800C280C60ED56E3C0ED66EF184F28A640E0C
:1002A800CB6E1F0EBB6E040ECA6E0F0EBA6EF90E21
:1002B800B16EA082A292050EBD6E9F949D84D08ED1
:1002C800F28EF29C120000EE60F0280EEE6AE8064C
:1002D800FDE14E6A00EE01F02E0EEE6AE806FDE141
:0602E8000001E1EF00F04F
:020000040020DA
:08000000FFFFFFFFFFFFFFFF00
:020000040030CA
:0E000000000C191EFF8080FF0FC00FE00F40A4
:00000001FF
