:040000000CEF00F011
:10000800FACF4BF0FBCF4CF0E9CF4DF086ED10F076
:0400180018EF11F0DC
:1008000000C6084C088008090809024300020100DC
:10081000C032090400000102020100052400100199
:100820000424020205240600010524010001070535
:10083000810308000209040100020A000000070504
:1008400002024000000705820240000034034D0010
:100850006900630072006F00630068006900700047
:10086000200054006500630068006E006F006C009B
:100870006F0067007900200049006E0063002E00C1
:1008800034034300440043002000520053002D0075
:10089000320033003200200045006D0075006C000E
:1008A0006100740069006F006E0020004400650064
:1008B0006D006F001201000202000008D8040A0057
:1008C00000010102000104030904000004013205D3
:1008D000D8A411D0040130511F0B0009D8A40BD0AB
:1008E000268E030E04013119D8A402D0010E01D0C6
:1008F000000E166E00D004013251D8A42FD104018D
:1009000030511F0B020AD8A429D1040134510F0B16
:100910000009D8B423D1040134510F0B416E030EEA
:1009200041601CD1200E1B18D8A418D1268E0401BA
:1009300034BF1BD0040134510F0B416E4150020DE6
:100940006A0EF324D96E000EF420DA6EDECF45F085
:10095000DDCF46F0040134510F0B416E4150010DC3
:100960007B0EF324D96E000E1AD0040134510F0B04
:10097000416E4150020D090EF324D96E000EF42091
:10098000DA6EDECF45F0DDCF46F0040134510F0BB7
:10099000416E4150010D780EF324D96E000EF42003
:1009A000DA6EDF50446E00D044B002D0459402D0DD
:1009B000458400D0040134BF0BD0040134510F0B27
:1009C000416E4150020D6A0EF324D96E000E0AD01A
:1009D000040134510F0B416E4150020D090EF324F6
:1009E000D96E000EF420DA6E45C0DEFF46C0DDFF92
:1009F00000D0030E04013119D8A430D045C0D9FF6E
:100A000046C0DAFFDFAE1DD0040134BF0BD00401B5
:100A100034510F0B416E4150010D7B0EF324D96E02
:100A2000000E0AD0040134510F0B416E4150010DEC
:100A3000780EF324D96E000EF420DA6E0001DF8206
:100A400000D045C0D9FF46C0DAFF000EDB8445C0A8
:100A5000D9FF46C0DAFF000EDB8E80D0040E451AA7
:100A600045C0D9FF46C0DAFFDFAE1BD045C0D9FF75
:100A700046C0DAFF7F0EDF1645C0D9FF46C0DAFF59
:100A8000000EDB8C000E3A6E050E396E45C03BF051
:100A900046C03CF0000E3E6E020E3D6E13EC10F0B0
:100AA00007D045C0D9FF46C0DAFF000EDB8C00D06E
:100AB000040E451A44B206D045C0D9FF46C0DAFF3D
:100AC000DFAE32D0040134BF0BD0040134510F0B20
:100AD000416E4150010D7B0EF324D96E000E0AD0F9
:100AE000040134510F0B416E4150010D780EF32477
:100AF000D96E000EF420DA6E0001DF9200D045C0FE
:100B0000D9FF46C0DAFF3B0EDF16000E3A6E050E27
:100B1000396E45C03BF046C03CF0000E3E6E020E02
:100B20003D6E13EC10F007D045C0D9FF46C0DAFF88
:100B30003B0EDF1600D0040134510F0B416E4150C3
:100B4000010D700EF324426E0F0EF420436E42C06E
:100B5000D9FF43C0DAFFFE0EDF1600D01200A09AC4
:100B60000001845100018511D8B413D084C0D9FF8D
:100B700085C0DAFF0001DFAE04D00001F86BF82B6E
:100B800002D00001F86B0001F8510001F96FFA6B17
:100B900006D0000E0001FA6F000EF96F00D00001C0
:100BA000F9510001FA11D8A4A3D0030E00018D1948
:100BB000D8A403D0000E00018D6F00018D51D8B470
:100BC00097D0020E00018D19D8A417D0010E000194
:100BD000F16F000E0001F26F000E0001F36F000EC6
:100BE0000001F46F020E0AEC0BF0F1C084F0F2C0C9
:100BF00085F0030E00018D6F7BD000018D05D8A418
:100C000077D0400E00018E6504D0400E0001FC6FCD
:100C100003D08EC0FCF000D00001FC5100080001A0
:100C20008E2500018E6F000E00017E6F050E000103
:100C30007F6FFCC0FBF000018B51D8B415D02FD0D2
:100C400013D081C0D9FF82C0DAFF7EC0E1FF7FC030
:100C5000E2FFDFCFE7FF00017E4B7F2B0001814BDE
:100C6000822B0001FB0700D00001FB510001D8B42A
:100C70001DD0E7D71BD013D081C0D9FF82C0DAFFC7
:100C80007EC0E1FF7FC0E2FFDFCFE7FF00017E4BC8
:100C90007F2B0001814B822B0001FB0700D000015C
:100CA000FB510001D8B402D0E7D700D000018E512B
:100CB000D8A40BD0400E0001FC19D8A402D0020E1B
:100CC00001D0030E00018D6F00D0010E0001F16F05
:100CD000000E0001F26F050E0001F36FFCC0F4F08E
:100CE000020E0AEC0BF0F1C084F0F2C085F000D0E7
:100CF000A08A1200A09A000E6A6E000E686E000EA6
:100D0000706E710E0001F16F0F0E0001F26F000E98
:100D10000001F46F000EF36F000E0001F66F020E7B
:100D2000F56FD7EC11F0160E6F6E9F0E6B6E7B0E8B
:100D3000696E000E0001F96F10D013D00001F95157
:100D4000040D000EF324D96E040EF420DA6EDE6A70
:100D5000DE6ADE6ADD6A0001F92B0B0E0001F9651F
:100D6000EDD76D8C000E6E6E6D986D9C00D0689600
:100D7000000E266E000E046E000E066E000E056E4E
:100D800068B6F5D7010E1C6E010E1D6E000E186EB2
:100D9000000E196E000E176E000E0001F96F020EA4
:100DA0000001F96501D033D00001F951020D090E9F
:100DB000F324D96E000EF420DA6E000EDE6E000E03
:100DC000DD6E0001F951020D6A0EF324D96E000E9A
:100DD000F420DA6E000EDE6E000EDD6E0001F951B9
:100DE000010D780EF324D96E000EF420DA6E000E99
:100DF000DF6E0001F951010D7B0EF324D96E000E58
:100E0000F420DA6E000EDF6E0001F92BC8D7080E51
:100E1000096E040E0A6E160E706E040E0401036F46
:100E2000300E026F080E0401016F040E0401006F02
:100E30000401008F000E2B6E000E0001746F000E77
:100E4000756F000E766F000E776F000E1F6E000E2E
:100E50001B6E12001B04D8B46DBA07D0000E686E6A
:100E600069806988020E1B6E00D068B469A404D042
:100E700068940DEC12F000D06DB28CD068B069A00F
:100E800007D0CCEC07F0A08A040E1B6E689000D04F
:100E900068B869A803D06FEC12F000D068AC1FD01E
:100EA00069AC0FD0000E3A6E730E396E000E3B6EB9
:100EB000000E3C6E000E3E6E010E3D6E13EC10F007
:100EC00000D0689CD7EC12F01E50D8B402D01E0699
:100ED00000D01E50D8A403D02DEC0DF000D068BA7D
:100EE00069AA03D03FEC11F000D068B269A210D01B
:100EF0007F0E3A6E3968000E3B6E000E3C6E000E9F
:100F00003E6E010E3D6E13EC10F0000E6A6E00D0C6
:100F1000040E1B6001D03ED069A63CD0000E4A6E84
:100F2000030E4A6401D036D068A634D06CCF2CF0C2
:100F30002C30E832E8320F0B216E68962CB407D0C3
:100F40002150010D7B0EF324D96E000E06D02150E6
:100F5000010D780EF324D96E000EF420DA6E000134
:100F6000DF7000D02150D8A403D0C5EC0CF010D015
:100F7000000E3A6E720E396E2C0E3B6E000E3C6EF9
:100F8000000E3E6E000E3D6E13EC10F001D002D04C
:100F90004A2AC6D7A19A1200A09A000E6A6E000EC5
:100FA000686E000E706E710E2D6E0F0E2E6E000E9E
:100FB000306E000E2F6E000E326E020E316E58EC47
:100FC00012F0160E6F6E9F0E6B6E7B0E696E000E2A
:100FD000356E0ED010D03550040D000EF324D96EAE
:100FE000040EF420DA6EDE6ADE6ADE6ADD6A352A15
:100FF0000B0E3564F0D76D8C000E6E6E6D986D9C87
:1010000000D06896000E266E000E046E000E066E6E
:10101000000E056E68B6F5D7010E1C6E010E1D6E32
:10102000000E186E000E196E000E176E000E356E53
:10103000020E356401D02ED03550020D090EF32476
:10104000D96E000EF420DA6E000EDE6E000EDD6E3C
:101050003550020D6A0EF324D96E000EF420DA6EBC
:10106000000EDE6E000EDD6E3550010D780EF3249D
:10107000D96E000EF420DA6E000EDF6E3550010DD1
:101080007B0EF324D96E000EF420DA6E000EDF6EB4
:10109000352ACED7080E096E040E0A6E160E706E33
:1010A000040E0401036F300E026F080E0401016F7D
:1010B000040E0401006F0401008F000E2B6E000E61
:1010C0000001746F000E756F000E766F000E776F63
:1010D000000E1F6E000E1B6E1200800E04013019F0
:1010E000D8A48CD0C00E266E7CD0B40E236E080E11
:1010F000246E000E286E120E276E80D0040132512D
:10110000D8A43ED004013251020D070EF324F66E2E
:10111000080EF420F76E0900F5CF23F00A00F5CF92
:1011200024F0020E23242D6E000E24202E6E2DC0DE
:10113000F6FF2EC0F7FFF86A070EF76403D0080029
:10114000F55005D0F6CFE9FFF7CFEAFFEF50276E55
:10115000030E23242D6E000E24202E6E2DC0F6FFCC
:101160002EC0F7FFF86A070EF76403D00800F550A9
:1011700005D0F6CFE9FFF7CFEAFFEF50286E3ED05B
:10118000000E266E3BD0030E0401326124D0040110
:101190003251020D010EF324F66E080EF420F76EA4
:1011A0000900F5CF23F00A00F5CF24F023C0F6FFA5
:1011B00024C0F7FFF86A070EF76403D00800F55063
:1011C00005D0F6CFE9FFF7CFEAFFEF502D6E2D5097
:1011D000276E286A13D0000E266E10D0000E266EE1
:1011E0000DD004013351010AD8B47FD7030AD8B413
:1011F00085D7010AD8B4C7D7F1D700D01200010EA5
:10120000F2EC11F0E806D8A414D000018A51D8A459
:1012100013D000018D51D8A40FD0DF0E0001F16F63
:10122000000E0001F26FEBEC10F0010E00018A6F6E
:1012300003D0000E00018A6F00018D51D8A46BD03D
:10124000900E0001F86F000E0001F96F400E0001D2
:10125000FA6F90EC0AF00101406F000E0101416F3E
:1012600044D02FD000D001014151010D900EF32444
:10127000D96E000EF420DA6E01014151010D000E0D
:10128000F324E16E010EF420E26EDFCFE7FF2AD0F7
:1012900001014151010D000EF324D96E010EF4201D
:1012A000DA6E01014151010D900EF324E16E000E42
:1012B000F420E26EE7500001FE6F0001FE29DF6EB0
:1012C00011D001014151010D900EF324D96E000E91
:1012D000F420DA6EDF500A0AD8B4C5D7070AD8B4AA
:1012E000C2D7D6D70101412B00D0010140510101E5
:1012F000415DD8A0E6D7010140510101D8B40BD01F
:10130000000E0001F16F010E0001F26F40C1F3F019
:10131000C3EC12F000D0AFEC05F0120020EE01F0AB
:101320001150D9261250DA22DF502E6E2E50055C55
:10133000000E0658D8B003D005C02EF000D02E50B5
:10134000055E000E065A000E2D6E12D02D50010DB6
:10135000380EF324D96E040EF420DA6E01C0E1FFDA
:1013600002C0E2FFDFCFE7FF014A022A2D2A00D0A8
:101370002E502D5CD8A0EAD705500610D8B42DD039
:1013800020EE01F01350D9261450DA22080EDF6E39
:1013900020EE02F01350D9261450DA22380EDE6EF9
:1013A000040EDD6E11C0D9FF12C0DAFFDFBC0DD014
:1013B00013C0D9FF14C0DAFF480E0CD013C0D9FFF8
:1013C00014C0DAFF000EDB8E2DD013C0D9FF14C07D
:1013D000DAFF080EDF6EF2D725D020EE01F01350B1
:1013E000D9261450DA22080EDF6E20EE02F01350D8
:1013F000D9261450DA22300EDE6E040EDD6E13C0D4
:10140000D9FF14C0DAFF040EDF6E13C0D9FF14C079
:10141000DAFF000EDB8E049E1A50D8A403D02DEC08
:101420000DF000D012006D9826BE3AD004AE0DD05B
:10143000020E206E1950D8A403D0F9EC0EF000D0A3
:10144000000E1D6E000E1C6E6AD020EE01F01350CF
:10145000D9261450DA22080EDF6E20EE02F0135067
:10146000D9261450DA22300EDE6E040EDD6E13C063
:10147000D9FF14C0DAFF0C0EDF6E13C0D9FF14C001
:10148000DAFF000EDB8E09C0D9FF0AC0DAFF040EB6
:10149000DF6E09C0D9FF0AC0DAFF000EDB8E3FD035
:1014A000040130AF12D0010E206E1850D8A403D022
:1014B000F9EC0EF000D0000E1D6E000E1C6E1A50DE
:1014C000D8A42DD02DEC0DF02AD0020E206E20EEE7
:1014D00001F01350D9261450DA22080EDF6E20EEE8
:1014E00002F01350D9261450DA22300EDE6E040EAC
:1014F000DD6E13C0D9FF14C0DAFF040EDF6E13C017
:10150000D9FF14C0DAFF000EDB8E000E1D6E000E38
:101510001C6E1A50D8A403D02DEC0DF000D0120090
:10152000000E00018C6F0001865100018711D8B4B4
:1015300013D086C0D9FF87C0DAFF0001DFAE04D028
:101540000001FB6BFB2B02D00001FB6B0001FB5188
:101550000001FC6FFD6B06D0000E0001FD6F000E58
:10156000FC6F00D00001FC510001FD11D8A44ED049
:10157000000120EE01F08651D9268751DA220001C0
:10158000FA51DE5CD8B00BD0000120EE01F086519C
:10159000D9268751DA22DF500001FA6F00D0000E01
:1015A00000018C6F19D000018C51010D400EF32405
:1015B000D96E050EF420DA6E00018C51010DF35046
:1015C0000001F825E16EF4500001F921E26EDFCF51
:1015D000E7FF00018C2B00D00001FA5100018C5D67
:1015E000D8A0E1D7000E0001F16F400E0001F26FAC
:1015F000050E0001F36F400E0001F46F020E0AECBD
:101600000BF0F1C086F0F2C087F000D000018C51E1
:1016100000D012000001F56F0001F1510001D8B4B3
:1016200008D00001F551020D090EF324D96E000E09
:1016300007D00001F551020D6A0EF324D96E000E99
:10164000F420DA6EDECFF6F0DDCFF7F000D0000147
:10165000F6510001F711D8A407D0000E0001F16F78
:10166000000E0001F26F44D0000120EE02F0F651AE
:10167000D926F751DA22F2C0DEFFF3C0DDFF000108
:1016800020EE01F0F651D926F751DA22F4C0DFFF3F
:10169000F6C0D9FFF7C0DAFF400EDF16F6C0D9FF5B
:1016A000F7C0DAFF000EDB86F6C0D9FFF7C0DAFF1D
:1016B000000EDB8E0001F1510001D8B408D000010A
:1016C000F551020D090EF324D96E000E07D000016A
:1016D000F551020D6A0EF324D96E000EF420DA6E75
:1016E000040EDF1A00D0F6C0F1F0F7C0F2F000D01F
:1016F000120004013039E832030B0009D8A467D086
:1017000044D065D042D0268E080E1B6E60D06DECA2
:1017100008F05DD057EC0CF05AD02B0E236E000E63
:1017200013D0268013D0268E52D0EFEC0DF04FD080
:1017300000D066EC04F04BD004013451010D290EA9
:10174000F324236E000EF420246EEBD7010E276ED7
:10175000EAD7268E04013451010D290EF324D96EE7
:10176000000EF420DA6E32C4DFFF31D0000E3A6E84
:10177000020E396E000E3B6E000E3C6E000E3E6E89
:10178000000E3D6E13EC10F022D004013151000A1E
:10179000D8B4CBD7010AD8B4CCD7020AD8B4C9D7A9
:1017A000060AD8B4B0D7030AD8B4B1D7010AD8B45E
:1017B000DDD70F0AD8B4B1D7010AD8B4ABD7030A22
:1017C000D8B4BAD7010AD8B4C4D7070A00D01200D7
:1017D000080E2D6E285011E1080E275CD8B00DD0F0
:1017E00027C02DF02250D8A402D0010E04D022042C
:1017F000D8A403D0020E226E00D02D50275E000E1A
:10180000285A20EE01F00950D9260A50DA222DC0BC
:10181000DFFF380E0001886F040E0001896F26A0DB
:101820001ED03FD01CD023C0F6FF24C0F7FFF86ABB
:1018300088C0D9FF89C0DAFF070EF76403D008001B
:10184000F55005D0F6CFE9FFF7CFEAFFEF50DF6E96
:10185000234A242A0001884B892B2D0600D02D50C5
:10186000D8B424D0E0D722D01CD023C0F6FF24C0A7
:10187000F7FFF86A88C0D9FF89C0DAFF070EF7645E
:1018800003D00800F55005D0F6CFE9FFF7CFEAFF07
:10189000EF50DF6E234A242A0001884B892B2D0646
:1018A00000D02D50D8B402D0E0D700D01200268E40
:1018B000710E2D6E0F0E2E6E000E306E000E2F6EFE
:1018C000000E326E020E316E58EC12F0000E2D6ECC
:1018D000040E2E6E000E306E000E2F6E000E326E55
:1018E000300E316E58EC12F06D8C000E416E020E0F
:1018F000416401D016D04150010D780EF324D96E09
:10190000000EF420DA6E000EDF6E4150010D7B0EEA
:10191000F324D96E000EF420DA6E000EDF6E412A39
:10192000E6D7290E2D6E000E2E6E000E306E000EC4
:101930002F6E000E326E020E316E58EC12F06D9C5E
:10194000080E096E040E0A6E000E116E040E126E61
:1019500011C013F012C014F032C42BF02B50D8A4D5
:1019600002D0100E0FD0000E3A6E010E396E2B0E03
:101970003B6E000E3C6E000E3E6E010E3D6E13EC93
:1019800010F0200E1B6E00D012002D0E1E6E2CC00B
:1019900047F0FD0E4716D8A457D02CC047F0D8907A
:1019A00047323F0E47164750040D000EF324116EC8
:1019B000040EF420126E11C013F012C014F0040EC5
:1019C000131A11C0D9FF12C0DAFFDF30E8320F0B53
:1019D0000D0AD8A436D0000E496E070E496401D016
:1019E00023D020EE02F01150D9261250DA22DECF99
:1019F00047F0DDCF48F047C0D9FF48C0DAFF495073
:101A0000010D300EF324E16E040EF420E26EDFCF00
:101A1000E7FF20EE02F01150D9261250DA22DE2A1A
:101A2000000EDD22492AD9D720EE02F01150D92626
:101A30001250DA22300EDE6E040EDD6ED2EC0FF0A4
:101A40000BD0BCEC10F008D02C50FD0B040AD8A42D
:101A500003D0A5EC0EF000D012001C50D8A45ED02C
:101A6000010E1C6E1D50D8A459D0010E1D6E020E21
:101A70002018D8A415D020EE01F00950D9260A501C
:101A8000DA22000EDF6E09C0D9FF0AC0DAFF480E65
:101A9000DF6E09C0D9FF0AC0DAFF000EDB8E3ED030
:101AA0002004D8A43BD0000E156E20EE01F011509A
:101AB000D9261250DA22080EDF6E20EE02F0115005
:101AC000D9261250DA22300EDE6E040EDD6E11C001
:101AD000D9FF12C0DAFF040EDF6E11C0D9FF12C0A9
:101AE000DAFF000EDB8E010E156E20EE01F01350B2
:101AF000D9261450DA22080EDF6E20EE02F01350C1
:101B0000D9261450DA22300EDE6E040EDD6E13C0BC
:101B1000D9FF14C0DAFF800EDF6E00D01200316EE4
:101B20002D50D8B407D03150020D090EF324D96ED0
:101B3000000E06D03150020D6A0EF324D96E000E4D
:101B4000F420DA6EDECF32F0DDCF33F000D0325049
:101B50003310D8A405D0000E2D6E000E2E6E3ED090
:101B600020EE02F03250D9263350DA222EC0DEFFAA
:101B70002FC0DDFF20EE01F03250D9263350DA229B
:101B800030C0DFFF32C0D9FF33C0DAFF400EDF16AE
:101B900032C0D9FF33C0DAFF000EDB8632C0D9FF76
:101BA00033C0DAFF000EDB8E2D50D8B407D0315091
:101BB000020D090EF324D96E000E06D03150020D2D
:101BC0006A0EF324D96E000EF420DA6E040EDF1ACA
:101BD00000D032C02DF033C02EF000D01200000E25
:101BE0000401386F000E0401396F3DD0268E03D0FA
:101BF0000401388100D01604D8A441D004013883F0
:101C00003ED0268E3CD0268E040134BF0BD004017A
:101C100034510F0B2D6E2D50020D6A0EF324D96E28
:101C2000000E0AD0040134510F0B2D6E2D50020D01
:101C3000090EF324D96E000EF420DA6EDECF2EF0FA
:101C4000DDCF2FF000D02EC0D9FF2FC0DAFFDFAEDE
:101C500016D02EC0D9FF2FC0DAFFDFA410D0010E9E
:101C60000401386F0CD0040130511F0B000AD8B4A6
:101C7000BDD7010AD8B4C5D7030AD8B4C4D726AE95
:101C800008D0380E236E040E246E2680020E276EB6
:101C900000D01200040130511F0BE806D8A454D024
:101CA00001D052D004013039E832030BE806D8A441
:101CB0004BD001D049D004013451D8B433D0040101
:101CC0003405D8A441D02ED03FD02CD0D00E236ED6
:101CD000000E246E000E286E080E276E268020D07F
:101CE000D00E236E000E246E1BD036C405F037C410
:101CF00006F0D80E016E000E026E000E076E000E8A
:101D0000086E048E21D0D80E236E000E246E000EB5
:101D1000286E070E276EC10E266E16D032C48FF0C5
:101D2000268E12D004013151000AD8B4CFD7010A4F
:101D3000D8B4D6D7210AD8B4D8D7010AD8B4E3D7B3
:101D4000030AD8B4EBD700D0120009C0D9FF0AC0EB
:101D5000DAFF000EDFBC010E2E6E040E091A080E0B
:101D60001B18D8A40CD0040132517F0B6E6E6E503C
:101D7000D8B402D0100E01D0040E1B6E00D0200487
:101D8000D8A42FD020EE02F00950D9260A50DA222A
:101D9000380EDE6E040EDD6EE8EC0BF0020E22183B
:101DA000D8A40DD009C0D9FF0AC0DAFF040E16D09E
:101DB00009C0D9FF0AC0DAFF000EDB8E19D02E5001
:101DC000D8A407D009C0D9FF0AC0DAFF480E06D050
:101DD000EFD709C0D9FF0AC0DAFF080EDF6EE8D7D7
:101DE00007D004AE02D0049E00D0000E206E00D0BA
:101DF0001200000E186E000E196E020E2018D8A4E4
:101E00001DD020EE01F01350D9261450DA22080E0E
:101E1000DF6E20EE02F01350D9261450DA22380E6D
:101E2000DE6E040EDD6E13C0D9FF14C0DAFF480E5B
:101E3000DF6E13C0D9FF14C0DAFF23D0275004018E
:101E4000365D285004013759D8B005D036C427F084
:101E500037C428F000D0E8EC0BF020EE02F0095077
:101E6000D9260A50DA22380EDE6E040EDD6E09C065
:101E7000D9FF0AC0DAFF480EDF6E09C0D9FF0AC0D9
:101E8000DAFF000EDB8E00D01200326E000E336ED1
:101E9000040E346E2D502E6E2F6AD8902E362F36AB
:101EA0003250306E316AD89030363136D890303674
:101EB00031362E5030262F503122D89030363136E0
:101EC000D89030363136305033263150342233C03A
:101ED000D9FF34C0DAFFDF9E2D50D8A407D032508E
:101EE000020D6A0EF324D96E000E06D03250020D98
:101EF000090EF324D96E000EF420DA6E33C0DEFF33
:101F000034C0DDFF00D033C0D9FF34C0DAFFDF9C1E
:101F100020EE04F03350D9263450DA22DF8C120040
:101F20006DA238D0010EBBEC11F03BD033D00F04C2
:101F30001010D8A404D0010E9FEC11F030D04B0E3D
:101F40000F181010D8A404D0010EBBEC11F027D04C
:101F5000105004E1970E0F5CD8A021D0000E106E37
:101F6000000E0F6E1CD00F041010D8A404D0010E68
:101F70009FEC11F014D0320E0F181010D8A404D01A
:101F8000010EBBEC11F00BD0B70E0F5C030E105816
:101F9000E3D705D01B50200AD8B4C9D7E4D70F4ADD
:101FA000102A1200000E226E000E1A6E000E186E1D
:101FB000000E196E000E156E000E206E09C0D9FFBE
:101FC0000AC0DAFF7F0EDF16040E091A09C0D9FF16
:101FD0000AC0DAFF7F0EDF16040E091A13C0D9FFFC
:101FE00014C0DAFF7F0EDF16000E266E000E286E7C
:101FF000000E276E000E046E000E066E000E056EBB
:1020000079EC0BF0000E3A6E030E396E000E3B6E4B
:10201000000E3C6E000E3E6E000E3D6E13EC10F096
:1020200013EC0AF0120010D038D090EC0FF035D03D
:1020300090EC0FF032D090EC0FF02FD040EC12F07B
:102040002CD04AEC0EF029D039C03FF03AC040F015
:102050004050000AD8B404D07F0AD8B41BD01DD099
:102060003F50010AD8B4EAD7030AD8B416D0010AFF
:10207000D8B4E7D7060AD8B410D0770AD8B40DD0B0
:10208000010AD8B4D2D7070AD8B4D5D7010AD8B430
:10209000CFD703D03F50FF0A00D01200000E00013E
:1020A000D86F4B0ED96F000EDA6F000EDB6F000E8B
:1020B0000001DC6F000E0001DD6F080E0001DE6F15
:1020C000000E00018C6F1A0E356E010E61EC11F0DE
:1020D0001E0E356E020E61EC11F0000E2D6E400EDC
:1020E0002E6E050E2F6E400E306E020E8FEC0DF030
:1020F0002DC086F02EC087F0000E0001846F000E08
:102100000001856F000E00018D6F12000600EACFFE
:102110004EF0E1CF4FF0E2CF50F0D9CF51F0DACF0F
:1021200052F0F3CF53F0F4CF54F0F6CF55F0F7CF91
:1021300056F0F8CF57F0F5CF58F02AEC07F058C01A
:10214000F5FF57C0F8FF56C0F7FF55C0F6FF54C063
:10215000F4FF53C0F3FF52C0DAFF51C0D9FF50C0A3
:10216000E2FF4FC0E1FF4EC0EAFF4DC0E9FF4CC0A7
:10217000FBFF4BC0FAFF1100020E2018D8A403D0B9
:102180008EEC09F027D0000E206E1550D8A41FD079
:1021900020EE01F01350D9261450DA22080EDF6E1B
:1021A00020EE02F01350D9261450DA22300EDE6EE3
:1021B000040EDD6E13C0D9FF14C0DAFF0C0EDF6E03
:1021C00013C0D9FF14C0DAFF000EDB8E03D0000E5F
:1021D000156E00D01200A09A00018D51D8A426D00F
:1021E000000E0001F56FF1C0F3F0F2C0F4F000D082
:1021F0000001F52B0001F529D8B40CD001D00AD08C
:10220000F3C0D9FFF4C0DAFF0001F34BF42BDF5029
:10221000D8A4EED7F1C081F0F2C082F0F5C08EF004
:10222000000E00018B6F010E00018D6FA08A12005D
:1022300001EE00F0400EEE6AE806FDE100EE60F00F
:102240007F0EEE6AE806FDE100EE01F02C0EEE6A6C
:10225000E806FDE1D00EF66E250EF76E000EF86E64
:1022600000EEDFF010EE12F00900F5CFEEFFE550C2
:10227000E150FAE1000EF86E000185EF12F070A057
:102280001ED011C0D9FF12C0DAFF800EDE18D8A40C
:1022900015D009C0D9FF0AC0DAFF840EDE18D8A411
:1022A0000DD011C0D9FF12C0DAFF0C0EDF6E11C0C5
:1022B000D9FF12C0DAFF000EDB8E00D07090689A52
:1022C0001200386E35A406D0000E2D6E385045EC45
:1022D0000FF000D035A206D0010E2D6E385045EC1F
:1022E0000FF000D03850010D700EF324366E0F0E33
:1022F000F420376E36C0D9FF37C0DAFF35C0DFFFB4
:1023000012000001F16F08D0959018D0959216D068
:10231000959414D0959612D00001F151000AD8B4CA
:102320000DD0010AD8B4F0D7030AD8B4EFD7010A08
:10233000D8B4EED7070AD8B4EDD700D012002D6E6E
:1023400008D08C8017D08C8215D08C8413D08C86CA
:1023500011D02D50000AD8B40DD0010AD8B4F1D74D
:10236000030AD8B4F0D7010AD8B4EFD7070AD8B413
:10237000EED700D012002D6E08D08C9017D08C9222
:1023800015D08C9413D08C9611D02D50000AD8B44F
:102390000DD0010AD8B4F1D7030AD8B4F0D7010A96
:1023A000D8B4EFD7070AD8B4EED700D01200F1C0E6
:1023B000F7F0F2C0F8F00AD0F7C0D9FFF8C0DAFFA2
:1023C000F3C0DFFF0001F74BF82B00D00001F50749
:1023D000D8A0F6070001F529EFE10001F629D8A4FD
:1023E000EBD712000001F16F09D081B813D0010EB4
:1023F00013D081BA0FD0FBD70FD00CD00001F15110
:10240000000AD8B407D0010AD8B4EFD7030AD8B469
:10241000F0D700D0000E00D01200000E176E000E94
:102420003A6E740E396E000E3B6E000E3C6E000E5E
:102430003E6E000E3D6E13EC10F06D92699402D06A
:10244000689400D068B4FCD7000E1F6E12001B50B9
:10245000D8A415D0000E6D6E000E696E160E6F6E4C
:102460009F0E6B6E7B0E696ED08EA28AA08AF28E52
:1024700001D06D866DA6FDD7010E1B6E00D0120037
:102480004EEC10F0000E0001DC6F080E0001DE6F54
:10249000000E0001DD6F800E0001D86F250ED96F90
:1024A000000EDA6F000EDB6F000E00018A6F120063
:1024B0002DC033F02EC034F009D033C0D9FF34C062
:1024C000DAFF2FC0DFFF334A342A00D03106D8A00C
:1024D00032063128F2E13228D8A4EFD712006984FD
:1024E00068986D82010E176E000E1F6E000E3A6E18
:1024F000750E396E000E3B6E000E3C6E000E3E6E89
:10250000000E3D6E13EC10F01200000E9AEC12F06B
:102510007AEC06F027EC12F000D0200E1B6001D000
:10252000FCD76DB2FAD701D0F8D7FFEC08F0F5D799
:102530000CEF00F00001F26F07D0010E81EC11F0FA
:10254000010EAFEC12F00AD00001F251000AD8B42B
:10255000F4D7010AD8B402D0030A00D01200000157
:10256000F16F04D093880ED0938A0CD00001F15102
:10257000000AD8B407D0010AD8B4F4D7030AD8B4F3
:10258000F3D700D01200A09A00018D51D8A40DD02D
:10259000F1C081F0F2C082F0F3C08EF0010E0001B4
:1025A0008B6F010E00018D6F00D0A08A1200010E0A
:1025B00000017427000E7523762377231750D8A4C3
:1025C00006D01F2A1F50D8A402D01F6800D01200C6
:1025D000427574746F6E20707265737365642E0D2E
:0225E0000A00EF
:020000040020DA
:08000000FFFFFFFFFFFFFFFF00
:020000040030CA
:0E000000240E3F1EFF8181FF0FC00FE00F4056
:00000001FF
