:040000008031102813
:10000800803120007F082100E70081315021210044
:1000180067082000FF00090080311228E8308400BA
:100028000030850007308331F8238031A030840008
:10003800013085004B308331F82380313230840021
:10004800023085000A308331F8238031A0308400E3
:100058000230850040308331F8238031203084001D
:100068000330850040308331F8238031E13084004B
:1000780088308500203086000230870012308831B1
:10008800D02020008931062920005203031D602852
:1000980050081F39003A031D60282100EC1703306F
:1000A80020005106031D5E280130E800680823007F
:1000B800C40060282300C40120005208031D080062
:1000C80050081F39023A031D080054080F39003A36
:1000D8000319080054080F39E800033068020318B0
:1000E8000800203023004906031D08002100EC17F2
:1000F8002000D41B8D2854080F39B83E86000130E3
:1001080087000108E8006808ED0054080F39B23E7E
:100118009A2854080F39B53E860001308700010837
:10012800E8006808ED0054080F39AF3E860001303A
:1001380087000108E8006808EC006C18A828FB3064
:10014800E8006808ED05A9286D15D41BB1286D08CD
:10015800E80054080F39B83EB6286D08E80054087E
:100168000F39B53E860001308700680881000330EA
:100178005106031DDA286D0886008701811FD128E2
:10018800D41BCA2854080F39B23ECD2854080F3959
:10019800AF3E86000130870081146D088600870114
:1001A80001156D0886008701811708000430E800F2
:1001B8006808ED066D0886008701811FFE287F30DC
:1001C800E8006D0886008701680881056D088600CB
:1001D800870101170030E3000530E2006D08E400F4
:1001E8000030E5000130E6000030E7008A31EE22F9
:1001F8008031032920006D0886008701011704302B
:100208002000E8006808ED06EC180F296D08860044
:100218008701811F3329D41B152954080F39B23E91
:10022800182954080F39AF3E860001308700811025
:100238003B30E8006D0886008701680881050030BA
:10024800E3000530E2006D08E4000030E50001300D
:10025800E6000030E7008A31EE2280313B293B304E
:100268002000E8006D0886008701680881052000E5
:1002780054080F39983EE800E9010E30E93D680856
:10028800EA006908EB00FE30E8006A0886006B089F
:10029800870068088105080023004903031D6029B9
:1002A8003D008E1A602990011214121602302100A6
:1002B800E40064082300C9003D001019121D6D29CF
:1002C800FB302100E40064083D0090058A313F229C
:1002D80081313D008E1C732920001211080010186E
:1002E800121C862985317C258131210012150430A4
:1002F800E40064082300C900FE302100E40064081B
:100308003D009005101A121E8C298A310022813175
:100318003D00101FB629121FA12973302000E200EA
:100328000030E3000030E4000030E5000130E60072
:100338000030E7008A31EE228131BF302100E4002D
:1003480064083D00900589314B21813123004C0818
:100358000319B0290130CC024C08031DB6298E318F
:10036800BD2681313D00901A921EBD298A315F2237
:1003780081313D009018921CD329FF302000E20003
:100388007F30E3000030E4000030E5000130E60093
:100398000030E7008A31EE2281313D0093010430BC
:1003A800230049020318DB292000121108003D0030
:1003B800921D312A2100E6012A2A0F082100E400B3
:1003C80064082300EA006A0C2100E400E40C640CD1
:1003D8000F39E50065082300D500F7302100E40057
:1003E80064083D00900523006A19FD295508B23EAE
:1003F800002A23005508AF3E860001308700010817
:1004080001392100E4000130E40601086406FE39E0
:100418006406810023005508031D162A83318723AB
:100428008131252A72302000E2000030E300EA30F2
:10043800E4000130E5000030E600E7008A31EE22F2
:10044800813101302100E4006408E60704306602C7
:100458000318312A3D009019E129200012110800E3
:1004680021001211230042080319482A4208860075
:100478008701010D010D01392200E800E901680832
:10048800EA006908EB004B2A2200EA01EB016A083E
:100498006B040319522A21001215080003302300A7
:1004A80051060319D1015108031D5D2A21001215B7
:1004B8000800023023005106031D7A2A2200E001B9
:1004C800E00A0030E1000030E200E30102308C3144
:1004D800932482312200E80068082300C200033018
:1004E8002200E80068082300D100052B5103031DF2
:1004F800052B41305202031C832A4030852A2300F1
:1005080052082200E8006808ED006D03FF3A230056
:1005180052072200E80068082300D200A030220019
:10052800E80068082300BD0022006D08E80068089C
:10053800EC0023004F080319BD2ADD2A23003F08D9
:1005480086004008870001082200E80023003D08D3
:10055800860087012200680881000130E8006808E9
:100568002300BD070130BF070030C03D0130220025
:10057800EC0222006C080319E12AA22A23003F0892
:1005880086004008870001082200E80023003D0893
:10059800860087012200680881000130E8006808A9
:1005A8002300BD070130BF070030C03D01302200E5
:1005B800EC0222006C08031DC22A23005208031D06
:1005C800F22A403022006D06031DEC2A0230EE2A82
:1005D80003302200E80068082300D1002200E0016F
:1005E800E00AA030E1000030E2006D08E800680889
:1005F800E30002308C3193242200E90069082300CB
:10060800C200210012150800803020005006031D8A
:100618000800C030F00070082100EC007A2BB330DD
:100628002100EA008430EB000030EE001230ED00CB
:10063800080020005208031D502B5208F000F10159
:10064800F035F10D0630700784008430713D850067
:10065800003F2100EA00013FEB006B08F1006A0847
:10066800F00002307007840071080318710A8500D1
:100678000008F2007208ED006B08F1006A08F0004B
:1006880003307007840071080318710A8500000898
:10069800F2007208EE0008002100EC0108000330A7
:1006A800200052020318742B5208F000F101F035B3
:1006B800F10D0030700784008430713D8500003FE3
:1006C8002100EA00013FEB006A0884006B088500FE
:1006D8000008F000F1017008ED007108EE00080054
:1006E8002100EC0108002100EC010800200053085B
:1006F800013A0319132B033A03191D2B013A031965
:10070800532B772B08002D302100E00060082300D0
:10071800CC006A08FD39031DEC2B6A363F392100ED
:10072800E0000130E035FF3E031D962B6035203E8A
:10073800E1006108E8006808E0006008E9000430AA
:10074800E0006008E906680886008701010C890C4A
:100758000F390D3A031DE92BE30108306302031832
:10076800DA2B6808023E86008701403FE000413FDF
:10077800E10060088600610887000108E20063085C
:10078800503E86008701620881006808023E8600A4
:1007980087010130810741310318810A0130E000E7
:1007A8006008E30708306302031CB52B5030E000F3
:1007B8000030E1006808023E860087016008C03FFB
:1007C8006108C13F8C31472408008A31852208001E
:1007D800FD3023006A052100E00004306006031D97
:1007E80008008E3159260800640080010131890B08
:0407F800F92B0034A5
:10080000C53484344B3484347F34843408348434A1
:100810000934023443340034023401340034C03427
:1008200032340934043400340034013402340234E4
:1008300001340034053424340034103401340434D9
:1008400024340234023405342434063400340134B0
:100850000534243401340034013407340534813440
:1008600003340834003402340934043401340034CD
:1008700002340A34003400340034073405340234BE
:1008800002344034003400340734053482340234F6
:10089000403400340034343403344D34003469348B
:1008A000003463340034723400346F340034633401
:1008B0000034683400346934003470340034203437
:1008C0000034543400346534003463340034683404
:1008D00000346E3400346F3400346C3400346F34C0
:1008E000003467340034793400342034003449341F
:1008F00000346E340034633400342E340034343425
:10090000033443340034443400344334003420345A
:10091000003452340034533400342D340034323433
:10092000003433340034323400342034003445345D
:1009300000346D340034753400346C340034613468
:10094000003474340034693400346F3400346E344D
:1009500000342034003444340034653400346D34C1
:1009600000346F3400341234013400340234023461
:10097000003400340834D83404340A3400340034E9
:1009800001340134023400340134043403340934B2
:100990000434210012113D009301900198010E30A2
:1009A0002200E2009930E100E30102306302031803
:1009B000EA2C610886006208870081010130E107A6
:1009C0000030E23D0130E0006008E30702306302DE
:1009D000031CD92C16303D0091009F3097007B30CE
:1009E00092002200E4010C3064020318102D640808
:1009F000E0000130E035FF3E031DFA2C6035203E5B
:100A0000860087010030C03F0030C13FC23FC33F76
:100A10000130E0006008E4070C306402031CF72C8E
:100A20003D000E1796010E120E13F7302200E00063
:100A300060083D0090052100EC012300A201A30104
:100A4000A4013D009019152D01302200E00060083E
:100A50002300CA0001302200E00060082300CB0020
:100A6000C601C701C5012200E40103306402031876
:100A7000592D6408B53E8600013087008101640865
:100A8000B83E86000130870081016408AF3E8600D1
:100A90000130870081016408B23E86000130870082
:100AA00081010130E0006008E40703306402031CA8
:100AB000392D2830E00060082300B50016303D00D5
:100AC000980000302000A3005030A2000830A100A0
:100AD00004302200E00060082000A000A0172300DE
:100AE000E9010030AE000030AD000030AC00003055
:100AF000AB00CD01C9010800210012113D00930196
:100B0000900198010E30F2009930F100F3010230AB
:100B1000730203189C2D71088600720887008101FA
:100B20000130F1070030F23D0130F0007008F307AA
:100B300002307302031C8B2D16303D0091009F3054
:100B400097007B309200F4010C3074020318C12D21
:100B50007408F0000130F035FF3E031DAB2D7035F9
:100B6000203E860087010030C03F0030C13FC23FB9
:100B7000C33F0130F0007008F4070C307402031C0E
:100B8000A82D3D000E1796010E120E13F730F0003F
:100B9000700890052100EC012300A201A301A4012B
:100BA0003D009019C62D0130F00070082300CA00E6
:100BB0000130F0007008CB00C601C701C501F40187
:100BC000033074020318042E7408B53E8600013009
:100BD000870081017408B83E8600013087008101DA
:100BE0007408AF3E86000130870081017408B23E70
:100BF00086000130870081010130F0007008F407A1
:100C000003307402031CE42D2830F0007008230028
:100C1000B50016303D00980000302000A300503091
:100C2000A2000830A1000430F0007008A000A01756
:100C30002300E9010030AE000030AD000030AC0010
:100C40000030AB00CD01C901080021006808860012
:100C50008701413FF5007508F200F3017308230096
:100C60002402031D352E7208230203183B2E23088D
:100C7000F2007208F5007508F200F3017208A30291
:100C80007308A43BF4017508740203185C2E740801
:100C9000583E860087010108F200200886000130D6
:100CA0008700720881000130F2007208A00701304D
:100CB000F2007208F407432E230824040319912E2E
:100CC0000830F2002100690A86008701720881005D
:100CD0005830F2000030F3006908023E86008701B8
:100CE0007208C03F7308C13F680886008701011B76
:100CF000852E4830F200690886008701720881005D
:100D0000690886008701811708000830F200690829
:100D100086008701720881006908860087018117B3
:100D200008000830F2002100690A86008701720875
:100D300081005030F2000030F3006908023E860066
:100D400087017208C03F7308C13F0430F200690890
:100D50008600870172088100690886008701811773
:100D6000230025082608A2134808031D08008E3119
:100D7000BD2608002100EC170E302000EA00993053
:100D8000E900EB0102306B020318D72E69088600D8
:100D90006A08870081010130E9070030EA3D01302F
:100DA000E8006808EB0702306B02031CC62E2030F7
:100DB000F0000030F1000030F200F3003030F400B9
:100DC0000030F5008931332186313D000E172000B7
:100DD000EC0103306C020318012F6C08AF3E860053
:100DE0000130870081016C08B23E86000130870027
:100DF00081010130E8006808EC0703306C02031C35
:100E0000ED2EE730F0000130F1000030F200F30089
:100E10000230F4000030F5008931332186313D0085
:100E20000E1328302000E80068082300B5002030A9
:100E30002000E80068082100E80068082000E800B9
:100E400068082100E90020005208E8006808230033
:100E5000E9006908031D332F10302000E8006808FE
:100E60002300C900080000302000E3000130E20048
:100E7000E930E4000130E5000130E6000030E70031
:100E80008A31EE2220302000E80068082300C900E3
:100E900008003D000E122100EC1B8A2F2300A21F28
:100EA0005E2F0230F5007508D3004708031D5A2F46
:100EB0008C31E0242300CB01CA0108000830F50082
:100EC0002100690A86008701750881005030F5000D
:100ED0000030F6006908023E860087017508C03FB1
:100EE0007608C13F0C30F500690886008701750857
:100EF000810069088600870181170430F50023000E
:100F0000350886008701750881003508860087014D
:100F1000811708002000D01FA12F0130F5007508AF
:100F20002300D3004608031D982F8C31E02487311D
:100F30002300CB01CA014808031D08008E31BD26DD
:100F400008000230F50075082300D3000830F500D2
:100F50002100690A86008701750881005030F5007C
:100F60000030F6006908023E860087017508C03F20
:100F70007608C13F0430F5006908860087017508CE
:100F8000810069088600870181172300CB01CA010F
:100F90004808031D08008E31BD2608002200E2002B
:100FA00021001211230051080319D92F2100121515
:100FB00008002200E3016208E0006008E10001305F
:100FC000E0006008E307630A0319EE2F610886005A
:100FD00002308700E10A0108031DDF2F62082300A9
:100FE000BF000230C00022006308E0006008230058
:0E0FF000D200CF01D101D10A21001215080054
:101000008D31BA2D8D31BD2D8D31F62D8D31BD2D0A
:101010008D31F62D8D319D2D8D31A62D8D31DD2D0E
:101020008D31AC2D8D31A92D8D31C02D8D31D02D2F
:101030008D31F62D8931E2298931CB298931CE29AB
:101040008931D1298931D4298931AC29893196292D
:101050008931992989319C2989319F29893193299D
:1010600089317D29893180298931832989318629EE
:1011A000FE0012001E00FE0BD12800342200E000D9
:1011B0006008003A0319E028013A0319E028E02802
:1011C000080042347534743474346F346E3420340F
:1011D00070347234653473347334653464342E344B
:1011E0000D340A3400348A31B5222300E40108307A
:1011F000FD007D08E600E5010030E3000030E2007C
:101200002530E1008030E000CE0108000030893157
:10121000632189318431C92489318931E3218931BC
:10122000203023004902031C10293D008E1810298C
:101230008F312427893110292200E000282903104A
:1012400020008C1D03140030093D08000030080008
:1012500022006008003A03192629013A03191F29C0
:101260003129003008007008F6007108F7000130DD
:10127000F4020030F53B740A0319750A03190800DB
:101280007608860077088700720881000130F6072B
:101290000030F73D372901302300AB070030AC3D6B
:1012A0000030AD3D0030AE3D4508031D0800013063
:1012B000F0007008CD074D08031D0800FF30F00056
:1012C0007008CD0008002200E1006E29013089314C
:1012D000C821893101308831D620080022006108F8
:1012E000003A03196629013A03197A29033A0319C6
:1012F0007A297A290800F000892922000E100800B6
:1013000022008E10080022000E11080022008E110B
:1013100008007008840005300402031808008831B2
:1013200004352E3E82000800F000A22922000E148F
:10133000080022008E14080022000E15080022006A
:101340008E15080070088400053004020318080098
:1013500088310435243E820008002200E20021008A
:10136000121123005108031DC52922006208230021
:10137000BF000330C00022006008E10061082300C4
:10138000D200CF01CF0AD101D10A210012150800E5
:101390002200E000D72921000E10080021008E1045
:1013A000080021000E11080021008E110800220003
:1013B00060088400053004020318080088310435F1
:1013C0001A3E8200080023004908031D08003D0062
:1013D0008E019201163091009F3097007B30920071
:1013E000210012150B178B173D008E19F9298E1548
:1013F000F42901302200E00060082300C900080041
:101400003D001215EF302000E80068083D0090050F
:101410008E1401302000E80068082300C500CD01CB
:1014200075302000E2000030E3000030E4000030BE
:10143000E5000030E600E7008A31EE220800FC00FB
:10144000771D272AF0017C088B3127238A31F71C6E
:101450002E2AF001F00A7C088B3127237C08983E65
:10146000F800F9010E30F93D7808FA007908FB0020
:101470007A0886007B08870077088100080023002F
:10148000C50174302000E2000030E3000030E400C9
:101490000030E5000030E600E7008A31EE228A31B4
:1014A0003D008E101211101D5C2AFB302000E80058
:1014B00068083D009005532A2300CD0108003D0037
:1014C000181C802A210068088600870180300106E8
:1014D000031D7E2A2300350886008701843001061B
:1014E000031D7E2A0C30F000210068088600870169
:1014F0007008810068088600870181173D00181078
:10150000DF30F00070089005080002302300530619
:10151000031D8D2A8631252608002300D3014108AA
:10152000031DB22A0830F6002100690A86008701EF
:10153000760881005030F6000030F7006908023E5E
:10154000860087017608C03F7708C13F0C30F6005F
:10155000690886008701760881006908860087018E
:10156000811708002300C101080000302300E300B8
:101570000030E2004B30E1000030E000E401E50122
:1015800008302000E00060082300E600D0011A3097
:101590002000E0006008F70001308A311F228A3104
:1015A0001E302000E0006008F70002308A311F2260
:1015B0008A31F0012030F1000130F200403020008B
:1015C000E0006008F30002308B31AF232000E1001F
:1015D00061082300C300C201D1010800FE2A8B313B
:1015E000FB2308008B31FB2308008B31FB23080011
:1015F0008831F32008008D3135250800200063086C
:10160000003A0319072B7F3A0319212B262B620876
:10161000013A0319F82A033A0319262B013A031950
:10162000FB2A063A0319262B773A0319262B013A8F
:101630000319EF2A073A0319F52A013A0319F22A86
:10164000262B6208FF3A0319262B262B0800F500EB
:101650002030F1007108F6007008F1000130F1351A
:10166000890B2F2B7508F2000130F235FF3E031D68
:10167000352B72357107F3000130F335FF3E031D42
:101680003D2B7335F4007408F60776088600870151
:1016900081137008031D512B7608F1007508B83EC0
:1016A000552B7608F1007508B53E8600013087009D
:1016B0007108810076088600870101137608043ED0
:1016C00086008701011708002000D801D901962B58
:1016D0002100EC1723004403031DA22B2000D81483
:1016E000A22B2100EC17A22B2100EC172000D41B09
:1016F0007D2B54080F39B83E802B54080F39B53E66
:101700008600013087000108F0007008F1007108C0
:1017100086008701811FA22B710886008701011DA9
:10172000A22B0130F0007008D800A22B50081F39FE
:10173000003A0319682B013A0319712B033A031974
:10174000742BA22B2100EC1F08005830EA00003057
:10175000EB006C140230F0007008ED000800F60099
:1017600070080319B62B7608B53EB82B7608B83E3C
:101770008600013087000108F4007408F70077083C
:10178000031DC42B00300800FF307105F4007F30CA
:101790007205F5007708023E860087017408C03F95
:1017A0007508C13F7308F400770A86008701740842
:1017B00081004030F40077088600870174088105B5
:1017C00077088600870181157708860087018117D1
:1017D00070080319F02B0430F4007608B53EF42BA2
:1017E0000430F4007608B83E8600013087007408A3
:1017F0008106770808003D008E1C3B2C01308931A2
:101800007B21080023003B033C04031D0C2C01300A
:10181000893194218B31412C4B3023003B063C0411
:10182000031D172C013089317B218B31412C003075
:1018300023003C029730342C3B033C04031D252C31
:101840000130893194218B31412C323023003B0609
:101850003C04031D302C013089317B218B31412C1C
:10186000033023003C02B73003193B02031C412C18
:10187000BB01BC01412C23004908203A0319022C6A
:101880001C2C01302300BB070030BC3D08002300A6
:10189000D701C801C601C701C101D3017F302000B3
:1018A000EF00230035088600870120006F088105BE
:1018B0000430EF006F082300B5067F302000EF00F2
:1018C000230035088600870120006F088105043059
:1018D000EF006F082300B5067F302000EF002100E5
:1018E00069088600870120006F0881052100EC014E
:1018F000ED01EE012300A201A301A4018D31952584
:101900008C3100302000E3000330E2000030E400BE
:101910000030E5000030E600E7008A31EE228C312D
:101920008731492708002200E600600803199B2C34
:101930006608B53E9D2C6608B83E860001308700DB
:101940000108E4006408E7006708031DA92C0030C3
:101950000800FF306105E4007F306205E50067089C
:10196000023E860087016408C03F6508C13F6308E6
:10197000E400670A86008701640881004030E400C3
:10198000670886008701640881056708860087016B
:101990008115670886008701811760080319D52C17
:1019A0000430E4006608B53ED92C0430E400660833
:1019B000B83E860001308700640881066708080089
:1019C0002300C601C70102305306031D072D08304E
:1019D000F3002100690A86008701730881005830EE
:1019E000F3000030F4006908023E860087017308A6
:1019F000C03F7408C13F4830F30069088600870182
:101A0000730881006908860087018117080021009A
:101A10006E0820005702031D112D21006D082000C3
:101A2000560203181A2D57082100EE002000560810
:101A30002100ED008F3191275830F3000030F40081
:101A400023003508023E860087017308C03F7408F2
:101A5000C13F4830F30035088600870173088100D4
:101A600035088600870181170800200050081F39BB
:101A7000013A031D0800500E890C0339013A031D79
:101A8000080054080319822D5403031D0800822DF9
:101A9000D8302100EA000130EB000030EE000830C1
:101AA000ED006C14EC170800D8302100EA0001307A
:101AB000EB00EC170800200057082300A4002000CA
:101AC00056082300A300E030F0007008A000A50134
:101AD000A601A2170800E0302100EA000130EB0067
:101AE0000030EE000730ED00C130F0007008EC006F
:101AF000080020005208F00070082300D4002100E4
:101B0000EC17080020005108003A0319482D013A4B
:101B10000319542D213A03195B2D013A03196B2D3A
:101B2000033A0319792D942D08002000500E890CDA
:101B30000339003A031D0800EB2D2100EC17083093
:101B40002000EE006E082300C9000800833108233E
:101B500008008631BA260800E9302100EA00013089
:101B6000EB006C1401302000EE006E082100ED0047
:101B7000EC1708008B3164230800803148200800EE
:101B800020005408E73E2100EA000130EB006C140D
:101B900001302000EE006E082100ED00EC17080077
:101BA0002100EC1720005208EE005408E73E8600A2
:101BB000013087006E08810008000030E300023029
:101BC000E2000030E4000030E5000030E600E7000D
:101BD0008A31EE2208002000510884000D300402F2
:101BE0000318080088310435003E820008002200F6
:101BF000EB002300D001430803190C2E4308860094
:101C00008701010D010D01392200E900EA0169088F
:101C1000EC006A08ED000F2E2200EC01ED016C08CB
:101C20006D04031D562E2300430A860087012200FF
:101C3000680801020318232E230043088600870149
:101C4000413F2200E8002300D00122006808230061
:101C500050020318442E5008203E860001308700B1
:101C600001082200E9002300500822006B07EA0067
:101C70006A08860002308700690881000130E900A7
:101C800069082300D007252E2200E0012030E10062
:101C90000130E2004030E9006908E30002308C3195
:101CA00093242200EA006A082300C300230050089E
:101CB000080023003508860087010030011B013031
:101CC000F5000430F3007308B50608304906031D1B
:101CD000782E200052087F393D009600160803191F
:101CE000732E1030742E0430F30073082300C900E3
:101CF0005303031DB62E5830F3000030F4003508AE
:101D0000023E860087017308C03F7408C13F8F31CF
:101D100091278E31023023005706031D9B2E04307D
:101D2000F3003508860087017308810035088600B6
:101D30008701811708007508031DAA2E4830F3009B
:101D40003508860087017308810035088600870101
:101D5000811708000830F3003508860087017308F2
:101D6000810035088600870181170800A21FBB2E5D
:101D700025082608A213D301080023004A08031DE2
:101D800008000130F0007008CA004B08031D08006D
:101D90000130F0007008CB0002305306031DE02E26
:101DA000350A8600870181014830F0003508860039
:101DB00087017008810035088600870181170800B7
:101DC0005303031D0800C1010830F0002100680A18
:101DD00086008701700881005030F0000030F1006B
:101DE0006808023E860087017008C03F7108C13F45
:101DF0000430F000680886008701700881006808D8
:101E00008600870181170130F00070082300C100AF
:101E10000830F0002100690A8600870170088100FF
:101E20005030F0000030F1006908023E8600870162
:101E30007008C03F7108C13F8030F000690886001B
:101E40008701700881000800013089311C218F3121
:101E5000013A031D3A2F23004E08031D3C2F510861
:101E6000031D3C2F20308731CE278F312300CE0138
:101E7000CE0A3C2F2300CE015108031D8E2F403087
:101E80002200EE006E08E800A0308D31F7258F317A
:101E90002200EF006F082300EB00EC016F2F6C08AD
:101EA000A03E86000230870001085E2F23006C08E8
:101EB000A03E8600023087000108013E2200EE00AD
:101EC00023006C08203E86000330870022006E0845
:101ED000810001302200EE006E082300EC076B0841
:101EE0006C020318822F23006C08A03E860002308B
:101EF000870001080A3A03194F2F073A03194F2F99
:101F0000562F692F6B0803198E2F6B082200EE00E5
:101F10006E08E00020308931AD218F3182313422CA
:101F200008000830F0007008F200003021006E0256
:101F3000083003196D020318AE2F6D08F000700809
:101F4000F20023005708031DA72F0130AB2F5703C2
:101F5000031DAE2F0230F0007008D7007208F000A9
:101F6000F10170082100ED027108EE3B7208F000EB
:101F70002300350A86008701700881005830F00080
:101F80007008D60021006C1CDF2FFC2F21006A088E
:101F900084006B0885000008F000230056088600C6
:101FA00087017008810001302100EA070030EB3D15
:101FB0000130F00070082300D6070130F2027208E9
:101FC00003190800C62F21006A0884006B088500E9
:101FD0000008F00023005608860087017008810081
:101FE00001302100EA070030EB3D0130F0007008BD
:101FF0002300D6070130F202720803190800E32F0C
:020000040001F9
:04000E00A2CF4FDF4F
:00000001FF
