:04000000AAEF00F073
:10000800FACFE2F0FBCFE3F0E9CFE4F06CED06F0D5
:10001800D8CF29F0E8CF2AF0E0CF2BF0FACF2CF098
:10002800FBCF2DF0E9CF2EF0EACF2FF0E1CF30F063
:10003800E2CF31F0D9CF32F0DACF33F0F3CF34F06A
:10004800F4CF35F0F6CF36F0F7CF37F0F8CF38F0F9
:10005800F5CF39F09DB09EA040D0800ECF6E000E37
:10006800CE6E9E900001C32B3B0E0001C36506D0E7
:10007800000E0001C36F0001C22B00D03B0E00012F
:10008800C26506D0000E0001C26F0001C12B00D06E
:10009800170E0001C16515D00001C251D8A411D0B6
:1000A8000001C351D8A40DD0000E0001C16F00019A
:1000B800BC2B060E0001BC6504D0000E0001BC6F0D
:1000C80000D00001C1513C0D0001C251F324216E42
:1000D8000001000EF420226E00D09DBA9EAA13D013
:1000E8009E9A2650010D600EF324D96E000EF4205E
:1000F800DA6EAECFDFFF262A0D0EAE18D8A403D0D5
:10010800000E266E00D039C0F5FF38C0F8FF37C0A2
:10011800F7FF36C0F6FF35C0F4FF34C0F3FF33C035
:10012800DAFF32C0D9FF31C0E2FF30C0E1FF2FC093
:10013800EAFF2EC0E9FF2DC0FBFF2CC0FAFF2BC041
:10014800E0FF2AC0E8FF29C0D8FF1000CBEF09F074
:10015800DEEC08F0000E0101106F000E0F6F000EAC
:1001680001010E6F000E0D6F00F0000E0101106FFF
:10017800000E0F6F010110510EE1190E01010F5D04
:10018800D8B009D001D007D0EDEC09F001010F4B30
:10019800102BF0D700D0000E0101036F1A0E026F6A
:1001A800000E0101056F000E046F2BEC09F0000E24
:1001B8000101036F1B0E026F000E0101056F000E97
:1001C800046F2BEC09F0819A000E286E000E276E42
:1001D800000E0001C36F000E0001C26F0C0E00017B
:1001E800C16F000E0001BC6F449842EF06F057EF54
:1001F80006F0030E7EEC08F0010102510101116FB7
:10020800060E01011119D8A44AD0000E0101036F8E
:10021800230E026FC1C004F10101056B2BEC09F03C
:10022800000E0101036F240E026FC2C004F1010128
:10023800056B2BEC09F0000E0101036F270E026F0E
:1002480018EC08F0010103BF2AD00101035104E1B1
:1002580001010205D8A023D0000E0101036F250E6D
:10026800026F18EC08F0010102510001C16F000E85
:100278000101036F260E026F18EC08F0010102510C
:100288000001C26F000E0101036F270E026F000EFE
:100298000101056F000E046F2BEC09F000D0070E6A
:1002A80001011119D8A434D0000E0101036F1C0EEE
:1002B800026F19C004F11AC005F12BEC09F0000E09
:1002C8000101036F1D0E026F1BC004F11CC005F174
:1002D8002BEC09F0000E0101036F1E0E026F1DC00A
:1002E80004F11EC005F12BEC09F01FC0B8F020C0C6
:1002F800B9F00001BA6BBB6B000E0101036F1F0E52
:10030800026FB8C004F1B9C005F12BEC09F000D0B8
:10031800080E01011119D8A475D0000E0101036F50
:10032800200E026FFF0EBB240101046F0101056B53
:10033800FF0E05232BEC09F0000E0101036F210EBF
:10034800026F18EC08F002C109F103C10AF10101BA
:10035800095101010A11D8B422D00A0EBB6412D087
:100368000A0EBB5E000E0101036F200E026FFF0E26
:10037800BB240101046F0101056BFF0E05232BEC63
:1003880009F000D0000E0101036F210E026F000E6C
:100398000101056F000E046F2BEC09F000D0000E70
:1003A8000101036F220E026F18EC08F002C10BF175
:1003B80003C10CF101010B5101010C11D8B422D079
:1003C8005B0EBB6012D00A0EBB26000E0101036F44
:1003D800200E026FFF0EBB240101046F0101056BA3
:1003E800FF0E05232BEC09F000D0000E0101036F6E
:1003F800220E026F000E0101056F000E046F2BEC38
:1004080009F000D001011105D8A420D144A00DD0D5
:10041800000E0101036F800E026F000E0101056FCF
:10042800010E046F2BEC09F00DD0000E0101036FD3
:10043800800E026F000E0101056F000E046F2BEC99
:1004480009F000D044A20DD0000E0101036F810E07
:10045800026F000E0101056F010E046F2BEC09F00D
:100468000DD0000E0101036F810E026F000E010115
:10047800056F000E046F2BEC09F000D00001C0A13D
:100488000DD0000E0101036F820E026F000E0101F4
:10049800056F010E046F2BEC09F00DD0000E010161
:1004A800036F820E026F000E0101056F000E046FCC
:1004B8002BEC09F000D00001C0A30DD0000E010103
:1004C800036F830E026F000E0101056F010E046FAA
:1004D8002BEC09F00DD0000E0101036F830E026FA3
:1004E800000E0101056F000E046F2BEC09F000D01F
:1004F8000001C0A50DD0000E0101036F840E026F2C
:10050800000E0101056F010E046F2BEC09F00DD0F0
:10051800000E0101036F840E026F000E0101056FCA
:10052800000E046F2BEC09F000D00001C0A70DD01D
:10053800000E0101036F850E026F000E0101056FA9
:10054800010E046F2BEC09F00DD0000E0101036FB2
:10055800850E026F000E0101056F000E046F2BEC73
:1005680009F000D00001C0A90DD0000E0101036FF1
:10057800860E026F000E0101056F010E046F2BEC51
:1005880009F00DD0000E0101036F860E026F000EF8
:100598000101056F000E046F2BEC09F000D000017B
:1005A800C0AB0DD0000E0101036F870E026F000E65
:1005B8000101056F010E046F2BEC09F00DD0000E40
:1005C8000101036F870E026F000E0101056F000E17
:1005D800046F2BEC09F000D00001C0AD0DD0000E67
:1005E8000101036F880E026F000E0101056F010EF5
:1005F800046F2BEC09F00DD0000E0101036F880E7B
:10060800026F000E0101056F000E046F2BEC09F05C
:1006180000D00001C0AF0DD0000E0101036F890E9C
:10062800026F000E0101056F010E046F2BEC09F03B
:100638000DD0000E0101036F890E026F000E01013B
:10064800056F000E046F2BEC09F000D0020E0101BB
:100658001119D8A4E8D00001BEA10DD0000E0101E7
:10066800036F8A0E026F000E0101056F010E046F01
:100678002BEC09F00DD0000E0101036F8A0E026FFA
:10068800000E0101056F000E046F2BEC09F000D07D
:100698000001BEA30DD0000E0101036F8B0E026F87
:1006A800000E0101056F010E046F2BEC09F00DD04F
:1006B800000E0101036F8B0E026F000E0101056F22
:1006C800000E046F2BEC09F000D00001BEA50DD080
:1006D800000E0101036F8C0E026F000E0101056F01
:1006E800010E046F2BEC09F00DD0000E0101036F11
:1006F8008C0E026F000E0101056F000E046F2BECCB
:1007080009F000D00001BEA70DD0000E0101036F53
:100718008D0E026F000E0101056F010E046F2BECA8
:1007280009F00DD0000E0101036F8D0E026F000E4F
:100738000101056F000E046F2BEC09F000D00001D9
:10074800BEA90DD0000E0101036F8E0E026F000EC0
:100758000101056F010E046F2BEC09F00DD0000E9E
:100768000101036F8E0E026F000E0101056F000E6E
:10077800046F2BEC09F000D00001BEAB0DD0000EC9
:100788000101036F8F0E026F000E0101056F010E4C
:10079800046F2BEC09F00DD0000E0101036F8F0ED2
:1007A800026F000E0101056F000E046F2BEC09F0BB
:1007B80000D00001BEAD0DD0000E0101036F900EF8
:1007C800026F000E0101056F010E046F2BEC09F09A
:1007D8000DD0000E0101036F900E026F000E010193
:1007E800056F000E046F2BEC09F000D00001BEAFBE
:1007F8000DD0000E0101036F910E026F000E010172
:10080800056F010E046F2BEC09F00DD0000E0101ED
:10081800036F910E026F000E0101056F000E046F49
:100828002BEC09F000D0030E01011119D8A4E8D06F
:100838000001BFA10DD0000E0101036F920E026FDF
:10084800000E0101056F010E046F2BEC09F00DD0AD
:10085800000E0101036F920E026F000E0101056F79
:10086800000E046F2BEC09F000D00001BFA30DD0DF
:10087800000E0101036F930E026F000E0101056F58
:10088800010E046F2BEC09F00DD0000E0101036F6F
:10089800930E026F000E0101056F000E046F2BEC22
:1008A80009F000D00001BFA50DD0000E0101036FB3
:1008B800940E026F000E0101056F010E046F2BEC00
:1008C80009F00DD0000E0101036F940E026F000EA7
:1008D8000101056F000E046F2BEC09F000D0000138
:1008E800BFA70DD0000E0101036F950E026F000E19
:1008F8000101056F010E046F2BEC09F00DD0000EFD
:100908000101036F950E026F000E0101056F000EC5
:10091800046F2BEC09F000D00001BFA90DD0000E28
:100928000101036F960E026F000E0101056F010EA3
:10093800046F2BEC09F00DD0000E0101036F960E29
:10094800026F000E0101056F000E046F2BEC09F019
:1009580000D00001BFAB0DD0000E0101036F970E50
:10096800026F000E0101056F010E046F2BEC09F0F8
:100978000DD0000E0101036F970E026F000E0101EA
:10098800056F000E046F2BEC09F000D00001BFAD1D
:100998000DD0000E0101036F980E026F000E0101C9
:1009A800056F010E046F2BEC09F00DD0000E01014C
:1009B800036F980E026F000E0101056F000E046FA1
:1009C8002BEC09F000D00001BFAF0DD0000E0101E3
:1009D800036F990E026F000E0101056F010E046F7F
:1009E8002BEC09F00DD0000E0101036F990E026F78
:1009F800000E0101056F000E046F2BEC09F000D00A
:100A0800000E0101036F1A0E026F18EC08F002C104
:100A18000FF103C110F1000E0101036F1B0E026FED
:100A280018EC08F002C10DF103C10EF1040E01012A
:100A38001119D8B436D06CD034D0447469D0447607
:100A480067D028A002D0289063D0288061D028A23F
:100A580002D028925DD028825BD028A402D02894A6
:100A680057D0288455D028A602D0289651D0288659
:100A78004FD028A802D028984BD0288849D028AA37
:100A880002D0289A45D0288A43D028AC02D0289C86
:100A98003FD0288C3DD028AE02D0289E39D0288E51
:100AA80037D00FC107F110C108F101010851000A40
:100AB800D8B407D0010AD8B41FD0030AD8B422D0BA
:100AC80027D001010751010AD8B4B7D7030AD8B40F
:100AD800B6D7060AD8B4B5D70C0AD8B4B8D7180A06
:100AE800D8B4BBD7300AD8B4BED7600AD8B4C1D7F7
:100AF800C00AD8B4C4D70CD001010751000AD8B431
:100B0800C4D706D001010751000AD8B4C4D700D011
:100B180001010F5101011011D8B40DD0000E0101CF
:100B2800036F1A0E026F000E0101056F000E046FAD
:100B38002BEC09F000D0050E01011119D8B434D0FE
:100B480061D032D027A002D027905CD027805AD01D
:100B580027A202D0279256D0278254D027A402D0A9
:100B6800279450D027844ED027A602D027964AD063
:100B7800278648D027A802D0279844D0278842D073
:100B880027AA02D0279A3ED0278A3CD027AC02D089
:100B9800279C38D0278C36D027AE02D0279E32D05B
:100BA800278E30D0817A2ED00DC107F10EC108F101
:100BB80001010851000AD8B404D0010AD8B41CD0E5
:100BC80021D001010751010AD8B4BCD7030AD8B40F
:100BD800BFD7060AD8B4C2D70C0AD8B4C5D7180AE2
:100BE800D8B4C8D7300AD8B4CBD7600AD8B4CED7CF
:100BF800C00AD8B4D1D706D001010751000AD8B429
:100C0800D1D700D001010D5101010E11D8B44BD03C
:100C1800000E0101036F1B0E026F000E0101056F2C
:100C2800000E046F2BEC09F03ED0F29E020E27D086
:100C3800A194A1B438D0030E22D035D04498DEEC6C
:100C480008F0000E0101106F000E0F6F0101105126
:100C58000EE1190E01010F5DD8B009D001D007D0FF
:100C6800EDEC09F001010F4B102BF0D700D011C1AA
:100C780002F10101036B030E65EC09F0000E00019F
:100C8800BD6F11D0030E7EEC08F001010251286EF1
:100C9800080E2818D8A404D0000E0001BD6F00D09B
:100CA80010EC0AF000D00001BD51000AD8B4FDEFE5
:100CB80000F0010AD8B4B9D7030AD8B4B9D7010AE1
:100CC800D8B4BCD7070AD8B4DDD7EDD7AAEF00F05F
:100CD8000600EACFE5F0E1CFE6F0E2CFE7F0D9CFC2
:100CE800E8F0DACFE9F0F3CFEAF0F4CFEBF0F6CFA3
:100CF800ECF0F7CFEDF0F8CFEEF0F5CFEFF0A0B4D1
:100D0800A1A407D0A094A1944488010E0001BD6F4E
:100D180000D0F2BAF2A452D13C0ED66EF2944490AE
:100D280080B84480449282B444829568010E846EEF
:100D380000F000F000F083CFC0F0030E846E00F0E6
:100D480000F000F083CFBFF0040E846E00F000F0D6
:100D580000F083CFBEF0020E846E00F0000E956E98
:100D680000F000F000F028C083FF00F0050E846E4C
:100D780000F000F000F027C083FF00F0000E846E42
:100D880000F0956844A402D0818401D0819444A6DF
:100D980002D0818801D0819811D1C30EC216030EEA
:100DA800236004D02344E846FC0B04D02344E846DF
:100DB800FC0B040FC21200D0010EFED0C282020E3C
:100DC800FBD0C2B208D1C4CF41F0426A4150426E52
:100DD800416AC35041122350020D010EF324D96E0B
:100DE800000EF420DA6E4150DE264250DD22232A1E
:100DF800030E236404D0000E236E242A00D0000EB4
:100E0800256E190E2418D8A4E6D0030ED5D0E3D049
:100E1800000E436E030E436401D0CBD04350020D45
:100E2800010EF324D96E000EF420DA6EDECF3AF00C
:100E3800DDCF3BF0000E3D6E190E3C6E9DEC09F0C7
:100E48004350020D190EF324D96E000EF420DA6E09
:100E58003AC0DEFF3BC0DDFF030E43609CD0435029
:100E6800020D090EF324D96E000EF420DA6EDECFDF
:100E7800E0F0DDCFE1F04350020D190EF324D96EF6
:100E8800000EF420DA6E0001E051DE26E151DD2289
:100E98004350020D110EF324D96E000EF420DA6EC1
:100EA800DECFE0F0DDCFE1F04350020D190EF32460
:100EB800D96E000EF420DA6E0001E051DE26E15111
:100EC800DD224350020DB00EF324D96E000EF4203B
:100ED800DA6EDECFE0F0DDCFE1F04350020D190EFF
:100EE800F324D96E000EF420DA6E0001E051DE26FC
:100EF800E151DD22020E0001E06F4350020D190E90
:100F0800F324D96E000EF420DA6E0001E02904D033
:100F1800D92AD890DD32DF32E82EFAD74350020DB5
:100F2800110EF324D96E000EF420DA6E4350020D30
:100F3800B00EF324E16E000EF420E26EDECFE6FF81
:100F4800DDCFE5FF4350020D090EF324D96E000EE4
:100F5800F420DA6E4350020D110EF324E16E000EF8
:100F6800F420E26EDECFE6FFDDCFE5FF4350020D51
:100F7800190EF324D96E000EF420DA6E4350020DD8
:100F8800090EF324E16E000EF420E26EDECFE6FFD8
:100F9800DDCFE5FF00D04350020D010EF324D96EDA
:100FA800000EF420DA6E000EDE6E000EDD6E432AAF
:100FB80031D7000E246E000E256E0DD02550000A84
:100FC800D8B4EBD6010AD8B4F9D6030AD8B4F9D6FE
:100FD800010AD8B41DD744A80AD0070E0001E06F53
:100FE8007D0EE82EFED7E02FFCD700F000D0EFC032
:100FF800F5FFEEC0F8FFEDC0F7FFECC0F6FFEBC061
:10100800F4FFEAC0F3FFE9C0DAFFE8C0D9FFE7C0A0
:10101800E2FFE6C0E1FFE5C0EAFFE4C0E9FFE3C0A4
:10102800FBFFE2C0FAFF11005A0E0001886FA50EFF
:101038000001896F040E00018A6F830E00018B6F17
:101048000101035100018C6F02C18DF0010E0001F6
:101058008E6F9E98000E0101066F16D019D00101FF
:101068000651010D880EF324D96E000EF420DA6EB5
:10107800DF50AD6E04D044B804D001D002D09EA891
:10108800FAD79E980101062B060E01010665E7D7DF
:101098009E9A000E0101066F080E0101066506D032
:1010A80016D004D044B804D001D002D09EAAFAD7F2
:1010B8009E9A01010651010D600EF324D96E000EAF
:1010C800F420DA6EAECFDFFF0101062BE5D7000171
:1010D80067510101056F046B000168510101042784
:1010E800000E0523EDEC09F004C102F105C103F17E
:1010F80000D012000101046F5A0E0001886FA50E7E
:101108000001896F030E00018A6F810E00018B6F49
:1011180004C18CF0020E00018D6F9E98000E010133
:10112800066F16D019D001010651010D880EF3245F
:10113800D96E000EF420DA6EDF50AD6E04D044B8DC
:1011480004D001D002D09EA8FAD79E980101062BA0
:10115800050E01010665E7D79E9A000E0101066F8C
:10116800070E0101066506D016D004D044B804D095
:1011780001D002D09EAAFAD79E9A01010651010D0C
:10118800600EF324D96E000EF420DA6EAECFDFFFC6
:101198000101062BE5D7000E0101056F000167511B
:1011A80001010527EDEC09F005C102F10101036B0E
:1011B80000D01200000EC26E1A0EC16EA50EC06ECF
:1011C800070EB46E3F0E926E000E806EC30E936EC5
:1011D800000E816E9468000E826E9568000E836E14
:1011E800000E966E000E846E020EB06E080EAF6E84
:1011F800B886AC84AC8AAB8EAB889F9A9D9AC28025
:10120800D08EC60ED56E3C0ED66EF184F28A9F90B3
:10121800CD84CD82CD869D80CD98CD9ACD80640E2B
:10122800CB6E1F0EBB6E040ECA6E0F0EBA6EA08474
:10123800A284D298070ED26ED29ED28800D0D2AAAB
:10124800FED7A194F28EF28C330EBB6E12005A0EAA
:101258000001886FA50E0001896F050E00018A6FD5
:10126800820E00018B6F0101035100018C6F02C1D6
:101278008DF00101055100018E6F04C18FF09E9819
:10128800000E0101066F070E0101066501D016D098
:1012980001010651010D880EF324D96E000EF420C9
:1012A800DA6EDF50AD6E04D044B804D001D002D05D
:1012B8009EA8FAD79E980101062BE5D7EDEC09F018
:1012C80012000101046F5A0E0001886FA50E00017B
:1012D800896F040E00018A6F800E00018B6F04C1B4
:1012E8008CF00101035100018D6F02C18EF09E98B0
:1012F800000E0101056F060E0101056501D016D02B
:1013080001010551010D880EF324D96E000EF42059
:10131800DA6EDF50AD6E04D044B804D001D002D0EC
:101328009EA8FAD79E980101052BE5D7EDEC09F0A8
:101338001200000E3F6E000E3E6E3C503D10D8B4B9
:1013480021D0010E406E05D0D8903C363D36402A5B
:1013580000D03DBE02D0F8D700D0D8903E363F36F8
:101368003C503A5C3D503B58D8A006D03C503A5EC1
:101378003D503B5A3E8000D0D8903D323C32402E02
:10138800ECD700D03EC03AF03FC03BF0120000EE70
:1013980060F0640EEE6AE806FDE1446A00EE01F0D2
:1013A800280EEE6AE806FDE1040EF66E140EF76EDE
:1013B800000EF86E00EEC4F010EE1CF00900F5CF38
:1013C800EEFFE550E150FAE1000EF86E0001ACEFD7
:1013D80000F0000E0101016F4F0E0101016501D0FF
:1013E8000CD0070E0101006F7D0EE82EFED7002FEE
:1013F800FCD700F00101012BEFD71200444F4D003C
:101408005345470054455200515541005155490034
:101418005345580053414200818800F0819800F0FC
:021428001200B0
:020000040020DA
:08000000FFFFFFFFFFFFFFFF00
:020000040030CA
:0E000000000C191EFF8080FF0FC00FE00F40A4
:00000001FF
